{
  "_format": "hh-sol-artifact-1",
  "contractName": "Dex",
  "sourceName": "contracts/Dex.sol",
  "abi": [
    {
      "anonymous": false,
      "inputs": [
        {
          "indexed": true,
          "internalType": "address",
          "name": "previousOwner",
          "type": "address"
        },
        {
          "indexed": true,
          "internalType": "address",
          "name": "newOwner",
          "type": "address"
        }
      ],
      "name": "OwnershipTransferred",
      "type": "event"
    },
    {
      "inputs": [
        {
          "internalType": "bytes32",
          "name": "ticker",
          "type": "bytes32"
        },
        {
          "internalType": "address",
          "name": "tokenAddress",
          "type": "address"
        }
      ],
      "name": "addToken",
      "outputs": [],
      "stateMutability": "nonpayable",
      "type": "function"
    },
    {
      "inputs": [
        {
          "internalType": "address",
          "name": "",
          "type": "address"
        },
        {
          "internalType": "bytes32",
          "name": "",
          "type": "bytes32"
        }
      ],
      "name": "balances",
      "outputs": [
        {
          "internalType": "uint256",
          "name": "",
          "type": "uint256"
        }
      ],
      "stateMutability": "view",
      "type": "function"
    },
    {
      "inputs": [
        {
          "internalType": "uint256",
          "name": "side",
          "type": "uint256"
        },
        {
          "internalType": "bytes32",
          "name": "ticker",
          "type": "bytes32"
        },
        {
          "internalType": "uint256",
          "name": "amount",
          "type": "uint256"
        }
      ],
      "name": "createBuyMarketOrder",
      "outputs": [],
      "stateMutability": "nonpayable",
      "type": "function"
    },
    {
      "inputs": [
        {
          "internalType": "enum Dex.Side",
          "name": "side",
          "type": "uint8"
        },
        {
          "internalType": "bytes32",
          "name": "ticker",
          "type": "bytes32"
        },
        {
          "internalType": "uint256",
          "name": "amount",
          "type": "uint256"
        },
        {
          "internalType": "uint256",
          "name": "price",
          "type": "uint256"
        }
      ],
      "name": "createLimitOrder",
      "outputs": [],
      "stateMutability": "nonpayable",
      "type": "function"
    },
    {
      "inputs": [
        {
          "internalType": "enum Dex.Side",
          "name": "side",
          "type": "uint8"
        },
        {
          "internalType": "bytes32",
          "name": "ticker",
          "type": "bytes32"
        },
        {
          "internalType": "uint256",
          "name": "amount",
          "type": "uint256"
        }
      ],
      "name": "createMarketOrder",
      "outputs": [],
      "stateMutability": "nonpayable",
      "type": "function"
    },
    {
      "inputs": [
        {
          "internalType": "uint256",
          "name": "side",
          "type": "uint256"
        },
        {
          "internalType": "bytes32",
          "name": "ticker",
          "type": "bytes32"
        },
        {
          "internalType": "uint256",
          "name": "amount",
          "type": "uint256"
        }
      ],
      "name": "createSellMarketOrder",
      "outputs": [],
      "stateMutability": "nonpayable",
      "type": "function"
    },
    {
      "inputs": [
        {
          "internalType": "enum Dex.Side",
          "name": "side",
          "type": "uint8"
        },
        {
          "internalType": "bytes32",
          "name": "ticker",
          "type": "bytes32"
        },
        {
          "internalType": "uint256",
          "name": "amount",
          "type": "uint256"
        },
        {
          "internalType": "uint256",
          "name": "price",
          "type": "uint256"
        }
      ],
      "name": "createSortedLimitOrder",
      "outputs": [],
      "stateMutability": "nonpayable",
      "type": "function"
    },
    {
      "inputs": [
        {
          "internalType": "uint256",
          "name": "amount",
          "type": "uint256"
        },
        {
          "internalType": "bytes32",
          "name": "ticker",
          "type": "bytes32"
        }
      ],
      "name": "deposit",
      "outputs": [],
      "stateMutability": "nonpayable",
      "type": "function"
    },
    {
      "inputs": [],
      "name": "depositEth",
      "outputs": [],
      "stateMutability": "payable",
      "type": "function"
    },
    {
      "inputs": [
        {
          "internalType": "uint256",
          "name": "amount",
          "type": "uint256"
        },
        {
          "internalType": "uint256",
          "name": "price",
          "type": "uint256"
        }
      ],
      "name": "generateNewOrder",
      "outputs": [
        {
          "components": [
            {
              "internalType": "address",
              "name": "trader",
              "type": "address"
            },
            {
              "internalType": "uint256",
              "name": "amount",
              "type": "uint256"
            },
            {
              "internalType": "uint256",
              "name": "price",
              "type": "uint256"
            }
          ],
          "internalType": "struct Dex.Order",
          "name": "",
          "type": "tuple"
        }
      ],
      "stateMutability": "view",
      "type": "function"
    },
    {
      "inputs": [],
      "name": "getMyEthBalance",
      "outputs": [
        {
          "internalType": "uint256",
          "name": "",
          "type": "uint256"
        }
      ],
      "stateMutability": "view",
      "type": "function"
    },
    {
      "inputs": [
        {
          "internalType": "bytes32",
          "name": "ticker",
          "type": "bytes32"
        }
      ],
      "name": "getMyTokenBalance",
      "outputs": [
        {
          "internalType": "uint256",
          "name": "",
          "type": "uint256"
        }
      ],
      "stateMutability": "view",
      "type": "function"
    },
    {
      "inputs": [
        {
          "internalType": "bytes32",
          "name": "ticker",
          "type": "bytes32"
        },
        {
          "internalType": "enum Dex.Side",
          "name": "side",
          "type": "uint8"
        }
      ],
      "name": "getOrderBook",
      "outputs": [
        {
          "components": [
            {
              "internalType": "address",
              "name": "trader",
              "type": "address"
            },
            {
              "internalType": "uint256",
              "name": "amount",
              "type": "uint256"
            },
            {
              "internalType": "uint256",
              "name": "price",
              "type": "uint256"
            }
          ],
          "internalType": "struct Dex.Order[]",
          "name": "",
          "type": "tuple[]"
        }
      ],
      "stateMutability": "view",
      "type": "function"
    },
    {
      "inputs": [
        {
          "components": [
            {
              "internalType": "address",
              "name": "trader",
              "type": "address"
            },
            {
              "internalType": "uint256",
              "name": "amount",
              "type": "uint256"
            },
            {
              "internalType": "uint256",
              "name": "price",
              "type": "uint256"
            }
          ],
          "internalType": "struct Dex.Order[]",
          "name": "orders",
          "type": "tuple[]"
        },
        {
          "components": [
            {
              "internalType": "address",
              "name": "trader",
              "type": "address"
            },
            {
              "internalType": "uint256",
              "name": "amount",
              "type": "uint256"
            },
            {
              "internalType": "uint256",
              "name": "price",
              "type": "uint256"
            }
          ],
          "internalType": "struct Dex.Order",
          "name": "newOrder",
          "type": "tuple"
        }
      ],
      "name": "getPositionToPlace",
      "outputs": [
        {
          "internalType": "uint256",
          "name": "",
          "type": "uint256"
        }
      ],
      "stateMutability": "pure",
      "type": "function"
    },
    {
      "inputs": [
        {
          "internalType": "bytes32",
          "name": "token",
          "type": "bytes32"
        }
      ],
      "name": "getTokenBalance",
      "outputs": [
        {
          "internalType": "uint256",
          "name": "",
          "type": "uint256"
        }
      ],
      "stateMutability": "nonpayable",
      "type": "function"
    },
    {
      "inputs": [
        {
          "internalType": "enum Dex.Side",
          "name": "side",
          "type": "uint8"
        },
        {
          "internalType": "bytes32",
          "name": "ticker",
          "type": "bytes32"
        },
        {
          "internalType": "uint256",
          "name": "amount",
          "type": "uint256"
        },
        {
          "internalType": "uint256",
          "name": "price",
          "type": "uint256"
        }
      ],
      "name": "hasSufficientBalanceForLimit",
      "outputs": [],
      "stateMutability": "view",
      "type": "function"
    },
    {
      "inputs": [
        {
          "internalType": "enum Dex.Side",
          "name": "side",
          "type": "uint8"
        },
        {
          "internalType": "bytes32",
          "name": "ticker",
          "type": "bytes32"
        },
        {
          "internalType": "uint256",
          "name": "amount",
          "type": "uint256"
        }
      ],
      "name": "hasSufficientBalanceForMarket",
      "outputs": [],
      "stateMutability": "view",
      "type": "function"
    },
    {
      "inputs": [
        {
          "components": [
            {
              "internalType": "address",
              "name": "trader",
              "type": "address"
            },
            {
              "internalType": "uint256",
              "name": "amount",
              "type": "uint256"
            },
            {
              "internalType": "uint256",
              "name": "price",
              "type": "uint256"
            }
          ],
          "internalType": "struct Dex.Order",
          "name": "prevOrder",
          "type": "tuple"
        },
        {
          "components": [
            {
              "internalType": "address",
              "name": "trader",
              "type": "address"
            },
            {
              "internalType": "uint256",
              "name": "amount",
              "type": "uint256"
            },
            {
              "internalType": "uint256",
              "name": "price",
              "type": "uint256"
            }
          ],
          "internalType": "struct Dex.Order",
          "name": "newOrder",
          "type": "tuple"
        },
        {
          "components": [
            {
              "internalType": "address",
              "name": "trader",
              "type": "address"
            },
            {
              "internalType": "uint256",
              "name": "amount",
              "type": "uint256"
            },
            {
              "internalType": "uint256",
              "name": "price",
              "type": "uint256"
            }
          ],
          "internalType": "struct Dex.Order",
          "name": "nextOrder",
          "type": "tuple"
        }
      ],
      "name": "isMiddlePosition",
      "outputs": [
        {
          "internalType": "bool",
          "name": "",
          "type": "bool"
        }
      ],
      "stateMutability": "pure",
      "type": "function"
    },
    {
      "inputs": [
        {
          "internalType": "enum Dex.Side",
          "name": "side",
          "type": "uint8"
        },
        {
          "internalType": "bytes32",
          "name": "ticker",
          "type": "bytes32"
        },
        {
          "internalType": "uint256",
          "name": "amount",
          "type": "uint256"
        }
      ],
      "name": "isOrderBookEmpty",
      "outputs": [],
      "stateMutability": "view",
      "type": "function"
    },
    {
      "inputs": [
        {
          "internalType": "bytes32",
          "name": "",
          "type": "bytes32"
        },
        {
          "internalType": "uint256",
          "name": "",
          "type": "uint256"
        },
        {
          "internalType": "uint256",
          "name": "",
          "type": "uint256"
        }
      ],
      "name": "orderBook",
      "outputs": [
        {
          "internalType": "address",
          "name": "trader",
          "type": "address"
        },
        {
          "internalType": "uint256",
          "name": "amount",
          "type": "uint256"
        },
        {
          "internalType": "uint256",
          "name": "price",
          "type": "uint256"
        }
      ],
      "stateMutability": "view",
      "type": "function"
    },
    {
      "inputs": [],
      "name": "owner",
      "outputs": [
        {
          "internalType": "address",
          "name": "",
          "type": "address"
        }
      ],
      "stateMutability": "view",
      "type": "function"
    },
    {
      "inputs": [],
      "name": "renounceOwnership",
      "outputs": [],
      "stateMutability": "nonpayable",
      "type": "function"
    },
    {
      "inputs": [
        {
          "internalType": "bytes32",
          "name": "ticker",
          "type": "bytes32"
        },
        {
          "internalType": "enum Dex.Side",
          "name": "side",
          "type": "uint8"
        }
      ],
      "name": "resetOrderBook",
      "outputs": [
        {
          "components": [
            {
              "internalType": "address",
              "name": "trader",
              "type": "address"
            },
            {
              "internalType": "uint256",
              "name": "amount",
              "type": "uint256"
            },
            {
              "internalType": "uint256",
              "name": "price",
              "type": "uint256"
            }
          ],
          "internalType": "struct Dex.Order[]",
          "name": "",
          "type": "tuple[]"
        }
      ],
      "stateMutability": "view",
      "type": "function"
    },
    {
      "inputs": [
        {
          "internalType": "uint256",
          "name": "",
          "type": "uint256"
        }
      ],
      "name": "tokenList",
      "outputs": [
        {
          "internalType": "bytes32",
          "name": "",
          "type": "bytes32"
        }
      ],
      "stateMutability": "view",
      "type": "function"
    },
    {
      "inputs": [
        {
          "internalType": "bytes32",
          "name": "",
          "type": "bytes32"
        }
      ],
      "name": "tokenMapping",
      "outputs": [
        {
          "internalType": "bytes32",
          "name": "ticker",
          "type": "bytes32"
        },
        {
          "internalType": "address",
          "name": "tokenAddress",
          "type": "address"
        }
      ],
      "stateMutability": "view",
      "type": "function"
    },
    {
      "inputs": [
        {
          "internalType": "address",
          "name": "newOwner",
          "type": "address"
        }
      ],
      "name": "transferOwnership",
      "outputs": [],
      "stateMutability": "nonpayable",
      "type": "function"
    },
    {
      "inputs": [
        {
          "internalType": "uint256",
          "name": "amount",
          "type": "uint256"
        },
        {
          "internalType": "bytes32",
          "name": "ticker",
          "type": "bytes32"
        }
      ],
      "name": "withdraw",
      "outputs": [],
      "stateMutability": "nonpayable",
      "type": "function"
    },
    {
      "inputs": [
        {
          "internalType": "uint256",
          "name": "amount",
          "type": "uint256"
        }
      ],
      "name": "withdrawEth",
      "outputs": [],
      "stateMutability": "nonpayable",
      "type": "function"
    }
  ],
  "bytecode": "0x60806040523480156200001157600080fd5b50600062000024620000c860201b60201c565b9050806000806101000a81548173ffffffffffffffffffffffffffffffffffffffff021916908373ffffffffffffffffffffffffffffffffffffffff1602179055508073ffffffffffffffffffffffffffffffffffffffff16600073ffffffffffffffffffffffffffffffffffffffff167f8be0079c531659141344cd1fd0a4f28419497f9722a3daafe3b4186f6b6457e060405160405180910390a350620000d0565b600033905090565b61450080620000e06000396000f3fe6080604052600436106101b75760003560e01c80639776aacf116100ec578063c311d0491161008a578063e58c1a8b11610064578063e58c1a8b14610646578063f1b928f31461066f578063f2fde38b14610698578063f7010282146106c1576101b7565b8063c311d049146105b7578063c9630cb0146105e0578063d752491a14610609576101b7565b8063a8d2021a116100c6578063a8d2021a146104eb578063b23712d914610514578063ba58ea6814610551578063bae450f91461058e576101b7565b80639776aacf1461045c57806399ec2f1c146104855780639ead7222146104ae576101b7565b80636147cd0b11610159578063715018a611610133578063715018a6146103a057806388db6ac6146103b75780638c9f9196146103f45780638da5cb5b14610431576101b7565b80636147cd0b146102fc578063667cb4ba146103395780636f3b62f914610377576101b7565b80631f14df69116101955780631f14df6914610263578063296bd3a1146102a05780633b9a805d146102c9578063439370b1146102f2576101b7565b80630709dec8146101bc5780630bb431b6146101e75780631ea6042714610226575b600080fd5b3480156101c857600080fd5b506101d16106ea565b6040516101de9190614318565b60405180910390f35b3480156101f357600080fd5b5061020e60048036038101906102099190613d4f565b610762565b60405161021d939291906141e5565b60405180910390f35b34801561023257600080fd5b5061024d60048036038101906102489190613f54565b6107d6565b60405161025a91906142fd565b60405180910390f35b34801561026f57600080fd5b5061028a60048036038101906102859190613c1e565b610817565b6040516102979190614318565b60405180910390f35b3480156102ac57600080fd5b506102c760048036038101906102c29190613ded565b61083c565b005b3480156102d557600080fd5b506102f060048036038101906102eb9190613f05565b6109bf565b005b6102fa6114af565b005b34801561030857600080fd5b50610323600480360381019061031e9190613cae565b6115a8565b6040516103309190614318565b60405180910390f35b34801561034557600080fd5b50610360600480360381019061035b9190613cae565b611602565b60405161036e929190614274565b60405180910390f35b34801561038357600080fd5b5061039e60048036038101906103999190613ded565b611646565b005b3480156103ac57600080fd5b506103b561173e565b005b3480156103c357600080fd5b506103de60048036038101906103d99190613cae565b6118ab565b6040516103eb9190614318565b60405180910390f35b34801561040057600080fd5b5061041b60048036038101906104169190613d13565b611905565b604051610428919061421c565b60405180910390f35b34801561043d57600080fd5b506104466119fe565b60405161045391906141ca565b60405180910390f35b34801561046857600080fd5b50610483600480360381019061047e9190613cd7565b611a27565b005b34801561049157600080fd5b506104ac60048036038101906104a79190613d9e565b611b95565b005b3480156104ba57600080fd5b506104d560048036038101906104d09190613ea0565b611c02565b6040516104e29190614259565b60405180910390f35b3480156104f757600080fd5b50610512600480360381019061050d9190613ec9565b611c26565b005b34801561052057600080fd5b5061053b60048036038101906105369190613e50565b611f65565b604051610548919061423e565b60405180910390f35b34801561055d57600080fd5b5061057860048036038101906105739190613d13565b611f90565b604051610585919061421c565b60405180910390f35b34801561059a57600080fd5b506105b560048036038101906105b09190613d9e565b612089565b005b3480156105c357600080fd5b506105de60048036038101906105d99190613ea0565b6121fa565b005b3480156105ec57600080fd5b5061060760048036038101906106029190613ec9565b612447565b005b34801561061557600080fd5b50610630600480360381019061062b9190613c5a565b6126de565b60405161063d9190614318565b60405180910390f35b34801561065257600080fd5b5061066d60048036038101906106689190613d9e565b6127ae565b005b34801561067b57600080fd5b5061069660048036038101906106919190613ded565b6128c2565b005b3480156106a457600080fd5b506106bf60048036038101906106ba9190613bf5565b61293c565b005b3480156106cd57600080fd5b506106e860048036038101906106e39190613f05565b612b2e565b005b6000600360003373ffffffffffffffffffffffffffffffffffffffff1673ffffffffffffffffffffffffffffffffffffffff16815260200190815260200160002060007f4554480000000000000000000000000000000000000000000000000000000000815260200190815260200160002054905090565b6004602052826000526040600020602052816000526040600020818154811061078a57600080fd5b906000526020600020906003020160009250925050508060000160009054906101000a900473ffffffffffffffffffffffffffffffffffffffff16908060010154908060020154905083565b6107de613a74565b60405180606001604052803373ffffffffffffffffffffffffffffffffffffffff16815260200184815260200183815250905092915050565b6003602052816000526040600020602052806000526040600020600091509150505481565b6000600181111561084957fe5b84600181111561085557fe5b14156109255761086e818361361e90919063ffffffff16565b600360003373ffffffffffffffffffffffffffffffffffffffff1673ffffffffffffffffffffffffffffffffffffffff16815260200190815260200160002060007f45544800000000000000000000000000000000000000000000000000000000008152602001908152602001600020541015610920576040517f08c379a00000000000000000000000000000000000000000000000000000000081526004016109179061429d565b60405180910390fd5b6109b9565b81600360003373ffffffffffffffffffffffffffffffffffffffff1673ffffffffffffffffffffffffffffffffffffffff16815260200190815260200160002060008581526020019081526020016000205410156109b8576040517f08c379a00000000000000000000000000000000000000000000000000000000081526004016109af906142dd565b60405180910390fd5b5b50505050565b600081905060005b60046000858152602001908152602001600020600086815260200190815260200160002080549050811080156109fd5750600082115b156114a75760006004600086815260200190815260200160002060008781526020019081526020016000208281548110610a3357fe5b906000526020600020906003020160000160009054906101000a900473ffffffffffffffffffffffffffffffffffffffff1690506004600086815260200190815260200160002060008781526020019081526020016000208281548110610a9657fe5b9060005260206000209060030201600101548311610f4d57610b01836004600088815260200190815260200160002060008981526020019081526020016000208481548110610ae157fe5b9060005260206000209060030201600101546136a490919063ffffffff16565b6004600087815260200190815260200160002060008881526020019081526020016000208381548110610b3057fe5b906000526020600020906003020160010181905550610ba883600360003373ffffffffffffffffffffffffffffffffffffffff1673ffffffffffffffffffffffffffffffffffffffff1681526020019081526020016000206000888152602001908152602001600020546136a490919063ffffffff16565b600360003373ffffffffffffffffffffffffffffffffffffffff1673ffffffffffffffffffffffffffffffffffffffff168152602001908152602001600020600087815260200190815260200160002081905550610cd1610c526004600088815260200190815260200160002060008981526020019081526020016000208481548110610c3157fe5b9060005260206000209060030201600201548561361e90919063ffffffff16565b600360003373ffffffffffffffffffffffffffffffffffffffff1673ffffffffffffffffffffffffffffffffffffffff16815260200190815260200160002060007f455448000000000000000000000000000000000000000000000000000000000081526020019081526020016000205461372790919063ffffffff16565b600360003373ffffffffffffffffffffffffffffffffffffffff1673ffffffffffffffffffffffffffffffffffffffff16815260200190815260200160002060007f4554480000000000000000000000000000000000000000000000000000000000815260200190815260200160002081905550610da884600360008473ffffffffffffffffffffffffffffffffffffffff1673ffffffffffffffffffffffffffffffffffffffff16815260200190815260200160002060008881526020019081526020016000205461372790919063ffffffff16565b600360008373ffffffffffffffffffffffffffffffffffffffff1673ffffffffffffffffffffffffffffffffffffffff168152602001908152602001600020600087815260200190815260200160002081905550610ed1610e526004600088815260200190815260200160002060008981526020019081526020016000208481548110610e3157fe5b9060005260206000209060030201600201548561361e90919063ffffffff16565b600360008473ffffffffffffffffffffffffffffffffffffffff1673ffffffffffffffffffffffffffffffffffffffff16815260200190815260200160002060007f45544800000000000000000000000000000000000000000000000000000000008152602001908152602001600020546136a490919063ffffffff16565b600360008373ffffffffffffffffffffffffffffffffffffffff1673ffffffffffffffffffffffffffffffffffffffff16815260200190815260200160002060007f45544800000000000000000000000000000000000000000000000000000000008152602001908152602001600020819055505050506114aa565b610fa06004600087815260200190815260200160002060008881526020019081526020016000208381548110610f7f57fe5b906000526020600020906003020160010154846136a490919063ffffffff16565b92506110456004600087815260200190815260200160002060008881526020019081526020016000208381548110610fd457fe5b906000526020600020906003020160010154600360003373ffffffffffffffffffffffffffffffffffffffff1673ffffffffffffffffffffffffffffffffffffffff1681526020019081526020016000206000888152602001908152602001600020546136a490919063ffffffff16565b600360003373ffffffffffffffffffffffffffffffffffffffff1673ffffffffffffffffffffffffffffffffffffffff16815260200190815260200160002060008781526020019081526020016000208190555061116e6110ef60046000888152602001908152602001600020600089815260200190815260200160002084815481106110ce57fe5b9060005260206000209060030201600201548561361e90919063ffffffff16565b600360003373ffffffffffffffffffffffffffffffffffffffff1673ffffffffffffffffffffffffffffffffffffffff16815260200190815260200160002060007f455448000000000000000000000000000000000000000000000000000000000081526020019081526020016000205461372790919063ffffffff16565b600360003373ffffffffffffffffffffffffffffffffffffffff1673ffffffffffffffffffffffffffffffffffffffff16815260200190815260200160002060007f4554480000000000000000000000000000000000000000000000000000000000815260200190815260200160002081905550611285600460008781526020019081526020016000206000888152602001908152602001600020838154811061121457fe5b906000526020600020906003020160010154600360008473ffffffffffffffffffffffffffffffffffffffff1673ffffffffffffffffffffffffffffffffffffffff16815260200190815260200160002060008881526020019081526020016000205461372790919063ffffffff16565b600360008373ffffffffffffffffffffffffffffffffffffffff1673ffffffffffffffffffffffffffffffffffffffff1681526020019081526020016000206000878152602001908152602001600020819055506113ae61132f600460008881526020019081526020016000206000898152602001908152602001600020848154811061130e57fe5b9060005260206000209060030201600201548561361e90919063ffffffff16565b600360008473ffffffffffffffffffffffffffffffffffffffff1673ffffffffffffffffffffffffffffffffffffffff16815260200190815260200160002060007f45544800000000000000000000000000000000000000000000000000000000008152602001908152602001600020546136a490919063ffffffff16565b600360008373ffffffffffffffffffffffffffffffffffffffff1673ffffffffffffffffffffffffffffffffffffffff16815260200190815260200160002060007f4554480000000000000000000000000000000000000000000000000000000000815260200190815260200160002081905550600460008681526020019081526020016000206000878152602001908152602001600020828154811061145157fe5b9060005260206000209060030201600080820160006101000a81549073ffffffffffffffffffffffffffffffffffffffff02191690556001820160009055600282016000905550505080806001019150506109c7565b50505b505050565b61153234600360003373ffffffffffffffffffffffffffffffffffffffff1673ffffffffffffffffffffffffffffffffffffffff16815260200190815260200160002060007f455448000000000000000000000000000000000000000000000000000000000081526020019081526020016000205461372790919063ffffffff16565b600360003373ffffffffffffffffffffffffffffffffffffffff1673ffffffffffffffffffffffffffffffffffffffff16815260200190815260200160002060007f4554480000000000000000000000000000000000000000000000000000000000815260200190815260200160002081905550565b6000600360003373ffffffffffffffffffffffffffffffffffffffff1673ffffffffffffffffffffffffffffffffffffffff1681526020019081526020016000206000838152602001908152602001600020549050919050565b60016020528060005260406000206000915090508060000154908060010160009054906101000a900473ffffffffffffffffffffffffffffffffffffffff16905082565b6116528484848461083c565b60046000848152602001908152602001600020600085600181111561167357fe5b815260200190815260200160002060405180606001604052803373ffffffffffffffffffffffffffffffffffffffff16815260200184815260200183815250908060018154018082558091505060019003906000526020600020906003020160009091909190915060008201518160000160006101000a81548173ffffffffffffffffffffffffffffffffffffffff021916908373ffffffffffffffffffffffffffffffffffffffff1602179055506020820151816001015560408201518160020155505050505050565b6117466137af565b73ffffffffffffffffffffffffffffffffffffffff166117646119fe565b73ffffffffffffffffffffffffffffffffffffffff16146117ed576040517f08c379a00000000000000000000000000000000000000000000000000000000081526004018080602001828103825260208152602001807f4f776e61626c653a2063616c6c6572206973206e6f7420746865206f776e657281525060200191505060405180910390fd5b600073ffffffffffffffffffffffffffffffffffffffff1660008054906101000a900473ffffffffffffffffffffffffffffffffffffffff1673ffffffffffffffffffffffffffffffffffffffff167f8be0079c531659141344cd1fd0a4f28419497f9722a3daafe3b4186f6b6457e060405160405180910390a360008060006101000a81548173ffffffffffffffffffffffffffffffffffffffff021916908373ffffffffffffffffffffffffffffffffffffffff160217905550565b6000600360003373ffffffffffffffffffffffffffffffffffffffff1673ffffffffffffffffffffffffffffffffffffffff1681526020019081526020016000206000838152602001908152602001600020549050919050565b606060046000848152602001908152602001600020600083600181111561192857fe5b8152602001908152602001600020805480602002602001604051908101604052809291908181526020016000905b828210156119f257838290600052602060002090600302016040518060600160405290816000820160009054906101000a900473ffffffffffffffffffffffffffffffffffffffff1673ffffffffffffffffffffffffffffffffffffffff1673ffffffffffffffffffffffffffffffffffffffff1681526020016001820154815260200160028201548152505081526020019060010190611956565b50505050905092915050565b60008060009054906101000a900473ffffffffffffffffffffffffffffffffffffffff16905090565b611a2f6137af565b73ffffffffffffffffffffffffffffffffffffffff16611a4d6119fe565b73ffffffffffffffffffffffffffffffffffffffff1614611ad6576040517f08c379a00000000000000000000000000000000000000000000000000000000081526004018080602001828103825260208152602001807f4f776e61626c653a2063616c6c6572206973206e6f7420746865206f776e657281525060200191505060405180910390fd5b60405180604001604052808381526020018273ffffffffffffffffffffffffffffffffffffffff16815250600160008481526020019081526020016000206000820151816000015560208201518160010160006101000a81548173ffffffffffffffffffffffffffffffffffffffff021916908373ffffffffffffffffffffffffffffffffffffffff16021790555090505060028290806001815401808255809150506001900390600052602060002001600090919091909150555050565b611ba08383836127ae565b611bab838383612089565b60006001811115611bb857fe5b836001811115611bc457fe5b1415611be557611be0600180811115611bd957fe5b8383612b2e565b611bfd565b611bfc60006001811115611bf557fe5b83836109bf565b5b505050565b60028181548110611c1257600080fd5b906000526020600020016000915090505481565b80600073ffffffffffffffffffffffffffffffffffffffff166001600083815260200190815260200160002060010160009054906101000a900473ffffffffffffffffffffffffffffffffffffffff1673ffffffffffffffffffffffffffffffffffffffff161415611d00576040517f08c379a00000000000000000000000000000000000000000000000000000000081526004018080602001828103825260148152602001807f746f6b656e20646f6573206e6f7420657869737400000000000000000000000081525060200191505060405180910390fd5b82600360003373ffffffffffffffffffffffffffffffffffffffff1673ffffffffffffffffffffffffffffffffffffffff1681526020019081526020016000206000848152602001908152602001600020541015611dc6576040517f08c379a00000000000000000000000000000000000000000000000000000000081526004018080602001828103825260128152602001807f496e7375666669656e742062616c616e6365000000000000000000000000000081525060200191505060405180910390fd5b611e2983600360003373ffffffffffffffffffffffffffffffffffffffff1673ffffffffffffffffffffffffffffffffffffffff1681526020019081526020016000206000858152602001908152602001600020546136a490919063ffffffff16565b600360003373ffffffffffffffffffffffffffffffffffffffff1673ffffffffffffffffffffffffffffffffffffffff1681526020019081526020016000206000848152602001908152602001600020819055506001600083815260200190815260200160002060010160009054906101000a900473ffffffffffffffffffffffffffffffffffffffff1673ffffffffffffffffffffffffffffffffffffffff1663a9059cbb33856040518363ffffffff1660e01b8152600401808373ffffffffffffffffffffffffffffffffffffffff16815260200182815260200192505050602060405180830381600087803b158015611f2457600080fd5b505af1158015611f38573d6000803e3d6000fd5b505050506040513d6020811015611f4e57600080fd5b810190808051906020019092919050505050505050565b60008260400151846040015110158015611f8757508160400151836040015110155b90509392505050565b6060600460008481526020019081526020016000206000836001811115611fb357fe5b8152602001908152602001600020805480602002602001604051908101604052809291908181526020016000905b8282101561207d57838290600052602060002090600302016040518060600160405290816000820160009054906101000a900473ffffffffffffffffffffffffffffffffffffffff1673ffffffffffffffffffffffffffffffffffffffff1673ffffffffffffffffffffffffffffffffffffffff1681526020016001820154815260200160028201548152505081526020019060010190611fe1565b50505050905092915050565b6000600181111561209657fe5b8360018111156120a257fe5b1415612160576000600360003373ffffffffffffffffffffffffffffffffffffffff1673ffffffffffffffffffffffffffffffffffffffff16815260200190815260200160002060007f45544800000000000000000000000000000000000000000000000000000000008152602001908152602001600020541161215b576040517f08c379a00000000000000000000000000000000000000000000000000000000081526004016121529061429d565b60405180910390fd5b6121f5565b6001600360003373ffffffffffffffffffffffffffffffffffffffff1673ffffffffffffffffffffffffffffffffffffffff16815260200190815260200160002060008481526020019081526020016000205410156121f4576040517f08c379a00000000000000000000000000000000000000000000000000000000081526004016121eb906142dd565b60405180910390fd5b5b505050565b80600360003373ffffffffffffffffffffffffffffffffffffffff1673ffffffffffffffffffffffffffffffffffffffff16815260200190815260200160002060007f455448000000000000000000000000000000000000000000000000000000000081526020019081526020016000205410156122e0576040517f08c379a00000000000000000000000000000000000000000000000000000000081526004018080602001828103825260128152602001807f496e7375666669656e742062616c616e6365000000000000000000000000000081525060200191505060405180910390fd5b61236381600360003373ffffffffffffffffffffffffffffffffffffffff1673ffffffffffffffffffffffffffffffffffffffff16815260200190815260200160002060007f45544800000000000000000000000000000000000000000000000000000000008152602001908152602001600020546136a490919063ffffffff16565b600360003373ffffffffffffffffffffffffffffffffffffffff1673ffffffffffffffffffffffffffffffffffffffff16815260200190815260200160002060007f45544800000000000000000000000000000000000000000000000000000000008152602001908152602001600020819055506000803373ffffffffffffffffffffffffffffffffffffffff168360405180600001905060006040518083038185875af1925050503d8060008114612438576040519150601f19603f3d011682016040523d82523d6000602084013e61243d565b606091505b5091509150505050565b80600073ffffffffffffffffffffffffffffffffffffffff166001600083815260200190815260200160002060010160009054906101000a900473ffffffffffffffffffffffffffffffffffffffff1673ffffffffffffffffffffffffffffffffffffffff161415612521576040517f08c379a00000000000000000000000000000000000000000000000000000000081526004018080602001828103825260148152602001807f746f6b656e20646f6573206e6f7420657869737400000000000000000000000081525060200191505060405180910390fd5b6001600083815260200190815260200160002060010160009054906101000a900473ffffffffffffffffffffffffffffffffffffffff1673ffffffffffffffffffffffffffffffffffffffff166323b872dd3330866040518463ffffffff1660e01b8152600401808473ffffffffffffffffffffffffffffffffffffffff1681526020018373ffffffffffffffffffffffffffffffffffffffff1681526020018281526020019350505050602060405180830381600087803b1580156125e657600080fd5b505af11580156125fa573d6000803e3d6000fd5b505050506040513d602081101561261057600080fd5b81019080805190602001909291905050505061268583600360003373ffffffffffffffffffffffffffffffffffffffff1673ffffffffffffffffffffffffffffffffffffffff16815260200190815260200160002060008581526020019081526020016000205461372790919063ffffffff16565b600360003373ffffffffffffffffffffffffffffffffffffffff1673ffffffffffffffffffffffffffffffffffffffff168152602001908152602001600020600084815260200190815260200160002081905550505050565b600080835114156126f257600090506127a8565b6001835114156127325781604001518360008151811061270e57fe5b602002602001015160400151111561272957600190506127a8565b600090506127a8565b60005b83518110156127a65760018451038114156127545783519150506127a8565b61278884828151811061276357fe5b60200260200101518486600185018151811061277b57fe5b6020026020010151611f65565b1561279957600181019150506127a8565b8080600101915050612735565b505b92915050565b600060018111156127bb57fe5b8360018111156127c757fe5b14156128475760006004600084815260200190815260200160002060006001808111156127f057fe5b81526020019081526020016000208054905011612842576040517f08c379a0000000000000000000000000000000000000000000000000000000008152600401612839906142bd565b60405180910390fd5b6128bd565b600060046000848152602001908152602001600020600080600181111561286a57fe5b815260200190815260200160002080549050116128bc576040517f08c379a00000000000000000000000000000000000000000000000000000000081526004016128b3906142bd565b60405180910390fd5b5b505050565b6128ce8484848461083c565b6129366004600085815260200190815260200160002060008660018111156128f257fe5b815260200190815260200160002060405180606001604052803373ffffffffffffffffffffffffffffffffffffffff168152602001858152602001848152506137b7565b50505050565b6129446137af565b73ffffffffffffffffffffffffffffffffffffffff166129626119fe565b73ffffffffffffffffffffffffffffffffffffffff16146129eb576040517f08c379a00000000000000000000000000000000000000000000000000000000081526004018080602001828103825260208152602001807f4f776e61626c653a2063616c6c6572206973206e6f7420746865206f776e657281525060200191505060405180910390fd5b600073ffffffffffffffffffffffffffffffffffffffff168173ffffffffffffffffffffffffffffffffffffffff161415612a71576040517f08c379a00000000000000000000000000000000000000000000000000000000081526004018080602001828103825260268152602001806144846026913960400191505060405180910390fd5b8073ffffffffffffffffffffffffffffffffffffffff1660008054906101000a900473ffffffffffffffffffffffffffffffffffffffff1673ffffffffffffffffffffffffffffffffffffffff167f8be0079c531659141344cd1fd0a4f28419497f9722a3daafe3b4186f6b6457e060405160405180910390a3806000806101000a81548173ffffffffffffffffffffffffffffffffffffffff021916908373ffffffffffffffffffffffffffffffffffffffff16021790555050565b600081905060005b6004600085815260200190815260200160002060008681526020019081526020016000208054905081108015612b6c5750600082115b156136165760006004600086815260200190815260200160002060008781526020019081526020016000208281548110612ba257fe5b906000526020600020906003020160000160009054906101000a900473ffffffffffffffffffffffffffffffffffffffff1690506004600086815260200190815260200160002060008781526020019081526020016000208281548110612c0557fe5b90600052602060002090600302016001015483116130bc57612c70836004600088815260200190815260200160002060008981526020019081526020016000208481548110612c5057fe5b9060005260206000209060030201600101546136a490919063ffffffff16565b6004600087815260200190815260200160002060008881526020019081526020016000208381548110612c9f57fe5b906000526020600020906003020160010181905550612d1783600360003373ffffffffffffffffffffffffffffffffffffffff1673ffffffffffffffffffffffffffffffffffffffff16815260200190815260200160002060008881526020019081526020016000205461372790919063ffffffff16565b600360003373ffffffffffffffffffffffffffffffffffffffff1673ffffffffffffffffffffffffffffffffffffffff168152602001908152602001600020600087815260200190815260200160002081905550612e40612dc16004600088815260200190815260200160002060008981526020019081526020016000208481548110612da057fe5b9060005260206000209060030201600201548561361e90919063ffffffff16565b600360003373ffffffffffffffffffffffffffffffffffffffff1673ffffffffffffffffffffffffffffffffffffffff16815260200190815260200160002060007f45544800000000000000000000000000000000000000000000000000000000008152602001908152602001600020546136a490919063ffffffff16565b600360003373ffffffffffffffffffffffffffffffffffffffff1673ffffffffffffffffffffffffffffffffffffffff16815260200190815260200160002060007f4554480000000000000000000000000000000000000000000000000000000000815260200190815260200160002081905550612f1784600360008473ffffffffffffffffffffffffffffffffffffffff1673ffffffffffffffffffffffffffffffffffffffff1681526020019081526020016000206000888152602001908152602001600020546136a490919063ffffffff16565b600360008373ffffffffffffffffffffffffffffffffffffffff1673ffffffffffffffffffffffffffffffffffffffff168152602001908152602001600020600087815260200190815260200160002081905550613040612fc16004600088815260200190815260200160002060008981526020019081526020016000208481548110612fa057fe5b9060005260206000209060030201600201548561361e90919063ffffffff16565b600360008473ffffffffffffffffffffffffffffffffffffffff1673ffffffffffffffffffffffffffffffffffffffff16815260200190815260200160002060007f455448000000000000000000000000000000000000000000000000000000000081526020019081526020016000205461372790919063ffffffff16565b600360008373ffffffffffffffffffffffffffffffffffffffff1673ffffffffffffffffffffffffffffffffffffffff16815260200190815260200160002060007f4554480000000000000000000000000000000000000000000000000000000000815260200190815260200160002081905550505050613619565b61310f60046000878152602001908152602001600020600088815260200190815260200160002083815481106130ee57fe5b906000526020600020906003020160010154846136a490919063ffffffff16565b92506131b4600460008781526020019081526020016000206000888152602001908152602001600020838154811061314357fe5b906000526020600020906003020160010154600360003373ffffffffffffffffffffffffffffffffffffffff1673ffffffffffffffffffffffffffffffffffffffff16815260200190815260200160002060008881526020019081526020016000205461372790919063ffffffff16565b600360003373ffffffffffffffffffffffffffffffffffffffff1673ffffffffffffffffffffffffffffffffffffffff1681526020019081526020016000206000878152602001908152602001600020819055506132dd61325e600460008881526020019081526020016000206000898152602001908152602001600020848154811061323d57fe5b9060005260206000209060030201600201548561361e90919063ffffffff16565b600360003373ffffffffffffffffffffffffffffffffffffffff1673ffffffffffffffffffffffffffffffffffffffff16815260200190815260200160002060007f45544800000000000000000000000000000000000000000000000000000000008152602001908152602001600020546136a490919063ffffffff16565b600360003373ffffffffffffffffffffffffffffffffffffffff1673ffffffffffffffffffffffffffffffffffffffff16815260200190815260200160002060007f45544800000000000000000000000000000000000000000000000000000000008152602001908152602001600020819055506133f4600460008781526020019081526020016000206000888152602001908152602001600020838154811061338357fe5b906000526020600020906003020160010154600360008473ffffffffffffffffffffffffffffffffffffffff1673ffffffffffffffffffffffffffffffffffffffff1681526020019081526020016000206000888152602001908152602001600020546136a490919063ffffffff16565b600360008373ffffffffffffffffffffffffffffffffffffffff1673ffffffffffffffffffffffffffffffffffffffff16815260200190815260200160002060008781526020019081526020016000208190555061351d61349e600460008881526020019081526020016000206000898152602001908152602001600020848154811061347d57fe5b9060005260206000209060030201600201548561361e90919063ffffffff16565b600360008473ffffffffffffffffffffffffffffffffffffffff1673ffffffffffffffffffffffffffffffffffffffff16815260200190815260200160002060007f455448000000000000000000000000000000000000000000000000000000000081526020019081526020016000205461372790919063ffffffff16565b600360008373ffffffffffffffffffffffffffffffffffffffff1673ffffffffffffffffffffffffffffffffffffffff16815260200190815260200160002060007f455448000000000000000000000000000000000000000000000000000000000081526020019081526020016000208190555060046000868152602001908152602001600020600087815260200190815260200160002082815481106135c057fe5b9060005260206000209060030201600080820160006101000a81549073ffffffffffffffffffffffffffffffffffffffff0219169055600182016000905560028201600090555050508080600101915050612b36565b50505b505050565b600080831415613631576000905061369e565b600082840290508284828161364257fe5b0414613699576040517f08c379a00000000000000000000000000000000000000000000000000000000081526004018080602001828103825260218152602001806144aa6021913960400191505060405180910390fd5b809150505b92915050565b60008282111561371c576040517f08c379a000000000000000000000000000000000000000000000000000000000815260040180806020018281038252601e8152602001807f536166654d6174683a207375627472616374696f6e206f766572666c6f77000081525060200191505060405180910390fd5b818303905092915050565b6000808284019050838110156137a5576040517f08c379a000000000000000000000000000000000000000000000000000000000815260040180806020018281038252601b8152602001807f536166654d6174683a206164646974696f6e206f766572666c6f77000000000081525060200191505060405180910390fd5b8091505092915050565b600033905090565b600061388383805480602002602001604051908101604052809291908181526020016000905b8282101561387957838290600052602060002090600302016040518060600160405290816000820160009054906101000a900473ffffffffffffffffffffffffffffffffffffffff1673ffffffffffffffffffffffffffffffffffffffff1673ffffffffffffffffffffffffffffffffffffffff16815260200160018201548152602001600282015481525050815260200190600101906137dd565b50505050836126de565b90508280549050811061391d578282908060018154018082558091505060019003906000526020600020906003020160009091909190915060008201518160000160006101000a81548173ffffffffffffffffffffffffffffffffffffffff021916908373ffffffffffffffffffffffffffffffffffffffff16021790555060208201518160010155604082015181600201555050613a6f565b6000600184805490500390505b8181106139f45783818154811061393d57fe5b906000526020600020906003020184600183018154811061395a57fe5b90600052602060002090600302016000820160009054906101000a900473ffffffffffffffffffffffffffffffffffffffff168160000160006101000a81548173ffffffffffffffffffffffffffffffffffffffff021916908373ffffffffffffffffffffffffffffffffffffffff160217905550600182015481600101556002820154816002015590505080806001900391505061392a565b5081838281548110613a0257fe5b906000526020600020906003020160008201518160000160006101000a81548173ffffffffffffffffffffffffffffffffffffffff021916908373ffffffffffffffffffffffffffffffffffffffff16021790555060208201518160010155604082015181600201559050505b505050565b6040518060600160405280600073ffffffffffffffffffffffffffffffffffffffff16815260200160008152602001600081525090565b6000613abe613ab984614364565b614333565b90508083825260208201905082856060860282011115613add57600080fd5b60005b85811015613b0d5781613af38882613b80565b845260208401935060608301925050600181019050613ae0565b5050509392505050565b600081359050613b268161442e565b92915050565b600082601f830112613b3d57600080fd5b8135613b4d848260208601613aab565b91505092915050565b600081359050613b6581614445565b92915050565b600081359050613b7a8161445c565b92915050565b600060608284031215613b9257600080fd5b613b9c6060614333565b90506000613bac84828501613b17565b6000830152506020613bc084828501613be0565b6020830152506040613bd484828501613be0565b60408301525092915050565b600081359050613bef8161446c565b92915050565b600060208284031215613c0757600080fd5b6000613c1584828501613b17565b91505092915050565b60008060408385031215613c3157600080fd5b6000613c3f85828601613b17565b9250506020613c5085828601613b56565b9150509250929050565b60008060808385031215613c6d57600080fd5b600083013567ffffffffffffffff811115613c8757600080fd5b613c9385828601613b2c565b9250506020613ca485828601613b80565b9150509250929050565b600060208284031215613cc057600080fd5b6000613cce84828501613b56565b91505092915050565b60008060408385031215613cea57600080fd5b6000613cf885828601613b56565b9250506020613d0985828601613b17565b9150509250929050565b60008060408385031215613d2657600080fd5b6000613d3485828601613b56565b9250506020613d4585828601613b6b565b9150509250929050565b600080600060608486031215613d6457600080fd5b6000613d7286828701613b56565b9350506020613d8386828701613be0565b9250506040613d9486828701613be0565b9150509250925092565b600080600060608486031215613db357600080fd5b6000613dc186828701613b6b565b9350506020613dd286828701613b56565b9250506040613de386828701613be0565b9150509250925092565b60008060008060808587031215613e0357600080fd5b6000613e1187828801613b6b565b9450506020613e2287828801613b56565b9350506040613e3387828801613be0565b9250506060613e4487828801613be0565b91505092959194509250565b60008060006101208486031215613e6657600080fd5b6000613e7486828701613b80565b9350506060613e8586828701613b80565b92505060c0613e9686828701613b80565b9150509250925092565b600060208284031215613eb257600080fd5b6000613ec084828501613be0565b91505092915050565b60008060408385031215613edc57600080fd5b6000613eea85828601613be0565b9250506020613efb85828601613b56565b9150509250929050565b600080600060608486031215613f1a57600080fd5b6000613f2886828701613be0565b9350506020613f3986828701613b56565b9250506040613f4a86828701613be0565b9150509250925092565b60008060408385031215613f6757600080fd5b6000613f7585828601613be0565b9250506020613f8685828601613be0565b9150509250929050565b6000613f9c8383614128565b60608301905092915050565b613fb1816143da565b82525050565b613fc0816143da565b82525050565b6000613fd1826143a0565b613fdb81856143b8565b9350613fe683614390565b8060005b83811015614017578151613ffe8882613f90565b9750614009836143ab565b925050600181019050613fea565b5085935050505092915050565b61402d816143ec565b82525050565b61403c816143f8565b82525050565b600061404f6016836143c9565b91507f496e7375666669656e74206574682062616c616e6365000000000000000000006000830152602082019050919050565b600061408f602a836143c9565b91507f546865206f7264657220626f6f6b20697320656d70747920666f72207468697360008301527f206f7065726174696f6e000000000000000000000000000000000000000000006020830152604082019050919050565b60006140f56018836143c9565b91507f496e7375666669656e7420746f6b656e2062616c616e636500000000000000006000830152602082019050919050565b60608201600082015161413e6000850182613fa8565b50602082015161415160208501826141ac565b50604082015161416460408501826141ac565b50505050565b6060820160008201516141806000850182613fa8565b50602082015161419360208501826141ac565b5060408201516141a660408501826141ac565b50505050565b6141b581614422565b82525050565b6141c481614422565b82525050565b60006020820190506141df6000830184613fb7565b92915050565b60006060820190506141fa6000830186613fb7565b61420760208301856141bb565b61421460408301846141bb565b949350505050565b600060208201905081810360008301526142368184613fc6565b905092915050565b60006020820190506142536000830184614024565b92915050565b600060208201905061426e6000830184614033565b92915050565b60006040820190506142896000830185614033565b6142966020830184613fb7565b9392505050565b600060208201905081810360008301526142b681614042565b9050919050565b600060208201905081810360008301526142d681614082565b9050919050565b600060208201905081810360008301526142f6816140e8565b9050919050565b6000606082019050614312600083018461416a565b92915050565b600060208201905061432d60008301846141bb565b92915050565b6000604051905081810181811067ffffffffffffffff8211171561435a5761435961442c565b5b8060405250919050565b600067ffffffffffffffff82111561437f5761437e61442c565b5b602082029050602081019050919050565b6000819050602082019050919050565b600081519050919050565b6000602082019050919050565b600082825260208201905092915050565b600082825260208201905092915050565b60006143e582614402565b9050919050565b60008115159050919050565b6000819050919050565b600073ffffffffffffffffffffffffffffffffffffffff82169050919050565b6000819050919050565bfe5b614437816143da565b811461444257600080fd5b50565b61444e816143f8565b811461445957600080fd5b50565b6002811061446957600080fd5b50565b61447581614422565b811461448057600080fd5b5056fe4f776e61626c653a206e6577206f776e657220697320746865207a65726f2061646472657373536166654d6174683a206d756c7469706c69636174696f6e206f766572666c6f77a2646970667358221220a621b62d1de63bc30e41f7a5e28a11a7b00821515074f32fa0b6f9991d62472b64736f6c63430007060033",
  "linkReferences": {},
  "deployedLinkReferences": {}
}