{
  "_format": "hh-sol-artifact-1",
  "contractName": "Dex",
  "sourceName": "contracts/Dex.sol",
  "abi": [
    {
      "anonymous": false,
      "inputs": [
        {
          "indexed": true,
          "internalType": "address",
          "name": "previousOwner",
          "type": "address"
        },
        {
          "indexed": true,
          "internalType": "address",
          "name": "newOwner",
          "type": "address"
        }
      ],
      "name": "OwnershipTransferred",
      "type": "event"
    },
    {
      "inputs": [
        {
          "internalType": "bytes32",
          "name": "ticker",
          "type": "bytes32"
        },
        {
          "internalType": "address",
          "name": "tokenAddress",
          "type": "address"
        }
      ],
      "name": "addToken",
      "outputs": [],
      "stateMutability": "nonpayable",
      "type": "function"
    },
    {
      "inputs": [
        {
          "internalType": "address",
          "name": "",
          "type": "address"
        },
        {
          "internalType": "bytes32",
          "name": "",
          "type": "bytes32"
        }
      ],
      "name": "balances",
      "outputs": [
        {
          "internalType": "uint256",
          "name": "",
          "type": "uint256"
        }
      ],
      "stateMutability": "view",
      "type": "function"
    },
    {
      "inputs": [
        {
          "internalType": "uint256",
          "name": "side",
          "type": "uint256"
        },
        {
          "internalType": "bytes32",
          "name": "ticker",
          "type": "bytes32"
        },
        {
          "internalType": "uint256",
          "name": "amount",
          "type": "uint256"
        }
      ],
      "name": "createBuyMarketOrder",
      "outputs": [],
      "stateMutability": "nonpayable",
      "type": "function"
    },
    {
      "inputs": [
        {
          "internalType": "enum Dex.Side",
          "name": "side",
          "type": "uint8"
        },
        {
          "internalType": "bytes32",
          "name": "ticker",
          "type": "bytes32"
        },
        {
          "internalType": "uint256",
          "name": "amount",
          "type": "uint256"
        },
        {
          "internalType": "uint256",
          "name": "price",
          "type": "uint256"
        }
      ],
      "name": "createLimitOrder",
      "outputs": [],
      "stateMutability": "nonpayable",
      "type": "function"
    },
    {
      "inputs": [
        {
          "internalType": "enum Dex.Side",
          "name": "side",
          "type": "uint8"
        },
        {
          "internalType": "bytes32",
          "name": "ticker",
          "type": "bytes32"
        },
        {
          "internalType": "uint256",
          "name": "amount",
          "type": "uint256"
        }
      ],
      "name": "createMarketOrder",
      "outputs": [],
      "stateMutability": "nonpayable",
      "type": "function"
    },
    {
      "inputs": [
        {
          "internalType": "uint256",
          "name": "side",
          "type": "uint256"
        },
        {
          "internalType": "bytes32",
          "name": "ticker",
          "type": "bytes32"
        },
        {
          "internalType": "uint256",
          "name": "amount",
          "type": "uint256"
        }
      ],
      "name": "createSellMarketOrder",
      "outputs": [],
      "stateMutability": "nonpayable",
      "type": "function"
    },
    {
      "inputs": [
        {
          "internalType": "enum Dex.Side",
          "name": "side",
          "type": "uint8"
        },
        {
          "internalType": "bytes32",
          "name": "ticker",
          "type": "bytes32"
        },
        {
          "internalType": "uint256",
          "name": "amount",
          "type": "uint256"
        },
        {
          "internalType": "uint256",
          "name": "price",
          "type": "uint256"
        }
      ],
      "name": "createSortedLimitOrder",
      "outputs": [],
      "stateMutability": "nonpayable",
      "type": "function"
    },
    {
      "inputs": [
        {
          "internalType": "uint256",
          "name": "amount",
          "type": "uint256"
        },
        {
          "internalType": "bytes32",
          "name": "ticker",
          "type": "bytes32"
        }
      ],
      "name": "deposit",
      "outputs": [],
      "stateMutability": "nonpayable",
      "type": "function"
    },
    {
      "inputs": [],
      "name": "depositEth",
      "outputs": [],
      "stateMutability": "payable",
      "type": "function"
    },
    {
      "inputs": [
        {
          "internalType": "uint256",
          "name": "amount",
          "type": "uint256"
        },
        {
          "internalType": "uint256",
          "name": "price",
          "type": "uint256"
        }
      ],
      "name": "generateNewOrder",
      "outputs": [
        {
          "components": [
            {
              "internalType": "address",
              "name": "trader",
              "type": "address"
            },
            {
              "internalType": "uint256",
              "name": "amount",
              "type": "uint256"
            },
            {
              "internalType": "uint256",
              "name": "price",
              "type": "uint256"
            }
          ],
          "internalType": "struct Dex.Order",
          "name": "",
          "type": "tuple"
        }
      ],
      "stateMutability": "view",
      "type": "function"
    },
    {
      "inputs": [],
      "name": "getMyEthBalance",
      "outputs": [
        {
          "internalType": "uint256",
          "name": "",
          "type": "uint256"
        }
      ],
      "stateMutability": "view",
      "type": "function"
    },
    {
      "inputs": [
        {
          "internalType": "bytes32",
          "name": "ticker",
          "type": "bytes32"
        }
      ],
      "name": "getMyTokenBalance",
      "outputs": [
        {
          "internalType": "uint256",
          "name": "",
          "type": "uint256"
        }
      ],
      "stateMutability": "view",
      "type": "function"
    },
    {
      "inputs": [
        {
          "internalType": "bytes32",
          "name": "ticker",
          "type": "bytes32"
        },
        {
          "internalType": "enum Dex.Side",
          "name": "side",
          "type": "uint8"
        }
      ],
      "name": "getOrderBook",
      "outputs": [
        {
          "components": [
            {
              "internalType": "address",
              "name": "trader",
              "type": "address"
            },
            {
              "internalType": "uint256",
              "name": "amount",
              "type": "uint256"
            },
            {
              "internalType": "uint256",
              "name": "price",
              "type": "uint256"
            }
          ],
          "internalType": "struct Dex.Order[]",
          "name": "",
          "type": "tuple[]"
        }
      ],
      "stateMutability": "view",
      "type": "function"
    },
    {
      "inputs": [
        {
          "components": [
            {
              "internalType": "address",
              "name": "trader",
              "type": "address"
            },
            {
              "internalType": "uint256",
              "name": "amount",
              "type": "uint256"
            },
            {
              "internalType": "uint256",
              "name": "price",
              "type": "uint256"
            }
          ],
          "internalType": "struct Dex.Order[]",
          "name": "orders",
          "type": "tuple[]"
        },
        {
          "components": [
            {
              "internalType": "address",
              "name": "trader",
              "type": "address"
            },
            {
              "internalType": "uint256",
              "name": "amount",
              "type": "uint256"
            },
            {
              "internalType": "uint256",
              "name": "price",
              "type": "uint256"
            }
          ],
          "internalType": "struct Dex.Order",
          "name": "newOrder",
          "type": "tuple"
        }
      ],
      "name": "getPositionToPlace",
      "outputs": [
        {
          "internalType": "uint256",
          "name": "",
          "type": "uint256"
        }
      ],
      "stateMutability": "pure",
      "type": "function"
    },
    {
      "inputs": [
        {
          "internalType": "bytes32",
          "name": "token",
          "type": "bytes32"
        }
      ],
      "name": "getTokenBalance",
      "outputs": [
        {
          "internalType": "uint256",
          "name": "",
          "type": "uint256"
        }
      ],
      "stateMutability": "nonpayable",
      "type": "function"
    },
    {
      "inputs": [
        {
          "internalType": "enum Dex.Side",
          "name": "side",
          "type": "uint8"
        },
        {
          "internalType": "bytes32",
          "name": "ticker",
          "type": "bytes32"
        },
        {
          "internalType": "uint256",
          "name": "amount",
          "type": "uint256"
        },
        {
          "internalType": "uint256",
          "name": "price",
          "type": "uint256"
        }
      ],
      "name": "hasSufficientBalanceForLimit",
      "outputs": [],
      "stateMutability": "view",
      "type": "function"
    },
    {
      "inputs": [
        {
          "internalType": "enum Dex.Side",
          "name": "side",
          "type": "uint8"
        },
        {
          "internalType": "bytes32",
          "name": "ticker",
          "type": "bytes32"
        },
        {
          "internalType": "uint256",
          "name": "amount",
          "type": "uint256"
        }
      ],
      "name": "hasSufficientBalanceForMarket",
      "outputs": [],
      "stateMutability": "view",
      "type": "function"
    },
    {
      "inputs": [
        {
          "components": [
            {
              "internalType": "address",
              "name": "trader",
              "type": "address"
            },
            {
              "internalType": "uint256",
              "name": "amount",
              "type": "uint256"
            },
            {
              "internalType": "uint256",
              "name": "price",
              "type": "uint256"
            }
          ],
          "internalType": "struct Dex.Order",
          "name": "prevOrder",
          "type": "tuple"
        },
        {
          "components": [
            {
              "internalType": "address",
              "name": "trader",
              "type": "address"
            },
            {
              "internalType": "uint256",
              "name": "amount",
              "type": "uint256"
            },
            {
              "internalType": "uint256",
              "name": "price",
              "type": "uint256"
            }
          ],
          "internalType": "struct Dex.Order",
          "name": "newOrder",
          "type": "tuple"
        },
        {
          "components": [
            {
              "internalType": "address",
              "name": "trader",
              "type": "address"
            },
            {
              "internalType": "uint256",
              "name": "amount",
              "type": "uint256"
            },
            {
              "internalType": "uint256",
              "name": "price",
              "type": "uint256"
            }
          ],
          "internalType": "struct Dex.Order",
          "name": "nextOrder",
          "type": "tuple"
        }
      ],
      "name": "isMiddlePosition",
      "outputs": [
        {
          "internalType": "bool",
          "name": "",
          "type": "bool"
        }
      ],
      "stateMutability": "pure",
      "type": "function"
    },
    {
      "inputs": [
        {
          "internalType": "enum Dex.Side",
          "name": "side",
          "type": "uint8"
        },
        {
          "internalType": "bytes32",
          "name": "ticker",
          "type": "bytes32"
        },
        {
          "internalType": "uint256",
          "name": "amount",
          "type": "uint256"
        }
      ],
      "name": "isOrderBookEmpty",
      "outputs": [],
      "stateMutability": "view",
      "type": "function"
    },
    {
      "inputs": [
        {
          "internalType": "bytes32",
          "name": "",
          "type": "bytes32"
        },
        {
          "internalType": "uint256",
          "name": "",
          "type": "uint256"
        },
        {
          "internalType": "uint256",
          "name": "",
          "type": "uint256"
        }
      ],
      "name": "orderBook",
      "outputs": [
        {
          "internalType": "address",
          "name": "trader",
          "type": "address"
        },
        {
          "internalType": "uint256",
          "name": "amount",
          "type": "uint256"
        },
        {
          "internalType": "uint256",
          "name": "price",
          "type": "uint256"
        }
      ],
      "stateMutability": "view",
      "type": "function"
    },
    {
      "inputs": [],
      "name": "owner",
      "outputs": [
        {
          "internalType": "address",
          "name": "",
          "type": "address"
        }
      ],
      "stateMutability": "view",
      "type": "function"
    },
    {
      "inputs": [],
      "name": "renounceOwnership",
      "outputs": [],
      "stateMutability": "nonpayable",
      "type": "function"
    },
    {
      "inputs": [
        {
          "internalType": "bytes32",
          "name": "ticker",
          "type": "bytes32"
        },
        {
          "internalType": "enum Dex.Side",
          "name": "side",
          "type": "uint8"
        }
      ],
      "name": "resetOrderBook",
      "outputs": [
        {
          "components": [
            {
              "internalType": "address",
              "name": "trader",
              "type": "address"
            },
            {
              "internalType": "uint256",
              "name": "amount",
              "type": "uint256"
            },
            {
              "internalType": "uint256",
              "name": "price",
              "type": "uint256"
            }
          ],
          "internalType": "struct Dex.Order[]",
          "name": "",
          "type": "tuple[]"
        }
      ],
      "stateMutability": "view",
      "type": "function"
    },
    {
      "inputs": [
        {
          "internalType": "uint256",
          "name": "",
          "type": "uint256"
        }
      ],
      "name": "tokenList",
      "outputs": [
        {
          "internalType": "bytes32",
          "name": "",
          "type": "bytes32"
        }
      ],
      "stateMutability": "view",
      "type": "function"
    },
    {
      "inputs": [
        {
          "internalType": "bytes32",
          "name": "",
          "type": "bytes32"
        }
      ],
      "name": "tokenMapping",
      "outputs": [
        {
          "internalType": "bytes32",
          "name": "ticker",
          "type": "bytes32"
        },
        {
          "internalType": "address",
          "name": "tokenAddress",
          "type": "address"
        }
      ],
      "stateMutability": "view",
      "type": "function"
    },
    {
      "inputs": [
        {
          "internalType": "address",
          "name": "newOwner",
          "type": "address"
        }
      ],
      "name": "transferOwnership",
      "outputs": [],
      "stateMutability": "nonpayable",
      "type": "function"
    },
    {
      "inputs": [
        {
          "internalType": "uint256",
          "name": "amount",
          "type": "uint256"
        },
        {
          "internalType": "bytes32",
          "name": "ticker",
          "type": "bytes32"
        }
      ],
      "name": "withdraw",
      "outputs": [],
      "stateMutability": "nonpayable",
      "type": "function"
    },
    {
      "inputs": [
        {
          "internalType": "uint256",
          "name": "amount",
          "type": "uint256"
        }
      ],
      "name": "withdrawEth",
      "outputs": [],
      "stateMutability": "nonpayable",
      "type": "function"
    }
  ],
  "bytecode": "0x60806040523480156200001157600080fd5b50600062000024620000c860201b60201c565b9050806000806101000a81548173ffffffffffffffffffffffffffffffffffffffff021916908373ffffffffffffffffffffffffffffffffffffffff1602179055508073ffffffffffffffffffffffffffffffffffffffff16600073ffffffffffffffffffffffffffffffffffffffff167f8be0079c531659141344cd1fd0a4f28419497f9722a3daafe3b4186f6b6457e060405160405180910390a350620000d0565b600033905090565b613ab880620000e06000396000f3fe6080604052600436106101b75760003560e01c80639776aacf116100ec578063c311d0491161008a578063e58c1a8b11610064578063e58c1a8b14610646578063f1b928f31461066f578063f2fde38b14610698578063f7010282146106c1576101b7565b8063c311d049146105b7578063c9630cb0146105e0578063d752491a14610609576101b7565b8063a8d2021a116100c6578063a8d2021a146104eb578063b23712d914610514578063ba58ea6814610551578063bae450f91461058e576101b7565b80639776aacf1461045c57806399ec2f1c146104855780639ead7222146104ae576101b7565b80636147cd0b11610159578063715018a611610133578063715018a6146103a057806388db6ac6146103b75780638c9f9196146103f45780638da5cb5b14610431576101b7565b80636147cd0b146102fc578063667cb4ba146103395780636f3b62f914610377576101b7565b80631f14df69116101955780631f14df6914610263578063296bd3a1146102a05780633b9a805d146102c9578063439370b1146102f2576101b7565b80630709dec8146101bc5780630bb431b6146101e75780631ea6042714610226575b600080fd5b3480156101c857600080fd5b506101d16106ea565b6040516101de91906138d0565b60405180910390f35b3480156101f357600080fd5b5061020e60048036038101906102099190613307565b610762565b60405161021d9392919061379d565b60405180910390f35b34801561023257600080fd5b5061024d6004803603810190610248919061350c565b6107d6565b60405161025a91906138b5565b60405180910390f35b34801561026f57600080fd5b5061028a600480360381019061028591906131d6565b610817565b60405161029791906138d0565b60405180910390f35b3480156102ac57600080fd5b506102c760048036038101906102c291906133a5565b61083c565b005b3480156102d557600080fd5b506102f060048036038101906102eb91906134bd565b6109bf565b005b6102fa610f8b565b005b34801561030857600080fd5b50610323600480360381019061031e9190613266565b611084565b60405161033091906138d0565b60405180910390f35b34801561034557600080fd5b50610360600480360381019061035b9190613266565b6110de565b60405161036e92919061382c565b60405180910390f35b34801561038357600080fd5b5061039e600480360381019061039991906133a5565b611122565b005b3480156103ac57600080fd5b506103b561121a565b005b3480156103c357600080fd5b506103de60048036038101906103d99190613266565b611387565b6040516103eb91906138d0565b60405180910390f35b34801561040057600080fd5b5061041b600480360381019061041691906132cb565b6113e1565b60405161042891906137d4565b60405180910390f35b34801561043d57600080fd5b506104466114da565b6040516104539190613782565b60405180910390f35b34801561046857600080fd5b50610483600480360381019061047e919061328f565b611503565b005b34801561049157600080fd5b506104ac60048036038101906104a79190613356565b611671565b005b3480156104ba57600080fd5b506104d560048036038101906104d09190613458565b6116de565b6040516104e29190613811565b60405180910390f35b3480156104f757600080fd5b50610512600480360381019061050d9190613481565b611702565b005b34801561052057600080fd5b5061053b60048036038101906105369190613408565b611a41565b60405161054891906137f6565b60405180910390f35b34801561055d57600080fd5b50610578600480360381019061057391906132cb565b611a6c565b60405161058591906137d4565b60405180910390f35b34801561059a57600080fd5b506105b560048036038101906105b09190613356565b611b65565b005b3480156105c357600080fd5b506105de60048036038101906105d99190613458565b611cd6565b005b3480156105ec57600080fd5b5061060760048036038101906106029190613481565b611f23565b005b34801561061557600080fd5b50610630600480360381019061062b9190613212565b6121ba565b60405161063d91906138d0565b60405180910390f35b34801561065257600080fd5b5061066d60048036038101906106689190613356565b61228a565b005b34801561067b57600080fd5b50610696600480360381019061069191906133a5565b61239e565b005b3480156106a457600080fd5b506106bf60048036038101906106ba91906131ad565b612418565b005b3480156106cd57600080fd5b506106e860048036038101906106e391906134bd565b61260a565b005b6000600360003373ffffffffffffffffffffffffffffffffffffffff1673ffffffffffffffffffffffffffffffffffffffff16815260200190815260200160002060007f4554480000000000000000000000000000000000000000000000000000000000815260200190815260200160002054905090565b6004602052826000526040600020602052816000526040600020818154811061078a57600080fd5b906000526020600020906003020160009250925050508060000160009054906101000a900473ffffffffffffffffffffffffffffffffffffffff16908060010154908060020154905083565b6107de61302c565b60405180606001604052803373ffffffffffffffffffffffffffffffffffffffff16815260200184815260200183815250905092915050565b6003602052816000526040600020602052806000526040600020600091509150505481565b6000600181111561084957fe5b84600181111561085557fe5b14156109255761086e8183612bd690919063ffffffff16565b600360003373ffffffffffffffffffffffffffffffffffffffff1673ffffffffffffffffffffffffffffffffffffffff16815260200190815260200160002060007f45544800000000000000000000000000000000000000000000000000000000008152602001908152602001600020541015610920576040517f08c379a000000000000000000000000000000000000000000000000000000000815260040161091790613855565b60405180910390fd5b6109b9565b81600360003373ffffffffffffffffffffffffffffffffffffffff1673ffffffffffffffffffffffffffffffffffffffff16815260200190815260200160002060008581526020019081526020016000205410156109b8576040517f08c379a00000000000000000000000000000000000000000000000000000000081526004016109af90613895565b60405180910390fd5b5b50505050565b600081905060005b60046000858152602001908152602001600020600086815260200190815260200160002080549050811080156109fd5750600082115b15610f835760006004600086815260200190815260200160002060008781526020019081526020016000208281548110610a3357fe5b906000526020600020906003020160000160009054906101000a900473ffffffffffffffffffffffffffffffffffffffff1690506004600086815260200190815260200160002060008781526020019081526020016000208281548110610a9657fe5b9060005260206000209060030201600101548311610cbb57610b01836004600088815260200190815260200160002060008981526020019081526020016000208481548110610ae157fe5b906000526020600020906003020160010154612c5c90919063ffffffff16565b6004600087815260200190815260200160002060008881526020019081526020016000208381548110610b3057fe5b906000526020600020906003020160010181905550610ba883600360003373ffffffffffffffffffffffffffffffffffffffff1673ffffffffffffffffffffffffffffffffffffffff168152602001908152602001600020600088815260200190815260200160002054612c5c90919063ffffffff16565b600360003373ffffffffffffffffffffffffffffffffffffffff1673ffffffffffffffffffffffffffffffffffffffff168152602001908152602001600020600087815260200190815260200160002081905550610c5f84600360008473ffffffffffffffffffffffffffffffffffffffff1673ffffffffffffffffffffffffffffffffffffffff168152602001908152602001600020600088815260200190815260200160002054612cdf90919063ffffffff16565b600360008373ffffffffffffffffffffffffffffffffffffffff1673ffffffffffffffffffffffffffffffffffffffff168152602001908152602001600020600087815260200190815260200160002081905550505050610f86565b610d0e6004600087815260200190815260200160002060008881526020019081526020016000208381548110610ced57fe5b90600052602060002090600302016001015484612c5c90919063ffffffff16565b9250610db36004600087815260200190815260200160002060008881526020019081526020016000208381548110610d4257fe5b906000526020600020906003020160010154600360003373ffffffffffffffffffffffffffffffffffffffff1673ffffffffffffffffffffffffffffffffffffffff168152602001908152602001600020600088815260200190815260200160002054612c5c90919063ffffffff16565b600360003373ffffffffffffffffffffffffffffffffffffffff1673ffffffffffffffffffffffffffffffffffffffff168152602001908152602001600020600087815260200190815260200160002081905550610eaa6004600087815260200190815260200160002060008881526020019081526020016000208381548110610e3957fe5b906000526020600020906003020160010154600360008473ffffffffffffffffffffffffffffffffffffffff1673ffffffffffffffffffffffffffffffffffffffff168152602001908152602001600020600088815260200190815260200160002054612cdf90919063ffffffff16565b600360008373ffffffffffffffffffffffffffffffffffffffff1673ffffffffffffffffffffffffffffffffffffffff1681526020019081526020016000206000878152602001908152602001600020819055506004600086815260200190815260200160002060008781526020019081526020016000208281548110610f2d57fe5b9060005260206000209060030201600080820160006101000a81549073ffffffffffffffffffffffffffffffffffffffff02191690556001820160009055600282016000905550505080806001019150506109c7565b50505b505050565b61100e34600360003373ffffffffffffffffffffffffffffffffffffffff1673ffffffffffffffffffffffffffffffffffffffff16815260200190815260200160002060007f4554480000000000000000000000000000000000000000000000000000000000815260200190815260200160002054612cdf90919063ffffffff16565b600360003373ffffffffffffffffffffffffffffffffffffffff1673ffffffffffffffffffffffffffffffffffffffff16815260200190815260200160002060007f4554480000000000000000000000000000000000000000000000000000000000815260200190815260200160002081905550565b6000600360003373ffffffffffffffffffffffffffffffffffffffff1673ffffffffffffffffffffffffffffffffffffffff1681526020019081526020016000206000838152602001908152602001600020549050919050565b60016020528060005260406000206000915090508060000154908060010160009054906101000a900473ffffffffffffffffffffffffffffffffffffffff16905082565b61112e8484848461083c565b60046000848152602001908152602001600020600085600181111561114f57fe5b815260200190815260200160002060405180606001604052803373ffffffffffffffffffffffffffffffffffffffff16815260200184815260200183815250908060018154018082558091505060019003906000526020600020906003020160009091909190915060008201518160000160006101000a81548173ffffffffffffffffffffffffffffffffffffffff021916908373ffffffffffffffffffffffffffffffffffffffff1602179055506020820151816001015560408201518160020155505050505050565b611222612d67565b73ffffffffffffffffffffffffffffffffffffffff166112406114da565b73ffffffffffffffffffffffffffffffffffffffff16146112c9576040517f08c379a00000000000000000000000000000000000000000000000000000000081526004018080602001828103825260208152602001807f4f776e61626c653a2063616c6c6572206973206e6f7420746865206f776e657281525060200191505060405180910390fd5b600073ffffffffffffffffffffffffffffffffffffffff1660008054906101000a900473ffffffffffffffffffffffffffffffffffffffff1673ffffffffffffffffffffffffffffffffffffffff167f8be0079c531659141344cd1fd0a4f28419497f9722a3daafe3b4186f6b6457e060405160405180910390a360008060006101000a81548173ffffffffffffffffffffffffffffffffffffffff021916908373ffffffffffffffffffffffffffffffffffffffff160217905550565b6000600360003373ffffffffffffffffffffffffffffffffffffffff1673ffffffffffffffffffffffffffffffffffffffff1681526020019081526020016000206000838152602001908152602001600020549050919050565b606060046000848152602001908152602001600020600083600181111561140457fe5b8152602001908152602001600020805480602002602001604051908101604052809291908181526020016000905b828210156114ce57838290600052602060002090600302016040518060600160405290816000820160009054906101000a900473ffffffffffffffffffffffffffffffffffffffff1673ffffffffffffffffffffffffffffffffffffffff1673ffffffffffffffffffffffffffffffffffffffff1681526020016001820154815260200160028201548152505081526020019060010190611432565b50505050905092915050565b60008060009054906101000a900473ffffffffffffffffffffffffffffffffffffffff16905090565b61150b612d67565b73ffffffffffffffffffffffffffffffffffffffff166115296114da565b73ffffffffffffffffffffffffffffffffffffffff16146115b2576040517f08c379a00000000000000000000000000000000000000000000000000000000081526004018080602001828103825260208152602001807f4f776e61626c653a2063616c6c6572206973206e6f7420746865206f776e657281525060200191505060405180910390fd5b60405180604001604052808381526020018273ffffffffffffffffffffffffffffffffffffffff16815250600160008481526020019081526020016000206000820151816000015560208201518160010160006101000a81548173ffffffffffffffffffffffffffffffffffffffff021916908373ffffffffffffffffffffffffffffffffffffffff16021790555090505060028290806001815401808255809150506001900390600052602060002001600090919091909150555050565b61167c83838361228a565b611687838383611b65565b6000600181111561169457fe5b8360018111156116a057fe5b14156116c1576116bc6001808111156116b557fe5b838361260a565b6116d9565b6116d8600060018111156116d157fe5b83836109bf565b5b505050565b600281815481106116ee57600080fd5b906000526020600020016000915090505481565b80600073ffffffffffffffffffffffffffffffffffffffff166001600083815260200190815260200160002060010160009054906101000a900473ffffffffffffffffffffffffffffffffffffffff1673ffffffffffffffffffffffffffffffffffffffff1614156117dc576040517f08c379a00000000000000000000000000000000000000000000000000000000081526004018080602001828103825260148152602001807f746f6b656e20646f6573206e6f7420657869737400000000000000000000000081525060200191505060405180910390fd5b82600360003373ffffffffffffffffffffffffffffffffffffffff1673ffffffffffffffffffffffffffffffffffffffff16815260200190815260200160002060008481526020019081526020016000205410156118a2576040517f08c379a00000000000000000000000000000000000000000000000000000000081526004018080602001828103825260128152602001807f496e7375666669656e742062616c616e6365000000000000000000000000000081525060200191505060405180910390fd5b61190583600360003373ffffffffffffffffffffffffffffffffffffffff1673ffffffffffffffffffffffffffffffffffffffff168152602001908152602001600020600085815260200190815260200160002054612c5c90919063ffffffff16565b600360003373ffffffffffffffffffffffffffffffffffffffff1673ffffffffffffffffffffffffffffffffffffffff1681526020019081526020016000206000848152602001908152602001600020819055506001600083815260200190815260200160002060010160009054906101000a900473ffffffffffffffffffffffffffffffffffffffff1673ffffffffffffffffffffffffffffffffffffffff1663a9059cbb33856040518363ffffffff1660e01b8152600401808373ffffffffffffffffffffffffffffffffffffffff16815260200182815260200192505050602060405180830381600087803b158015611a0057600080fd5b505af1158015611a14573d6000803e3d6000fd5b505050506040513d6020811015611a2a57600080fd5b810190808051906020019092919050505050505050565b60008260400151846040015110158015611a6357508160400151836040015110155b90509392505050565b6060600460008481526020019081526020016000206000836001811115611a8f57fe5b8152602001908152602001600020805480602002602001604051908101604052809291908181526020016000905b82821015611b5957838290600052602060002090600302016040518060600160405290816000820160009054906101000a900473ffffffffffffffffffffffffffffffffffffffff1673ffffffffffffffffffffffffffffffffffffffff1673ffffffffffffffffffffffffffffffffffffffff1681526020016001820154815260200160028201548152505081526020019060010190611abd565b50505050905092915050565b60006001811115611b7257fe5b836001811115611b7e57fe5b1415611c3c576000600360003373ffffffffffffffffffffffffffffffffffffffff1673ffffffffffffffffffffffffffffffffffffffff16815260200190815260200160002060007f455448000000000000000000000000000000000000000000000000000000000081526020019081526020016000205411611c37576040517f08c379a0000000000000000000000000000000000000000000000000000000008152600401611c2e90613855565b60405180910390fd5b611cd1565b6001600360003373ffffffffffffffffffffffffffffffffffffffff1673ffffffffffffffffffffffffffffffffffffffff1681526020019081526020016000206000848152602001908152602001600020541015611cd0576040517f08c379a0000000000000000000000000000000000000000000000000000000008152600401611cc790613895565b60405180910390fd5b5b505050565b80600360003373ffffffffffffffffffffffffffffffffffffffff1673ffffffffffffffffffffffffffffffffffffffff16815260200190815260200160002060007f45544800000000000000000000000000000000000000000000000000000000008152602001908152602001600020541015611dbc576040517f08c379a00000000000000000000000000000000000000000000000000000000081526004018080602001828103825260128152602001807f496e7375666669656e742062616c616e6365000000000000000000000000000081525060200191505060405180910390fd5b611e3f81600360003373ffffffffffffffffffffffffffffffffffffffff1673ffffffffffffffffffffffffffffffffffffffff16815260200190815260200160002060007f4554480000000000000000000000000000000000000000000000000000000000815260200190815260200160002054612c5c90919063ffffffff16565b600360003373ffffffffffffffffffffffffffffffffffffffff1673ffffffffffffffffffffffffffffffffffffffff16815260200190815260200160002060007f45544800000000000000000000000000000000000000000000000000000000008152602001908152602001600020819055506000803373ffffffffffffffffffffffffffffffffffffffff168360405180600001905060006040518083038185875af1925050503d8060008114611f14576040519150601f19603f3d011682016040523d82523d6000602084013e611f19565b606091505b5091509150505050565b80600073ffffffffffffffffffffffffffffffffffffffff166001600083815260200190815260200160002060010160009054906101000a900473ffffffffffffffffffffffffffffffffffffffff1673ffffffffffffffffffffffffffffffffffffffff161415611ffd576040517f08c379a00000000000000000000000000000000000000000000000000000000081526004018080602001828103825260148152602001807f746f6b656e20646f6573206e6f7420657869737400000000000000000000000081525060200191505060405180910390fd5b6001600083815260200190815260200160002060010160009054906101000a900473ffffffffffffffffffffffffffffffffffffffff1673ffffffffffffffffffffffffffffffffffffffff166323b872dd3330866040518463ffffffff1660e01b8152600401808473ffffffffffffffffffffffffffffffffffffffff1681526020018373ffffffffffffffffffffffffffffffffffffffff1681526020018281526020019350505050602060405180830381600087803b1580156120c257600080fd5b505af11580156120d6573d6000803e3d6000fd5b505050506040513d60208110156120ec57600080fd5b81019080805190602001909291905050505061216183600360003373ffffffffffffffffffffffffffffffffffffffff1673ffffffffffffffffffffffffffffffffffffffff168152602001908152602001600020600085815260200190815260200160002054612cdf90919063ffffffff16565b600360003373ffffffffffffffffffffffffffffffffffffffff1673ffffffffffffffffffffffffffffffffffffffff168152602001908152602001600020600084815260200190815260200160002081905550505050565b600080835114156121ce5760009050612284565b60018351141561220e578160400151836000815181106121ea57fe5b60200260200101516040015111156122055760019050612284565b60009050612284565b60005b8351811015612282576001845103811415612230578351915050612284565b61226484828151811061223f57fe5b60200260200101518486600185018151811061225757fe5b6020026020010151611a41565b156122755760018101915050612284565b8080600101915050612211565b505b92915050565b6000600181111561229757fe5b8360018111156122a357fe5b14156123235760006004600084815260200190815260200160002060006001808111156122cc57fe5b8152602001908152602001600020805490501161231e576040517f08c379a000000000000000000000000000000000000000000000000000000000815260040161231590613875565b60405180910390fd5b612399565b600060046000848152602001908152602001600020600080600181111561234657fe5b81526020019081526020016000208054905011612398576040517f08c379a000000000000000000000000000000000000000000000000000000000815260040161238f90613875565b60405180910390fd5b5b505050565b6123aa8484848461083c565b6124126004600085815260200190815260200160002060008660018111156123ce57fe5b815260200190815260200160002060405180606001604052803373ffffffffffffffffffffffffffffffffffffffff16815260200185815260200184815250612d6f565b50505050565b612420612d67565b73ffffffffffffffffffffffffffffffffffffffff1661243e6114da565b73ffffffffffffffffffffffffffffffffffffffff16146124c7576040517f08c379a00000000000000000000000000000000000000000000000000000000081526004018080602001828103825260208152602001807f4f776e61626c653a2063616c6c6572206973206e6f7420746865206f776e657281525060200191505060405180910390fd5b600073ffffffffffffffffffffffffffffffffffffffff168173ffffffffffffffffffffffffffffffffffffffff16141561254d576040517f08c379a0000000000000000000000000000000000000000000000000000000008152600401808060200182810382526026815260200180613a3c6026913960400191505060405180910390fd5b8073ffffffffffffffffffffffffffffffffffffffff1660008054906101000a900473ffffffffffffffffffffffffffffffffffffffff1673ffffffffffffffffffffffffffffffffffffffff167f8be0079c531659141344cd1fd0a4f28419497f9722a3daafe3b4186f6b6457e060405160405180910390a3806000806101000a81548173ffffffffffffffffffffffffffffffffffffffff021916908373ffffffffffffffffffffffffffffffffffffffff16021790555050565b600081905060005b60046000858152602001908152602001600020600086815260200190815260200160002080549050811080156126485750600082115b15612bce576000600460008681526020019081526020016000206000878152602001908152602001600020828154811061267e57fe5b906000526020600020906003020160000160009054906101000a900473ffffffffffffffffffffffffffffffffffffffff16905060046000868152602001908152602001600020600087815260200190815260200160002082815481106126e157fe5b90600052602060002090600302016001015483116129065761274c83600460008881526020019081526020016000206000898152602001908152602001600020848154811061272c57fe5b906000526020600020906003020160010154612c5c90919063ffffffff16565b600460008781526020019081526020016000206000888152602001908152602001600020838154811061277b57fe5b9060005260206000209060030201600101819055506127f383600360003373ffffffffffffffffffffffffffffffffffffffff1673ffffffffffffffffffffffffffffffffffffffff168152602001908152602001600020600088815260200190815260200160002054612cdf90919063ffffffff16565b600360003373ffffffffffffffffffffffffffffffffffffffff1673ffffffffffffffffffffffffffffffffffffffff1681526020019081526020016000206000878152602001908152602001600020819055506128aa84600360008473ffffffffffffffffffffffffffffffffffffffff1673ffffffffffffffffffffffffffffffffffffffff168152602001908152602001600020600088815260200190815260200160002054612c5c90919063ffffffff16565b600360008373ffffffffffffffffffffffffffffffffffffffff1673ffffffffffffffffffffffffffffffffffffffff168152602001908152602001600020600087815260200190815260200160002081905550505050612bd1565b612959600460008781526020019081526020016000206000888152602001908152602001600020838154811061293857fe5b90600052602060002090600302016001015484612c5c90919063ffffffff16565b92506129fe600460008781526020019081526020016000206000888152602001908152602001600020838154811061298d57fe5b906000526020600020906003020160010154600360003373ffffffffffffffffffffffffffffffffffffffff1673ffffffffffffffffffffffffffffffffffffffff168152602001908152602001600020600088815260200190815260200160002054612cdf90919063ffffffff16565b600360003373ffffffffffffffffffffffffffffffffffffffff1673ffffffffffffffffffffffffffffffffffffffff168152602001908152602001600020600087815260200190815260200160002081905550612af56004600087815260200190815260200160002060008881526020019081526020016000208381548110612a8457fe5b906000526020600020906003020160010154600360008473ffffffffffffffffffffffffffffffffffffffff1673ffffffffffffffffffffffffffffffffffffffff168152602001908152602001600020600088815260200190815260200160002054612c5c90919063ffffffff16565b600360008373ffffffffffffffffffffffffffffffffffffffff1673ffffffffffffffffffffffffffffffffffffffff1681526020019081526020016000206000878152602001908152602001600020819055506004600086815260200190815260200160002060008781526020019081526020016000208281548110612b7857fe5b9060005260206000209060030201600080820160006101000a81549073ffffffffffffffffffffffffffffffffffffffff0219169055600182016000905560028201600090555050508080600101915050612612565b50505b505050565b600080831415612be95760009050612c56565b6000828402905082848281612bfa57fe5b0414612c51576040517f08c379a0000000000000000000000000000000000000000000000000000000008152600401808060200182810382526021815260200180613a626021913960400191505060405180910390fd5b809150505b92915050565b600082821115612cd4576040517f08c379a000000000000000000000000000000000000000000000000000000000815260040180806020018281038252601e8152602001807f536166654d6174683a207375627472616374696f6e206f766572666c6f77000081525060200191505060405180910390fd5b818303905092915050565b600080828401905083811015612d5d576040517f08c379a000000000000000000000000000000000000000000000000000000000815260040180806020018281038252601b8152602001807f536166654d6174683a206164646974696f6e206f766572666c6f77000000000081525060200191505060405180910390fd5b8091505092915050565b600033905090565b6000612e3b83805480602002602001604051908101604052809291908181526020016000905b82821015612e3157838290600052602060002090600302016040518060600160405290816000820160009054906101000a900473ffffffffffffffffffffffffffffffffffffffff1673ffffffffffffffffffffffffffffffffffffffff1673ffffffffffffffffffffffffffffffffffffffff1681526020016001820154815260200160028201548152505081526020019060010190612d95565b50505050836121ba565b905082805490508110612ed5578282908060018154018082558091505060019003906000526020600020906003020160009091909190915060008201518160000160006101000a81548173ffffffffffffffffffffffffffffffffffffffff021916908373ffffffffffffffffffffffffffffffffffffffff16021790555060208201518160010155604082015181600201555050613027565b6000600184805490500390505b818110612fac57838181548110612ef557fe5b9060005260206000209060030201846001830181548110612f1257fe5b90600052602060002090600302016000820160009054906101000a900473ffffffffffffffffffffffffffffffffffffffff168160000160006101000a81548173ffffffffffffffffffffffffffffffffffffffff021916908373ffffffffffffffffffffffffffffffffffffffff1602179055506001820154816001015560028201548160020155905050808060019003915050612ee2565b5081838281548110612fba57fe5b906000526020600020906003020160008201518160000160006101000a81548173ffffffffffffffffffffffffffffffffffffffff021916908373ffffffffffffffffffffffffffffffffffffffff16021790555060208201518160010155604082015181600201559050505b505050565b6040518060600160405280600073ffffffffffffffffffffffffffffffffffffffff16815260200160008152602001600081525090565b60006130766130718461391c565b6138eb565b9050808382526020820190508285606086028201111561309557600080fd5b60005b858110156130c557816130ab8882613138565b845260208401935060608301925050600181019050613098565b5050509392505050565b6000813590506130de816139e6565b92915050565b600082601f8301126130f557600080fd5b8135613105848260208601613063565b91505092915050565b60008135905061311d816139fd565b92915050565b60008135905061313281613a14565b92915050565b60006060828403121561314a57600080fd5b61315460606138eb565b90506000613164848285016130cf565b600083015250602061317884828501613198565b602083015250604061318c84828501613198565b60408301525092915050565b6000813590506131a781613a24565b92915050565b6000602082840312156131bf57600080fd5b60006131cd848285016130cf565b91505092915050565b600080604083850312156131e957600080fd5b60006131f7858286016130cf565b92505060206132088582860161310e565b9150509250929050565b6000806080838503121561322557600080fd5b600083013567ffffffffffffffff81111561323f57600080fd5b61324b858286016130e4565b925050602061325c85828601613138565b9150509250929050565b60006020828403121561327857600080fd5b60006132868482850161310e565b91505092915050565b600080604083850312156132a257600080fd5b60006132b08582860161310e565b92505060206132c1858286016130cf565b9150509250929050565b600080604083850312156132de57600080fd5b60006132ec8582860161310e565b92505060206132fd85828601613123565b9150509250929050565b60008060006060848603121561331c57600080fd5b600061332a8682870161310e565b935050602061333b86828701613198565b925050604061334c86828701613198565b9150509250925092565b60008060006060848603121561336b57600080fd5b600061337986828701613123565b935050602061338a8682870161310e565b925050604061339b86828701613198565b9150509250925092565b600080600080608085870312156133bb57600080fd5b60006133c987828801613123565b94505060206133da8782880161310e565b93505060406133eb87828801613198565b92505060606133fc87828801613198565b91505092959194509250565b6000806000610120848603121561341e57600080fd5b600061342c86828701613138565b935050606061343d86828701613138565b92505060c061344e86828701613138565b9150509250925092565b60006020828403121561346a57600080fd5b600061347884828501613198565b91505092915050565b6000806040838503121561349457600080fd5b60006134a285828601613198565b92505060206134b38582860161310e565b9150509250929050565b6000806000606084860312156134d257600080fd5b60006134e086828701613198565b93505060206134f18682870161310e565b925050604061350286828701613198565b9150509250925092565b6000806040838503121561351f57600080fd5b600061352d85828601613198565b925050602061353e85828601613198565b9150509250929050565b600061355483836136e0565b60608301905092915050565b61356981613992565b82525050565b61357881613992565b82525050565b600061358982613958565b6135938185613970565b935061359e83613948565b8060005b838110156135cf5781516135b68882613548565b97506135c183613963565b9250506001810190506135a2565b5085935050505092915050565b6135e5816139a4565b82525050565b6135f4816139b0565b82525050565b6000613607601683613981565b91507f496e7375666669656e74206574682062616c616e6365000000000000000000006000830152602082019050919050565b6000613647602a83613981565b91507f546865206f7264657220626f6f6b20697320656d70747920666f72207468697360008301527f206f7065726174696f6e000000000000000000000000000000000000000000006020830152604082019050919050565b60006136ad601883613981565b91507f496e7375666669656e7420746f6b656e2062616c616e636500000000000000006000830152602082019050919050565b6060820160008201516136f66000850182613560565b5060208201516137096020850182613764565b50604082015161371c6040850182613764565b50505050565b6060820160008201516137386000850182613560565b50602082015161374b6020850182613764565b50604082015161375e6040850182613764565b50505050565b61376d816139da565b82525050565b61377c816139da565b82525050565b6000602082019050613797600083018461356f565b92915050565b60006060820190506137b2600083018661356f565b6137bf6020830185613773565b6137cc6040830184613773565b949350505050565b600060208201905081810360008301526137ee818461357e565b905092915050565b600060208201905061380b60008301846135dc565b92915050565b600060208201905061382660008301846135eb565b92915050565b600060408201905061384160008301856135eb565b61384e602083018461356f565b9392505050565b6000602082019050818103600083015261386e816135fa565b9050919050565b6000602082019050818103600083015261388e8161363a565b9050919050565b600060208201905081810360008301526138ae816136a0565b9050919050565b60006060820190506138ca6000830184613722565b92915050565b60006020820190506138e56000830184613773565b92915050565b6000604051905081810181811067ffffffffffffffff82111715613912576139116139e4565b5b8060405250919050565b600067ffffffffffffffff821115613937576139366139e4565b5b602082029050602081019050919050565b6000819050602082019050919050565b600081519050919050565b6000602082019050919050565b600082825260208201905092915050565b600082825260208201905092915050565b600061399d826139ba565b9050919050565b60008115159050919050565b6000819050919050565b600073ffffffffffffffffffffffffffffffffffffffff82169050919050565b6000819050919050565bfe5b6139ef81613992565b81146139fa57600080fd5b50565b613a06816139b0565b8114613a1157600080fd5b50565b60028110613a2157600080fd5b50565b613a2d816139da565b8114613a3857600080fd5b5056fe4f776e61626c653a206e6577206f776e657220697320746865207a65726f2061646472657373536166654d6174683a206d756c7469706c69636174696f6e206f766572666c6f77a2646970667358221220349cf65ace270736a86f4ff7f13a64251c7827ba535b7d5b33115385ca487c9264736f6c63430007060033",
  "linkReferences": {},
  "deployedLinkReferences": {}
}