{
  "_format": "hh-sol-artifact-1",
  "contractName": "Dex",
  "sourceName": "contracts/Dex.sol",
  "abi": [
    {
      "anonymous": false,
      "inputs": [
        {
          "indexed": true,
          "internalType": "address",
          "name": "previousOwner",
          "type": "address"
        },
        {
          "indexed": true,
          "internalType": "address",
          "name": "newOwner",
          "type": "address"
        }
      ],
      "name": "OwnershipTransferred",
      "type": "event"
    },
    {
      "inputs": [
        {
          "internalType": "bytes32",
          "name": "ticker",
          "type": "bytes32"
        },
        {
          "internalType": "address",
          "name": "tokenAddress",
          "type": "address"
        }
      ],
      "name": "addToken",
      "outputs": [],
      "stateMutability": "nonpayable",
      "type": "function"
    },
    {
      "inputs": [
        {
          "internalType": "address",
          "name": "",
          "type": "address"
        },
        {
          "internalType": "bytes32",
          "name": "",
          "type": "bytes32"
        }
      ],
      "name": "balances",
      "outputs": [
        {
          "internalType": "uint256",
          "name": "",
          "type": "uint256"
        }
      ],
      "stateMutability": "view",
      "type": "function"
    },
    {
      "inputs": [
        {
          "internalType": "enum Dex.Side",
          "name": "side",
          "type": "uint8"
        },
        {
          "internalType": "bytes32",
          "name": "ticker",
          "type": "bytes32"
        },
        {
          "internalType": "uint256",
          "name": "amount",
          "type": "uint256"
        }
      ],
      "name": "createBuyMarketOrder",
      "outputs": [],
      "stateMutability": "nonpayable",
      "type": "function"
    },
    {
      "inputs": [
        {
          "internalType": "enum Dex.Side",
          "name": "side",
          "type": "uint8"
        },
        {
          "internalType": "bytes32",
          "name": "ticker",
          "type": "bytes32"
        },
        {
          "internalType": "uint256",
          "name": "amount",
          "type": "uint256"
        },
        {
          "internalType": "uint256",
          "name": "price",
          "type": "uint256"
        }
      ],
      "name": "createLimitOrder",
      "outputs": [],
      "stateMutability": "nonpayable",
      "type": "function"
    },
    {
      "inputs": [
        {
          "internalType": "enum Dex.Side",
          "name": "side",
          "type": "uint8"
        },
        {
          "internalType": "bytes32",
          "name": "ticker",
          "type": "bytes32"
        },
        {
          "internalType": "uint256",
          "name": "amount",
          "type": "uint256"
        }
      ],
      "name": "createMarketOrder",
      "outputs": [],
      "stateMutability": "nonpayable",
      "type": "function"
    },
    {
      "inputs": [
        {
          "internalType": "enum Dex.Side",
          "name": "side",
          "type": "uint8"
        },
        {
          "internalType": "bytes32",
          "name": "ticker",
          "type": "bytes32"
        },
        {
          "internalType": "uint256",
          "name": "amount",
          "type": "uint256"
        }
      ],
      "name": "createSellMarketOrder",
      "outputs": [],
      "stateMutability": "nonpayable",
      "type": "function"
    },
    {
      "inputs": [
        {
          "internalType": "enum Dex.Side",
          "name": "side",
          "type": "uint8"
        },
        {
          "internalType": "bytes32",
          "name": "ticker",
          "type": "bytes32"
        },
        {
          "internalType": "uint256",
          "name": "amount",
          "type": "uint256"
        },
        {
          "internalType": "uint256",
          "name": "price",
          "type": "uint256"
        }
      ],
      "name": "createSortedLimitOrder",
      "outputs": [],
      "stateMutability": "nonpayable",
      "type": "function"
    },
    {
      "inputs": [
        {
          "internalType": "uint256",
          "name": "amount",
          "type": "uint256"
        },
        {
          "internalType": "bytes32",
          "name": "ticker",
          "type": "bytes32"
        }
      ],
      "name": "deposit",
      "outputs": [],
      "stateMutability": "nonpayable",
      "type": "function"
    },
    {
      "inputs": [],
      "name": "depositEth",
      "outputs": [],
      "stateMutability": "payable",
      "type": "function"
    },
    {
      "inputs": [
        {
          "internalType": "uint256",
          "name": "amount",
          "type": "uint256"
        },
        {
          "internalType": "uint256",
          "name": "price",
          "type": "uint256"
        }
      ],
      "name": "generateNewOrder",
      "outputs": [
        {
          "components": [
            {
              "internalType": "address",
              "name": "trader",
              "type": "address"
            },
            {
              "internalType": "uint256",
              "name": "amount",
              "type": "uint256"
            },
            {
              "internalType": "uint256",
              "name": "price",
              "type": "uint256"
            }
          ],
          "internalType": "struct Dex.Order",
          "name": "",
          "type": "tuple"
        }
      ],
      "stateMutability": "view",
      "type": "function"
    },
    {
      "inputs": [],
      "name": "getMyBalance",
      "outputs": [
        {
          "internalType": "uint256",
          "name": "",
          "type": "uint256"
        }
      ],
      "stateMutability": "view",
      "type": "function"
    },
    {
      "inputs": [
        {
          "internalType": "bytes32",
          "name": "ticker",
          "type": "bytes32"
        },
        {
          "internalType": "enum Dex.Side",
          "name": "side",
          "type": "uint8"
        }
      ],
      "name": "getOrderBook",
      "outputs": [
        {
          "components": [
            {
              "internalType": "address",
              "name": "trader",
              "type": "address"
            },
            {
              "internalType": "uint256",
              "name": "amount",
              "type": "uint256"
            },
            {
              "internalType": "uint256",
              "name": "price",
              "type": "uint256"
            }
          ],
          "internalType": "struct Dex.Order[]",
          "name": "",
          "type": "tuple[]"
        }
      ],
      "stateMutability": "view",
      "type": "function"
    },
    {
      "inputs": [
        {
          "components": [
            {
              "internalType": "address",
              "name": "trader",
              "type": "address"
            },
            {
              "internalType": "uint256",
              "name": "amount",
              "type": "uint256"
            },
            {
              "internalType": "uint256",
              "name": "price",
              "type": "uint256"
            }
          ],
          "internalType": "struct Dex.Order[]",
          "name": "orders",
          "type": "tuple[]"
        },
        {
          "components": [
            {
              "internalType": "address",
              "name": "trader",
              "type": "address"
            },
            {
              "internalType": "uint256",
              "name": "amount",
              "type": "uint256"
            },
            {
              "internalType": "uint256",
              "name": "price",
              "type": "uint256"
            }
          ],
          "internalType": "struct Dex.Order",
          "name": "newOrder",
          "type": "tuple"
        }
      ],
      "name": "getPositionToPlace",
      "outputs": [
        {
          "internalType": "uint256",
          "name": "",
          "type": "uint256"
        }
      ],
      "stateMutability": "pure",
      "type": "function"
    },
    {
      "inputs": [
        {
          "internalType": "bytes32",
          "name": "token",
          "type": "bytes32"
        }
      ],
      "name": "getTokenBalance",
      "outputs": [
        {
          "internalType": "uint256",
          "name": "",
          "type": "uint256"
        }
      ],
      "stateMutability": "nonpayable",
      "type": "function"
    },
    {
      "inputs": [
        {
          "internalType": "enum Dex.Side",
          "name": "side",
          "type": "uint8"
        },
        {
          "internalType": "bytes32",
          "name": "ticker",
          "type": "bytes32"
        },
        {
          "internalType": "uint256",
          "name": "amount",
          "type": "uint256"
        },
        {
          "internalType": "uint256",
          "name": "price",
          "type": "uint256"
        }
      ],
      "name": "hasSufficientBalanceForLimit",
      "outputs": [],
      "stateMutability": "view",
      "type": "function"
    },
    {
      "inputs": [
        {
          "internalType": "enum Dex.Side",
          "name": "side",
          "type": "uint8"
        },
        {
          "internalType": "bytes32",
          "name": "ticker",
          "type": "bytes32"
        },
        {
          "internalType": "uint256",
          "name": "amount",
          "type": "uint256"
        }
      ],
      "name": "hasSufficientBalanceForMarket",
      "outputs": [],
      "stateMutability": "view",
      "type": "function"
    },
    {
      "inputs": [
        {
          "components": [
            {
              "internalType": "address",
              "name": "trader",
              "type": "address"
            },
            {
              "internalType": "uint256",
              "name": "amount",
              "type": "uint256"
            },
            {
              "internalType": "uint256",
              "name": "price",
              "type": "uint256"
            }
          ],
          "internalType": "struct Dex.Order",
          "name": "prevOrder",
          "type": "tuple"
        },
        {
          "components": [
            {
              "internalType": "address",
              "name": "trader",
              "type": "address"
            },
            {
              "internalType": "uint256",
              "name": "amount",
              "type": "uint256"
            },
            {
              "internalType": "uint256",
              "name": "price",
              "type": "uint256"
            }
          ],
          "internalType": "struct Dex.Order",
          "name": "newOrder",
          "type": "tuple"
        },
        {
          "components": [
            {
              "internalType": "address",
              "name": "trader",
              "type": "address"
            },
            {
              "internalType": "uint256",
              "name": "amount",
              "type": "uint256"
            },
            {
              "internalType": "uint256",
              "name": "price",
              "type": "uint256"
            }
          ],
          "internalType": "struct Dex.Order",
          "name": "nextOrder",
          "type": "tuple"
        }
      ],
      "name": "isMiddlePosition",
      "outputs": [
        {
          "internalType": "bool",
          "name": "",
          "type": "bool"
        }
      ],
      "stateMutability": "pure",
      "type": "function"
    },
    {
      "inputs": [
        {
          "internalType": "enum Dex.Side",
          "name": "side",
          "type": "uint8"
        },
        {
          "internalType": "bytes32",
          "name": "ticker",
          "type": "bytes32"
        },
        {
          "internalType": "uint256",
          "name": "amount",
          "type": "uint256"
        }
      ],
      "name": "isOrderBookEmpty",
      "outputs": [],
      "stateMutability": "view",
      "type": "function"
    },
    {
      "inputs": [
        {
          "internalType": "bytes32",
          "name": "",
          "type": "bytes32"
        },
        {
          "internalType": "uint256",
          "name": "",
          "type": "uint256"
        },
        {
          "internalType": "uint256",
          "name": "",
          "type": "uint256"
        }
      ],
      "name": "orderBook",
      "outputs": [
        {
          "internalType": "address",
          "name": "trader",
          "type": "address"
        },
        {
          "internalType": "uint256",
          "name": "amount",
          "type": "uint256"
        },
        {
          "internalType": "uint256",
          "name": "price",
          "type": "uint256"
        }
      ],
      "stateMutability": "view",
      "type": "function"
    },
    {
      "inputs": [],
      "name": "owner",
      "outputs": [
        {
          "internalType": "address",
          "name": "",
          "type": "address"
        }
      ],
      "stateMutability": "view",
      "type": "function"
    },
    {
      "inputs": [],
      "name": "renounceOwnership",
      "outputs": [],
      "stateMutability": "nonpayable",
      "type": "function"
    },
    {
      "inputs": [
        {
          "internalType": "bytes32",
          "name": "ticker",
          "type": "bytes32"
        },
        {
          "internalType": "enum Dex.Side",
          "name": "side",
          "type": "uint8"
        }
      ],
      "name": "resetOrderBook",
      "outputs": [
        {
          "components": [
            {
              "internalType": "address",
              "name": "trader",
              "type": "address"
            },
            {
              "internalType": "uint256",
              "name": "amount",
              "type": "uint256"
            },
            {
              "internalType": "uint256",
              "name": "price",
              "type": "uint256"
            }
          ],
          "internalType": "struct Dex.Order[]",
          "name": "",
          "type": "tuple[]"
        }
      ],
      "stateMutability": "view",
      "type": "function"
    },
    {
      "inputs": [
        {
          "internalType": "uint256",
          "name": "",
          "type": "uint256"
        }
      ],
      "name": "tokenList",
      "outputs": [
        {
          "internalType": "bytes32",
          "name": "",
          "type": "bytes32"
        }
      ],
      "stateMutability": "view",
      "type": "function"
    },
    {
      "inputs": [
        {
          "internalType": "bytes32",
          "name": "",
          "type": "bytes32"
        }
      ],
      "name": "tokenMapping",
      "outputs": [
        {
          "internalType": "bytes32",
          "name": "ticker",
          "type": "bytes32"
        },
        {
          "internalType": "address",
          "name": "tokenAddress",
          "type": "address"
        }
      ],
      "stateMutability": "view",
      "type": "function"
    },
    {
      "inputs": [
        {
          "internalType": "address",
          "name": "newOwner",
          "type": "address"
        }
      ],
      "name": "transferOwnership",
      "outputs": [],
      "stateMutability": "nonpayable",
      "type": "function"
    },
    {
      "inputs": [
        {
          "internalType": "uint256",
          "name": "amount",
          "type": "uint256"
        },
        {
          "internalType": "bytes32",
          "name": "ticker",
          "type": "bytes32"
        }
      ],
      "name": "withdraw",
      "outputs": [],
      "stateMutability": "nonpayable",
      "type": "function"
    },
    {
      "inputs": [
        {
          "internalType": "uint256",
          "name": "amount",
          "type": "uint256"
        }
      ],
      "name": "withdrawEth",
      "outputs": [],
      "stateMutability": "nonpayable",
      "type": "function"
    }
  ],
  "bytecode": "0x60806040523480156200001157600080fd5b50600062000024620000c860201b60201c565b9050806000806101000a81548173ffffffffffffffffffffffffffffffffffffffff021916908373ffffffffffffffffffffffffffffffffffffffff1602179055508073ffffffffffffffffffffffffffffffffffffffff16600073ffffffffffffffffffffffffffffffffffffffff167f8be0079c531659141344cd1fd0a4f28419497f9722a3daafe3b4186f6b6457e060405160405180910390a350620000d0565b600033905090565b61365980620000e06000396000f3fe60806040526004361061019c5760003560e01c806399ec2f1c116100ec578063c311d0491161008a578063d752491a11610064578063d752491a146105da578063e58c1a8b14610617578063f1b928f314610640578063f2fde38b146106695761019c565b8063c311d0491461055f578063c9630cb014610588578063d0e3bd76146105b15761019c565b8063a8d2021a116100c6578063a8d2021a14610493578063b23712d9146104bc578063ba58ea68146104f9578063bae450f9146105365761019c565b806399ec2f1c146104045780639ead72221461042d578063a7dc110f1461046a5761019c565b8063667cb4ba1161015957806388db6ac61161013357806388db6ac6146103365780638c9f9196146103735780638da5cb5b146103b05780639776aacf146103db5761019c565b8063667cb4ba146102b85780636f3b62f9146102f6578063715018a61461031f5761019c565b80630bb431b6146101a15780631ea60427146101e05780631f14df691461021d578063296bd3a11461025a578063439370b1146102835780634c7389091461028d575b600080fd5b3480156101ad57600080fd5b506101c860048036038101906101c39190612ef7565b610692565b6040516101d79392919061333e565b60405180910390f35b3480156101ec57600080fd5b50610207600480360381019061020291906130ad565b610706565b6040516102149190613456565b60405180910390f35b34801561022957600080fd5b50610244600480360381019061023f9190612dc6565b610747565b6040516102519190613471565b60405180910390f35b34801561026657600080fd5b50610281600480360381019061027c9190612f95565b61076c565b005b61028b6108ef565b005b34801561029957600080fd5b506102a26109e8565b6040516102af9190613471565b60405180910390f35b3480156102c457600080fd5b506102df60048036038101906102da9190612e56565b610a60565b6040516102ed9291906133cd565b60405180910390f35b34801561030257600080fd5b5061031d60048036038101906103189190612f95565b610aa4565b005b34801561032b57600080fd5b50610334610b9c565b005b34801561034257600080fd5b5061035d60048036038101906103589190612e56565b610d09565b60405161036a9190613471565b60405180910390f35b34801561037f57600080fd5b5061039a60048036038101906103959190612ebb565b610d63565b6040516103a79190613375565b60405180910390f35b3480156103bc57600080fd5b506103c5610e5c565b6040516103d29190613323565b60405180910390f35b3480156103e757600080fd5b5061040260048036038101906103fd9190612e7f565b610e85565b005b34801561041057600080fd5b5061042b60048036038101906104269190612f46565b610ff3565b005b34801561043957600080fd5b50610454600480360381019061044f9190613048565b61100e565b60405161046191906133b2565b60405180910390f35b34801561047657600080fd5b50610491600480360381019061048c9190612f46565b611032565b005b34801561049f57600080fd5b506104ba60048036038101906104b59190613071565b611478565b005b3480156104c857600080fd5b506104e360048036038101906104de9190612ff8565b6117b7565b6040516104f09190613397565b60405180910390f35b34801561050557600080fd5b50610520600480360381019061051b9190612ebb565b6117e2565b60405161052d9190613375565b60405180910390f35b34801561054257600080fd5b5061055d60048036038101906105589190612f46565b6118db565b005b34801561056b57600080fd5b5061058660048036038101906105819190613048565b611a4c565b005b34801561059457600080fd5b506105af60048036038101906105aa9190613071565b611c99565b005b3480156105bd57600080fd5b506105d860048036038101906105d39190612f46565b611f30565b005b3480156105e657600080fd5b5061060160048036038101906105fc9190612e02565b612376565b60405161060e9190613471565b60405180910390f35b34801561062357600080fd5b5061063e60048036038101906106399190612f46565b612446565b005b34801561064c57600080fd5b5061066760048036038101906106629190612f95565b61255a565b005b34801561067557600080fd5b50610690600480360381019061068b9190612d9d565b6125d4565b005b600460205282600052604060002060205281600052604060002081815481106106ba57600080fd5b906000526020600020906003020160009250925050508060000160009054906101000a900473ffffffffffffffffffffffffffffffffffffffff16908060010154908060020154905083565b61070e612c1c565b60405180606001604052803373ffffffffffffffffffffffffffffffffffffffff16815260200184815260200183815250905092915050565b6003602052816000526040600020602052806000526040600020600091509150505481565b6000600181111561077957fe5b84600181111561078557fe5b14156108555761079e81836127c690919063ffffffff16565b600360003373ffffffffffffffffffffffffffffffffffffffff1673ffffffffffffffffffffffffffffffffffffffff16815260200190815260200160002060007f45544800000000000000000000000000000000000000000000000000000000008152602001908152602001600020541015610850576040517f08c379a0000000000000000000000000000000000000000000000000000000008152600401610847906133f6565b60405180910390fd5b6108e9565b81600360003373ffffffffffffffffffffffffffffffffffffffff1673ffffffffffffffffffffffffffffffffffffffff16815260200190815260200160002060008581526020019081526020016000205410156108e8576040517f08c379a00000000000000000000000000000000000000000000000000000000081526004016108df90613436565b60405180910390fd5b5b50505050565b61097234600360003373ffffffffffffffffffffffffffffffffffffffff1673ffffffffffffffffffffffffffffffffffffffff16815260200190815260200160002060007f455448000000000000000000000000000000000000000000000000000000000081526020019081526020016000205461284c90919063ffffffff16565b600360003373ffffffffffffffffffffffffffffffffffffffff1673ffffffffffffffffffffffffffffffffffffffff16815260200190815260200160002060007f4554480000000000000000000000000000000000000000000000000000000000815260200190815260200160002081905550565b6000600360003373ffffffffffffffffffffffffffffffffffffffff1673ffffffffffffffffffffffffffffffffffffffff16815260200190815260200160002060007f4554480000000000000000000000000000000000000000000000000000000000815260200190815260200160002054905090565b60016020528060005260406000206000915090508060000154908060010160009054906101000a900473ffffffffffffffffffffffffffffffffffffffff16905082565b610ab08484848461076c565b600460008481526020019081526020016000206000856001811115610ad157fe5b815260200190815260200160002060405180606001604052803373ffffffffffffffffffffffffffffffffffffffff16815260200184815260200183815250908060018154018082558091505060019003906000526020600020906003020160009091909190915060008201518160000160006101000a81548173ffffffffffffffffffffffffffffffffffffffff021916908373ffffffffffffffffffffffffffffffffffffffff1602179055506020820151816001015560408201518160020155505050505050565b610ba46128d4565b73ffffffffffffffffffffffffffffffffffffffff16610bc2610e5c565b73ffffffffffffffffffffffffffffffffffffffff1614610c4b576040517f08c379a00000000000000000000000000000000000000000000000000000000081526004018080602001828103825260208152602001807f4f776e61626c653a2063616c6c6572206973206e6f7420746865206f776e657281525060200191505060405180910390fd5b600073ffffffffffffffffffffffffffffffffffffffff1660008054906101000a900473ffffffffffffffffffffffffffffffffffffffff1673ffffffffffffffffffffffffffffffffffffffff167f8be0079c531659141344cd1fd0a4f28419497f9722a3daafe3b4186f6b6457e060405160405180910390a360008060006101000a81548173ffffffffffffffffffffffffffffffffffffffff021916908373ffffffffffffffffffffffffffffffffffffffff160217905550565b6000600360003373ffffffffffffffffffffffffffffffffffffffff1673ffffffffffffffffffffffffffffffffffffffff1681526020019081526020016000206000838152602001908152602001600020549050919050565b6060600460008481526020019081526020016000206000836001811115610d8657fe5b8152602001908152602001600020805480602002602001604051908101604052809291908181526020016000905b82821015610e5057838290600052602060002090600302016040518060600160405290816000820160009054906101000a900473ffffffffffffffffffffffffffffffffffffffff1673ffffffffffffffffffffffffffffffffffffffff1673ffffffffffffffffffffffffffffffffffffffff1681526020016001820154815260200160028201548152505081526020019060010190610db4565b50505050905092915050565b60008060009054906101000a900473ffffffffffffffffffffffffffffffffffffffff16905090565b610e8d6128d4565b73ffffffffffffffffffffffffffffffffffffffff16610eab610e5c565b73ffffffffffffffffffffffffffffffffffffffff1614610f34576040517f08c379a00000000000000000000000000000000000000000000000000000000081526004018080602001828103825260208152602001807f4f776e61626c653a2063616c6c6572206973206e6f7420746865206f776e657281525060200191505060405180910390fd5b60405180604001604052808381526020018273ffffffffffffffffffffffffffffffffffffffff16815250600160008481526020019081526020016000206000820151816000015560208201518160010160006101000a81548173ffffffffffffffffffffffffffffffffffffffff021916908373ffffffffffffffffffffffffffffffffffffffff16021790555090505060028290806001815401808255809150506001900390600052602060002001600090919091909150555050565b610ffe838383612446565b6110098383836118db565b505050565b6002818154811061101e57600080fd5b906000526020600020016000915090505481565b60005b60046000848152602001908152602001600020600085600181111561105657fe5b815260200190815260200160002080549050811080156110765750600082115b1561147257600060046000858152602001908152602001600020600086600181111561109e57fe5b815260200190815260200160002082815481106110b757fe5b906000526020600020906003020160000160009054906101000a900473ffffffffffffffffffffffffffffffffffffffff16905060046000858152602001908152602001600020600086600181111561110c57fe5b8152602001908152602001600020828154811061112557fe5b90600052602060002090600302016001015483101561126a5761119c8360046000878152602001908152602001600020600088600181111561116357fe5b8152602001908152602001600020848154811061117c57fe5b9060005260206000209060030201600101546128dc90919063ffffffff16565b5061120083600360008473ffffffffffffffffffffffffffffffffffffffff1673ffffffffffffffffffffffffffffffffffffffff16815260200190815260200160002060008781526020019081526020016000205461284c90919063ffffffff16565b5061126483600360003373ffffffffffffffffffffffffffffffffffffffff1673ffffffffffffffffffffffffffffffffffffffff1681526020019081526020016000206000878152602001908152602001600020546128dc90919063ffffffff16565b50611464565b60046000858152602001908152602001600020600086600181111561128b57fe5b815260200190815260200160002082815481106112a457fe5b90600052602060002090600302016001015483039250611318836004600087815260200190815260200160002060008860018111156112df57fe5b815260200190815260200160002084815481106112f857fe5b9060005260206000209060030201600101546128dc90919063ffffffff16565b5061137c83600360008473ffffffffffffffffffffffffffffffffffffffff1673ffffffffffffffffffffffffffffffffffffffff16815260200190815260200160002060008781526020019081526020016000205461284c90919063ffffffff16565b506113e083600360003373ffffffffffffffffffffffffffffffffffffffff1673ffffffffffffffffffffffffffffffffffffffff1681526020019081526020016000206000878152602001908152602001600020546128dc90919063ffffffff16565b5060046000858152602001908152602001600020600086600181111561140257fe5b8152602001908152602001600020828154811061141b57fe5b9060005260206000209060030201600080820160006101000a81549073ffffffffffffffffffffffffffffffffffffffff02191690556001820160009055600282016000905550505b508080600101915050611035565b50505050565b80600073ffffffffffffffffffffffffffffffffffffffff166001600083815260200190815260200160002060010160009054906101000a900473ffffffffffffffffffffffffffffffffffffffff1673ffffffffffffffffffffffffffffffffffffffff161415611552576040517f08c379a00000000000000000000000000000000000000000000000000000000081526004018080602001828103825260148152602001807f746f6b656e20646f6573206e6f7420657869737400000000000000000000000081525060200191505060405180910390fd5b82600360003373ffffffffffffffffffffffffffffffffffffffff1673ffffffffffffffffffffffffffffffffffffffff1681526020019081526020016000206000848152602001908152602001600020541015611618576040517f08c379a00000000000000000000000000000000000000000000000000000000081526004018080602001828103825260128152602001807f496e7375666669656e742062616c616e6365000000000000000000000000000081525060200191505060405180910390fd5b61167b83600360003373ffffffffffffffffffffffffffffffffffffffff1673ffffffffffffffffffffffffffffffffffffffff1681526020019081526020016000206000858152602001908152602001600020546128dc90919063ffffffff16565b600360003373ffffffffffffffffffffffffffffffffffffffff1673ffffffffffffffffffffffffffffffffffffffff1681526020019081526020016000206000848152602001908152602001600020819055506001600083815260200190815260200160002060010160009054906101000a900473ffffffffffffffffffffffffffffffffffffffff1673ffffffffffffffffffffffffffffffffffffffff1663a9059cbb33856040518363ffffffff1660e01b8152600401808373ffffffffffffffffffffffffffffffffffffffff16815260200182815260200192505050602060405180830381600087803b15801561177657600080fd5b505af115801561178a573d6000803e3d6000fd5b505050506040513d60208110156117a057600080fd5b810190808051906020019092919050505050505050565b600082604001518460400151101580156117d957508160400151836040015110155b90509392505050565b606060046000848152602001908152602001600020600083600181111561180557fe5b8152602001908152602001600020805480602002602001604051908101604052809291908181526020016000905b828210156118cf57838290600052602060002090600302016040518060600160405290816000820160009054906101000a900473ffffffffffffffffffffffffffffffffffffffff1673ffffffffffffffffffffffffffffffffffffffff1673ffffffffffffffffffffffffffffffffffffffff1681526020016001820154815260200160028201548152505081526020019060010190611833565b50505050905092915050565b600060018111156118e857fe5b8360018111156118f457fe5b14156119b2576000600360003373ffffffffffffffffffffffffffffffffffffffff1673ffffffffffffffffffffffffffffffffffffffff16815260200190815260200160002060007f4554480000000000000000000000000000000000000000000000000000000000815260200190815260200160002054116119ad576040517f08c379a00000000000000000000000000000000000000000000000000000000081526004016119a4906133f6565b60405180910390fd5b611a47565b6001600360003373ffffffffffffffffffffffffffffffffffffffff1673ffffffffffffffffffffffffffffffffffffffff1681526020019081526020016000206000848152602001908152602001600020541015611a46576040517f08c379a0000000000000000000000000000000000000000000000000000000008152600401611a3d90613436565b60405180910390fd5b5b505050565b80600360003373ffffffffffffffffffffffffffffffffffffffff1673ffffffffffffffffffffffffffffffffffffffff16815260200190815260200160002060007f45544800000000000000000000000000000000000000000000000000000000008152602001908152602001600020541015611b32576040517f08c379a00000000000000000000000000000000000000000000000000000000081526004018080602001828103825260128152602001807f496e7375666669656e742062616c616e6365000000000000000000000000000081525060200191505060405180910390fd5b611bb581600360003373ffffffffffffffffffffffffffffffffffffffff1673ffffffffffffffffffffffffffffffffffffffff16815260200190815260200160002060007f45544800000000000000000000000000000000000000000000000000000000008152602001908152602001600020546128dc90919063ffffffff16565b600360003373ffffffffffffffffffffffffffffffffffffffff1673ffffffffffffffffffffffffffffffffffffffff16815260200190815260200160002060007f45544800000000000000000000000000000000000000000000000000000000008152602001908152602001600020819055506000803373ffffffffffffffffffffffffffffffffffffffff168360405180600001905060006040518083038185875af1925050503d8060008114611c8a576040519150601f19603f3d011682016040523d82523d6000602084013e611c8f565b606091505b5091509150505050565b80600073ffffffffffffffffffffffffffffffffffffffff166001600083815260200190815260200160002060010160009054906101000a900473ffffffffffffffffffffffffffffffffffffffff1673ffffffffffffffffffffffffffffffffffffffff161415611d73576040517f08c379a00000000000000000000000000000000000000000000000000000000081526004018080602001828103825260148152602001807f746f6b656e20646f6573206e6f7420657869737400000000000000000000000081525060200191505060405180910390fd5b6001600083815260200190815260200160002060010160009054906101000a900473ffffffffffffffffffffffffffffffffffffffff1673ffffffffffffffffffffffffffffffffffffffff166323b872dd3330866040518463ffffffff1660e01b8152600401808473ffffffffffffffffffffffffffffffffffffffff1681526020018373ffffffffffffffffffffffffffffffffffffffff1681526020018281526020019350505050602060405180830381600087803b158015611e3857600080fd5b505af1158015611e4c573d6000803e3d6000fd5b505050506040513d6020811015611e6257600080fd5b810190808051906020019092919050505050611ed783600360003373ffffffffffffffffffffffffffffffffffffffff1673ffffffffffffffffffffffffffffffffffffffff16815260200190815260200160002060008581526020019081526020016000205461284c90919063ffffffff16565b600360003373ffffffffffffffffffffffffffffffffffffffff1673ffffffffffffffffffffffffffffffffffffffff168152602001908152602001600020600084815260200190815260200160002081905550505050565b60005b600460008481526020019081526020016000206000856001811115611f5457fe5b81526020019081526020016000208054905081108015611f745750600082115b15612370576000600460008581526020019081526020016000206000866001811115611f9c57fe5b81526020019081526020016000208281548110611fb557fe5b906000526020600020906003020160000160009054906101000a900473ffffffffffffffffffffffffffffffffffffffff16905060046000858152602001908152602001600020600086600181111561200a57fe5b8152602001908152602001600020828154811061202357fe5b9060005260206000209060030201600101548310156121685761209a8360046000878152602001908152602001600020600088600181111561206157fe5b8152602001908152602001600020848154811061207a57fe5b9060005260206000209060030201600101546128dc90919063ffffffff16565b506120fe83600360003373ffffffffffffffffffffffffffffffffffffffff1673ffffffffffffffffffffffffffffffffffffffff16815260200190815260200160002060008781526020019081526020016000205461284c90919063ffffffff16565b5061216283600360008473ffffffffffffffffffffffffffffffffffffffff1673ffffffffffffffffffffffffffffffffffffffff1681526020019081526020016000206000878152602001908152602001600020546128dc90919063ffffffff16565b50612362565b60046000858152602001908152602001600020600086600181111561218957fe5b815260200190815260200160002082815481106121a257fe5b90600052602060002090600302016001015483039250612216836004600087815260200190815260200160002060008860018111156121dd57fe5b815260200190815260200160002084815481106121f657fe5b9060005260206000209060030201600101546128dc90919063ffffffff16565b5061227a83600360003373ffffffffffffffffffffffffffffffffffffffff1673ffffffffffffffffffffffffffffffffffffffff16815260200190815260200160002060008781526020019081526020016000205461284c90919063ffffffff16565b506122de83600360008473ffffffffffffffffffffffffffffffffffffffff1673ffffffffffffffffffffffffffffffffffffffff1681526020019081526020016000206000878152602001908152602001600020546128dc90919063ffffffff16565b5060046000858152602001908152602001600020600086600181111561230057fe5b8152602001908152602001600020828154811061231957fe5b9060005260206000209060030201600080820160006101000a81549073ffffffffffffffffffffffffffffffffffffffff02191690556001820160009055600282016000905550505b508080600101915050611f33565b50505050565b6000808351141561238a5760009050612440565b6001835114156123ca578160400151836000815181106123a657fe5b60200260200101516040015111156123c15760019050612440565b60009050612440565b60005b835181101561243e5760018451038114156123ec578351915050612440565b6124208482815181106123fb57fe5b60200260200101518486600185018151811061241357fe5b60200260200101516117b7565b156124315760018101915050612440565b80806001019150506123cd565b505b92915050565b6000600181111561245357fe5b83600181111561245f57fe5b14156124df57600060046000848152602001908152602001600020600060018081111561248857fe5b815260200190815260200160002080549050116124da576040517f08c379a00000000000000000000000000000000000000000000000000000000081526004016124d190613416565b60405180910390fd5b612555565b600060046000848152602001908152602001600020600080600181111561250257fe5b81526020019081526020016000208054905011612554576040517f08c379a000000000000000000000000000000000000000000000000000000000815260040161254b90613416565b60405180910390fd5b5b505050565b6125668484848461076c565b6125ce60046000858152602001908152602001600020600086600181111561258a57fe5b815260200190815260200160002060405180606001604052803373ffffffffffffffffffffffffffffffffffffffff1681526020018581526020018481525061295f565b50505050565b6125dc6128d4565b73ffffffffffffffffffffffffffffffffffffffff166125fa610e5c565b73ffffffffffffffffffffffffffffffffffffffff1614612683576040517f08c379a00000000000000000000000000000000000000000000000000000000081526004018080602001828103825260208152602001807f4f776e61626c653a2063616c6c6572206973206e6f7420746865206f776e657281525060200191505060405180910390fd5b600073ffffffffffffffffffffffffffffffffffffffff168173ffffffffffffffffffffffffffffffffffffffff161415612709576040517f08c379a00000000000000000000000000000000000000000000000000000000081526004018080602001828103825260268152602001806135dd6026913960400191505060405180910390fd5b8073ffffffffffffffffffffffffffffffffffffffff1660008054906101000a900473ffffffffffffffffffffffffffffffffffffffff1673ffffffffffffffffffffffffffffffffffffffff167f8be0079c531659141344cd1fd0a4f28419497f9722a3daafe3b4186f6b6457e060405160405180910390a3806000806101000a81548173ffffffffffffffffffffffffffffffffffffffff021916908373ffffffffffffffffffffffffffffffffffffffff16021790555050565b6000808314156127d95760009050612846565b60008284029050828482816127ea57fe5b0414612841576040517f08c379a00000000000000000000000000000000000000000000000000000000081526004018080602001828103825260218152602001806136036021913960400191505060405180910390fd5b809150505b92915050565b6000808284019050838110156128ca576040517f08c379a000000000000000000000000000000000000000000000000000000000815260040180806020018281038252601b8152602001807f536166654d6174683a206164646974696f6e206f766572666c6f77000000000081525060200191505060405180910390fd5b8091505092915050565b600033905090565b600082821115612954576040517f08c379a000000000000000000000000000000000000000000000000000000000815260040180806020018281038252601e8152602001807f536166654d6174683a207375627472616374696f6e206f766572666c6f77000081525060200191505060405180910390fd5b818303905092915050565b6000612a2b83805480602002602001604051908101604052809291908181526020016000905b82821015612a2157838290600052602060002090600302016040518060600160405290816000820160009054906101000a900473ffffffffffffffffffffffffffffffffffffffff1673ffffffffffffffffffffffffffffffffffffffff1673ffffffffffffffffffffffffffffffffffffffff1681526020016001820154815260200160028201548152505081526020019060010190612985565b5050505083612376565b905082805490508110612ac5578282908060018154018082558091505060019003906000526020600020906003020160009091909190915060008201518160000160006101000a81548173ffffffffffffffffffffffffffffffffffffffff021916908373ffffffffffffffffffffffffffffffffffffffff16021790555060208201518160010155604082015181600201555050612c17565b6000600184805490500390505b818110612b9c57838181548110612ae557fe5b9060005260206000209060030201846001830181548110612b0257fe5b90600052602060002090600302016000820160009054906101000a900473ffffffffffffffffffffffffffffffffffffffff168160000160006101000a81548173ffffffffffffffffffffffffffffffffffffffff021916908373ffffffffffffffffffffffffffffffffffffffff1602179055506001820154816001015560028201548160020155905050808060019003915050612ad2565b5081838281548110612baa57fe5b906000526020600020906003020160008201518160000160006101000a81548173ffffffffffffffffffffffffffffffffffffffff021916908373ffffffffffffffffffffffffffffffffffffffff16021790555060208201518160010155604082015181600201559050505b505050565b6040518060600160405280600073ffffffffffffffffffffffffffffffffffffffff16815260200160008152602001600081525090565b6000612c66612c61846134bd565b61348c565b90508083825260208201905082856060860282011115612c8557600080fd5b60005b85811015612cb55781612c9b8882612d28565b845260208401935060608301925050600181019050612c88565b5050509392505050565b600081359050612cce81613587565b92915050565b600082601f830112612ce557600080fd5b8135612cf5848260208601612c53565b91505092915050565b600081359050612d0d8161359e565b92915050565b600081359050612d22816135b5565b92915050565b600060608284031215612d3a57600080fd5b612d44606061348c565b90506000612d5484828501612cbf565b6000830152506020612d6884828501612d88565b6020830152506040612d7c84828501612d88565b60408301525092915050565b600081359050612d97816135c5565b92915050565b600060208284031215612daf57600080fd5b6000612dbd84828501612cbf565b91505092915050565b60008060408385031215612dd957600080fd5b6000612de785828601612cbf565b9250506020612df885828601612cfe565b9150509250929050565b60008060808385031215612e1557600080fd5b600083013567ffffffffffffffff811115612e2f57600080fd5b612e3b85828601612cd4565b9250506020612e4c85828601612d28565b9150509250929050565b600060208284031215612e6857600080fd5b6000612e7684828501612cfe565b91505092915050565b60008060408385031215612e9257600080fd5b6000612ea085828601612cfe565b9250506020612eb185828601612cbf565b9150509250929050565b60008060408385031215612ece57600080fd5b6000612edc85828601612cfe565b9250506020612eed85828601612d13565b9150509250929050565b600080600060608486031215612f0c57600080fd5b6000612f1a86828701612cfe565b9350506020612f2b86828701612d88565b9250506040612f3c86828701612d88565b9150509250925092565b600080600060608486031215612f5b57600080fd5b6000612f6986828701612d13565b9350506020612f7a86828701612cfe565b9250506040612f8b86828701612d88565b9150509250925092565b60008060008060808587031215612fab57600080fd5b6000612fb987828801612d13565b9450506020612fca87828801612cfe565b9350506040612fdb87828801612d88565b9250506060612fec87828801612d88565b91505092959194509250565b6000806000610120848603121561300e57600080fd5b600061301c86828701612d28565b935050606061302d86828701612d28565b92505060c061303e86828701612d28565b9150509250925092565b60006020828403121561305a57600080fd5b600061306884828501612d88565b91505092915050565b6000806040838503121561308457600080fd5b600061309285828601612d88565b92505060206130a385828601612cfe565b9150509250929050565b600080604083850312156130c057600080fd5b60006130ce85828601612d88565b92505060206130df85828601612d88565b9150509250929050565b60006130f58383613281565b60608301905092915050565b61310a81613533565b82525050565b61311981613533565b82525050565b600061312a826134f9565b6131348185613511565b935061313f836134e9565b8060005b8381101561317057815161315788826130e9565b975061316283613504565b925050600181019050613143565b5085935050505092915050565b61318681613545565b82525050565b61319581613551565b82525050565b60006131a8601683613522565b91507f496e7375666669656e74206574682062616c616e6365000000000000000000006000830152602082019050919050565b60006131e8602a83613522565b91507f546865206f7264657220626f6f6b20697320656d70747920666f72207468697360008301527f206f7065726174696f6e000000000000000000000000000000000000000000006020830152604082019050919050565b600061324e601883613522565b91507f496e7375666669656e7420746f6b656e2062616c616e636500000000000000006000830152602082019050919050565b6060820160008201516132976000850182613101565b5060208201516132aa6020850182613305565b5060408201516132bd6040850182613305565b50505050565b6060820160008201516132d96000850182613101565b5060208201516132ec6020850182613305565b5060408201516132ff6040850182613305565b50505050565b61330e8161357b565b82525050565b61331d8161357b565b82525050565b60006020820190506133386000830184613110565b92915050565b60006060820190506133536000830186613110565b6133606020830185613314565b61336d6040830184613314565b949350505050565b6000602082019050818103600083015261338f818461311f565b905092915050565b60006020820190506133ac600083018461317d565b92915050565b60006020820190506133c7600083018461318c565b92915050565b60006040820190506133e2600083018561318c565b6133ef6020830184613110565b9392505050565b6000602082019050818103600083015261340f8161319b565b9050919050565b6000602082019050818103600083015261342f816131db565b9050919050565b6000602082019050818103600083015261344f81613241565b9050919050565b600060608201905061346b60008301846132c3565b92915050565b60006020820190506134866000830184613314565b92915050565b6000604051905081810181811067ffffffffffffffff821117156134b3576134b2613585565b5b8060405250919050565b600067ffffffffffffffff8211156134d8576134d7613585565b5b602082029050602081019050919050565b6000819050602082019050919050565b600081519050919050565b6000602082019050919050565b600082825260208201905092915050565b600082825260208201905092915050565b600061353e8261355b565b9050919050565b60008115159050919050565b6000819050919050565b600073ffffffffffffffffffffffffffffffffffffffff82169050919050565b6000819050919050565bfe5b61359081613533565b811461359b57600080fd5b50565b6135a781613551565b81146135b257600080fd5b50565b600281106135c257600080fd5b50565b6135ce8161357b565b81146135d957600080fd5b5056fe4f776e61626c653a206e6577206f776e657220697320746865207a65726f2061646472657373536166654d6174683a206d756c7469706c69636174696f6e206f766572666c6f77a2646970667358221220273b6ec1efc9ac417a9e5a222fe6076dc5b11bfb93ce58657175429342444fbe64736f6c63430007060033",
  "linkReferences": {},
  "deployedLinkReferences": {}
}