{
  "_format": "hh-sol-artifact-1",
  "contractName": "Dex",
  "sourceName": "contracts/Dex.sol",
  "abi": [
    {
      "anonymous": false,
      "inputs": [
        {
          "indexed": true,
          "internalType": "address",
          "name": "previousOwner",
          "type": "address"
        },
        {
          "indexed": true,
          "internalType": "address",
          "name": "newOwner",
          "type": "address"
        }
      ],
      "name": "OwnershipTransferred",
      "type": "event"
    },
    {
      "inputs": [
        {
          "internalType": "bytes32",
          "name": "ticker",
          "type": "bytes32"
        },
        {
          "internalType": "address",
          "name": "tokenAddress",
          "type": "address"
        }
      ],
      "name": "addToken",
      "outputs": [],
      "stateMutability": "nonpayable",
      "type": "function"
    },
    {
      "inputs": [
        {
          "internalType": "address",
          "name": "",
          "type": "address"
        },
        {
          "internalType": "bytes32",
          "name": "",
          "type": "bytes32"
        }
      ],
      "name": "balances",
      "outputs": [
        {
          "internalType": "uint256",
          "name": "",
          "type": "uint256"
        }
      ],
      "stateMutability": "view",
      "type": "function"
    },
    {
      "inputs": [
        {
          "internalType": "uint256",
          "name": "side",
          "type": "uint256"
        },
        {
          "internalType": "bytes32",
          "name": "ticker",
          "type": "bytes32"
        },
        {
          "internalType": "uint256",
          "name": "amount",
          "type": "uint256"
        }
      ],
      "name": "createBuyMarketOrder",
      "outputs": [],
      "stateMutability": "nonpayable",
      "type": "function"
    },
    {
      "inputs": [
        {
          "internalType": "enum Dex.Side",
          "name": "side",
          "type": "uint8"
        },
        {
          "internalType": "bytes32",
          "name": "ticker",
          "type": "bytes32"
        },
        {
          "internalType": "uint256",
          "name": "amount",
          "type": "uint256"
        },
        {
          "internalType": "uint256",
          "name": "price",
          "type": "uint256"
        }
      ],
      "name": "createLimitOrder",
      "outputs": [],
      "stateMutability": "nonpayable",
      "type": "function"
    },
    {
      "inputs": [
        {
          "internalType": "enum Dex.Side",
          "name": "side",
          "type": "uint8"
        },
        {
          "internalType": "bytes32",
          "name": "ticker",
          "type": "bytes32"
        },
        {
          "internalType": "uint256",
          "name": "amount",
          "type": "uint256"
        }
      ],
      "name": "createMarketOrder",
      "outputs": [],
      "stateMutability": "nonpayable",
      "type": "function"
    },
    {
      "inputs": [
        {
          "internalType": "uint256",
          "name": "side",
          "type": "uint256"
        },
        {
          "internalType": "bytes32",
          "name": "ticker",
          "type": "bytes32"
        },
        {
          "internalType": "uint256",
          "name": "amount",
          "type": "uint256"
        }
      ],
      "name": "createSellMarketOrder",
      "outputs": [],
      "stateMutability": "nonpayable",
      "type": "function"
    },
    {
      "inputs": [
        {
          "internalType": "enum Dex.Side",
          "name": "side",
          "type": "uint8"
        },
        {
          "internalType": "bytes32",
          "name": "ticker",
          "type": "bytes32"
        },
        {
          "internalType": "uint256",
          "name": "amount",
          "type": "uint256"
        },
        {
          "internalType": "uint256",
          "name": "price",
          "type": "uint256"
        }
      ],
      "name": "createSortedLimitOrder",
      "outputs": [],
      "stateMutability": "nonpayable",
      "type": "function"
    },
    {
      "inputs": [
        {
          "internalType": "uint256",
          "name": "amount",
          "type": "uint256"
        },
        {
          "internalType": "bytes32",
          "name": "ticker",
          "type": "bytes32"
        }
      ],
      "name": "deposit",
      "outputs": [],
      "stateMutability": "nonpayable",
      "type": "function"
    },
    {
      "inputs": [],
      "name": "depositEth",
      "outputs": [],
      "stateMutability": "payable",
      "type": "function"
    },
    {
      "inputs": [
        {
          "internalType": "uint256",
          "name": "amount",
          "type": "uint256"
        },
        {
          "internalType": "uint256",
          "name": "price",
          "type": "uint256"
        }
      ],
      "name": "generateNewOrder",
      "outputs": [
        {
          "components": [
            {
              "internalType": "address",
              "name": "trader",
              "type": "address"
            },
            {
              "internalType": "uint256",
              "name": "amount",
              "type": "uint256"
            },
            {
              "internalType": "uint256",
              "name": "price",
              "type": "uint256"
            },
            {
              "internalType": "bool",
              "name": "filled",
              "type": "bool"
            }
          ],
          "internalType": "struct Dex.Order",
          "name": "",
          "type": "tuple"
        }
      ],
      "stateMutability": "view",
      "type": "function"
    },
    {
      "inputs": [],
      "name": "getMyEthBalance",
      "outputs": [
        {
          "internalType": "uint256",
          "name": "",
          "type": "uint256"
        }
      ],
      "stateMutability": "view",
      "type": "function"
    },
    {
      "inputs": [
        {
          "internalType": "bytes32",
          "name": "ticker",
          "type": "bytes32"
        }
      ],
      "name": "getMyTokenBalance",
      "outputs": [
        {
          "internalType": "uint256",
          "name": "",
          "type": "uint256"
        }
      ],
      "stateMutability": "view",
      "type": "function"
    },
    {
      "inputs": [
        {
          "internalType": "bytes32",
          "name": "ticker",
          "type": "bytes32"
        },
        {
          "internalType": "enum Dex.Side",
          "name": "side",
          "type": "uint8"
        }
      ],
      "name": "getOrderBook",
      "outputs": [
        {
          "components": [
            {
              "internalType": "address",
              "name": "trader",
              "type": "address"
            },
            {
              "internalType": "uint256",
              "name": "amount",
              "type": "uint256"
            },
            {
              "internalType": "uint256",
              "name": "price",
              "type": "uint256"
            },
            {
              "internalType": "bool",
              "name": "filled",
              "type": "bool"
            }
          ],
          "internalType": "struct Dex.Order[]",
          "name": "",
          "type": "tuple[]"
        }
      ],
      "stateMutability": "view",
      "type": "function"
    },
    {
      "inputs": [
        {
          "components": [
            {
              "internalType": "address",
              "name": "trader",
              "type": "address"
            },
            {
              "internalType": "uint256",
              "name": "amount",
              "type": "uint256"
            },
            {
              "internalType": "uint256",
              "name": "price",
              "type": "uint256"
            },
            {
              "internalType": "bool",
              "name": "filled",
              "type": "bool"
            }
          ],
          "internalType": "struct Dex.Order[]",
          "name": "orders",
          "type": "tuple[]"
        },
        {
          "components": [
            {
              "internalType": "address",
              "name": "trader",
              "type": "address"
            },
            {
              "internalType": "uint256",
              "name": "amount",
              "type": "uint256"
            },
            {
              "internalType": "uint256",
              "name": "price",
              "type": "uint256"
            },
            {
              "internalType": "bool",
              "name": "filled",
              "type": "bool"
            }
          ],
          "internalType": "struct Dex.Order",
          "name": "newOrder",
          "type": "tuple"
        }
      ],
      "name": "getPositionToPlace",
      "outputs": [
        {
          "internalType": "uint256",
          "name": "",
          "type": "uint256"
        }
      ],
      "stateMutability": "pure",
      "type": "function"
    },
    {
      "inputs": [
        {
          "internalType": "enum Dex.Side",
          "name": "side",
          "type": "uint8"
        },
        {
          "internalType": "bytes32",
          "name": "ticker",
          "type": "bytes32"
        },
        {
          "internalType": "uint256",
          "name": "amount",
          "type": "uint256"
        },
        {
          "internalType": "uint256",
          "name": "price",
          "type": "uint256"
        }
      ],
      "name": "hasSufficientBalanceForLimit",
      "outputs": [],
      "stateMutability": "view",
      "type": "function"
    },
    {
      "inputs": [
        {
          "internalType": "enum Dex.Side",
          "name": "side",
          "type": "uint8"
        },
        {
          "internalType": "bytes32",
          "name": "ticker",
          "type": "bytes32"
        },
        {
          "internalType": "uint256",
          "name": "amount",
          "type": "uint256"
        }
      ],
      "name": "hasSufficientBalanceForMarket",
      "outputs": [],
      "stateMutability": "view",
      "type": "function"
    },
    {
      "inputs": [
        {
          "components": [
            {
              "internalType": "address",
              "name": "trader",
              "type": "address"
            },
            {
              "internalType": "uint256",
              "name": "amount",
              "type": "uint256"
            },
            {
              "internalType": "uint256",
              "name": "price",
              "type": "uint256"
            },
            {
              "internalType": "bool",
              "name": "filled",
              "type": "bool"
            }
          ],
          "internalType": "struct Dex.Order",
          "name": "prevOrder",
          "type": "tuple"
        },
        {
          "components": [
            {
              "internalType": "address",
              "name": "trader",
              "type": "address"
            },
            {
              "internalType": "uint256",
              "name": "amount",
              "type": "uint256"
            },
            {
              "internalType": "uint256",
              "name": "price",
              "type": "uint256"
            },
            {
              "internalType": "bool",
              "name": "filled",
              "type": "bool"
            }
          ],
          "internalType": "struct Dex.Order",
          "name": "newOrder",
          "type": "tuple"
        },
        {
          "components": [
            {
              "internalType": "address",
              "name": "trader",
              "type": "address"
            },
            {
              "internalType": "uint256",
              "name": "amount",
              "type": "uint256"
            },
            {
              "internalType": "uint256",
              "name": "price",
              "type": "uint256"
            },
            {
              "internalType": "bool",
              "name": "filled",
              "type": "bool"
            }
          ],
          "internalType": "struct Dex.Order",
          "name": "nextOrder",
          "type": "tuple"
        }
      ],
      "name": "isMiddlePosition",
      "outputs": [
        {
          "internalType": "bool",
          "name": "",
          "type": "bool"
        }
      ],
      "stateMutability": "pure",
      "type": "function"
    },
    {
      "inputs": [
        {
          "internalType": "enum Dex.Side",
          "name": "side",
          "type": "uint8"
        },
        {
          "internalType": "bytes32",
          "name": "ticker",
          "type": "bytes32"
        },
        {
          "internalType": "uint256",
          "name": "amount",
          "type": "uint256"
        }
      ],
      "name": "isOrderBookEmpty",
      "outputs": [
        {
          "internalType": "bool",
          "name": "",
          "type": "bool"
        }
      ],
      "stateMutability": "view",
      "type": "function"
    },
    {
      "inputs": [
        {
          "internalType": "uint256",
          "name": "side",
          "type": "uint256"
        },
        {
          "internalType": "bytes32",
          "name": "ticker",
          "type": "bytes32"
        },
        {
          "internalType": "uint256",
          "name": "tokenAmount",
          "type": "uint256"
        },
        {
          "internalType": "uint256",
          "name": "price",
          "type": "uint256"
        },
        {
          "internalType": "address",
          "name": "seller",
          "type": "address"
        },
        {
          "internalType": "address",
          "name": "buyer",
          "type": "address"
        }
      ],
      "name": "makeTheTransfer",
      "outputs": [],
      "stateMutability": "nonpayable",
      "type": "function"
    },
    {
      "inputs": [
        {
          "internalType": "bytes32",
          "name": "",
          "type": "bytes32"
        },
        {
          "internalType": "uint256",
          "name": "",
          "type": "uint256"
        },
        {
          "internalType": "uint256",
          "name": "",
          "type": "uint256"
        }
      ],
      "name": "orderBook",
      "outputs": [
        {
          "internalType": "address",
          "name": "trader",
          "type": "address"
        },
        {
          "internalType": "uint256",
          "name": "amount",
          "type": "uint256"
        },
        {
          "internalType": "uint256",
          "name": "price",
          "type": "uint256"
        },
        {
          "internalType": "bool",
          "name": "filled",
          "type": "bool"
        }
      ],
      "stateMutability": "view",
      "type": "function"
    },
    {
      "inputs": [],
      "name": "owner",
      "outputs": [
        {
          "internalType": "address",
          "name": "",
          "type": "address"
        }
      ],
      "stateMutability": "view",
      "type": "function"
    },
    {
      "inputs": [],
      "name": "renounceOwnership",
      "outputs": [],
      "stateMutability": "nonpayable",
      "type": "function"
    },
    {
      "inputs": [
        {
          "internalType": "bytes32",
          "name": "ticker",
          "type": "bytes32"
        },
        {
          "internalType": "enum Dex.Side",
          "name": "side",
          "type": "uint8"
        }
      ],
      "name": "resetOrderBook",
      "outputs": [
        {
          "components": [
            {
              "internalType": "address",
              "name": "trader",
              "type": "address"
            },
            {
              "internalType": "uint256",
              "name": "amount",
              "type": "uint256"
            },
            {
              "internalType": "uint256",
              "name": "price",
              "type": "uint256"
            },
            {
              "internalType": "bool",
              "name": "filled",
              "type": "bool"
            }
          ],
          "internalType": "struct Dex.Order[]",
          "name": "",
          "type": "tuple[]"
        }
      ],
      "stateMutability": "view",
      "type": "function"
    },
    {
      "inputs": [
        {
          "internalType": "uint256",
          "name": "",
          "type": "uint256"
        }
      ],
      "name": "tokenList",
      "outputs": [
        {
          "internalType": "bytes32",
          "name": "",
          "type": "bytes32"
        }
      ],
      "stateMutability": "view",
      "type": "function"
    },
    {
      "inputs": [
        {
          "internalType": "bytes32",
          "name": "",
          "type": "bytes32"
        }
      ],
      "name": "tokenMapping",
      "outputs": [
        {
          "internalType": "bytes32",
          "name": "ticker",
          "type": "bytes32"
        },
        {
          "internalType": "address",
          "name": "tokenAddress",
          "type": "address"
        }
      ],
      "stateMutability": "view",
      "type": "function"
    },
    {
      "inputs": [
        {
          "internalType": "address",
          "name": "newOwner",
          "type": "address"
        }
      ],
      "name": "transferOwnership",
      "outputs": [],
      "stateMutability": "nonpayable",
      "type": "function"
    },
    {
      "inputs": [
        {
          "internalType": "uint256",
          "name": "amount",
          "type": "uint256"
        },
        {
          "internalType": "bytes32",
          "name": "ticker",
          "type": "bytes32"
        }
      ],
      "name": "withdraw",
      "outputs": [],
      "stateMutability": "nonpayable",
      "type": "function"
    },
    {
      "inputs": [
        {
          "internalType": "uint256",
          "name": "amount",
          "type": "uint256"
        }
      ],
      "name": "withdrawEth",
      "outputs": [],
      "stateMutability": "nonpayable",
      "type": "function"
    }
  ],
  "bytecode": "0x60806040523480156200001157600080fd5b50600062000024620000c860201b60201c565b9050806000806101000a81548173ffffffffffffffffffffffffffffffffffffffff021916908373ffffffffffffffffffffffffffffffffffffffff1602179055508073ffffffffffffffffffffffffffffffffffffffff16600073ffffffffffffffffffffffffffffffffffffffff167f8be0079c531659141344cd1fd0a4f28419497f9722a3daafe3b4186f6b6457e060405160405180910390a350620000d0565b600033905090565b61428580620000e06000396000f3fe6080604052600436106101b75760003560e01c80638da5cb5b116100ec578063bae450f91161008a578063e58c1a8b11610064578063e58c1a8b14610633578063f1b928f314610670578063f2fde38b14610699578063f7010282146106c2576101b7565b8063bae450f9146105b8578063c311d049146105e1578063c9630cb01461060a576101b7565b80639ead7222116100c65780639ead7222146104d8578063a4bc3dc514610515578063a8d2021a14610552578063ba58ea681461057b576101b7565b80638da5cb5b1461045b5780639776aacf1461048657806399ec2f1c146104af576101b7565b8063439370b1116101595780636c83d33f116101335780636c83d33f146103b55780636f3b62f9146103de578063715018a6146104075780638c9f91961461041e576101b7565b8063439370b1146103305780636147cd0b1461033a578063667cb4ba14610377576101b7565b80631f14df69116101955780631f14df6914610264578063296bd3a1146102a15780633b9a805d146102ca578063400843cf146102f3576101b7565b80630709dec8146101bc5780630bb431b6146101e75780631ea6042714610227575b600080fd5b3480156101c857600080fd5b506101d16106eb565b6040516101de9190614086565b60405180910390f35b3480156101f357600080fd5b5061020e60048036038101906102099190613a76565b610763565b60405161021e9493929190613f65565b60405180910390f35b34801561023357600080fd5b5061024e60048036038101906102499190613d05565b6107ea565b60405161025b919061406b565b60405180910390f35b34801561027057600080fd5b5061028b60048036038101906102869190613945565b610834565b6040516102989190614086565b60405180910390f35b3480156102ad57600080fd5b506102c860048036038101906102c39190613b14565b610859565b005b3480156102d657600080fd5b506102f160048036038101906102ec9190613c2d565b6109dc565b005b3480156102ff57600080fd5b5061031a60048036038101906103159190613b77565b610f19565b6040516103279190613fcc565b60405180910390f35b610338610f44565b005b34801561034657600080fd5b50610361600480360381019061035c91906139d5565b61103d565b60405161036e9190614086565b60405180910390f35b34801561038357600080fd5b5061039e600480360381019061039991906139d5565b611097565b6040516103ac929190614002565b60405180910390f35b3480156103c157600080fd5b506103dc60048036038101906103d79190613c7c565b6110db565b005b3480156103ea57600080fd5b5061040560048036038101906104009190613b14565b611463565b005b34801561041357600080fd5b5061041c611769565b005b34801561042a57600080fd5b5061044560048036038101906104409190613a3a565b6118d6565b6040516104529190613faa565b60405180910390f35b34801561046757600080fd5b506104706119ea565b60405161047d9190613f4a565b60405180910390f35b34801561049257600080fd5b506104ad60048036038101906104a891906139fe565b611a13565b005b3480156104bb57600080fd5b506104d660048036038101906104d19190613ac5565b611b81565b005b3480156104e457600080fd5b506104ff60048036038101906104fa9190613bc8565b611bf4565b60405161050c9190613fe7565b60405180910390f35b34801561052157600080fd5b5061053c60048036038101906105379190613981565b611c18565b6040516105499190614086565b60405180910390f35b34801561055e57600080fd5b5061057960048036038101906105749190613bf1565b611ce8565b005b34801561058757600080fd5b506105a2600480360381019061059d9190613a3a565b612027565b6040516105af9190613faa565b60405180910390f35b3480156105c457600080fd5b506105df60048036038101906105da9190613ac5565b61213b565b005b3480156105ed57600080fd5b5061060860048036038101906106039190613bc8565b6122ac565b005b34801561061657600080fd5b50610631600480360381019061062c9190613bf1565b6124f9565b005b34801561063f57600080fd5b5061065a60048036038101906106559190613ac5565b612790565b6040516106679190613fcc565b60405180910390f35b34801561067c57600080fd5b5061069760048036038101906106929190613b14565b61282d565b005b3480156106a557600080fd5b506106c060048036038101906106bb919061391c565b6128b0565b005b3480156106ce57600080fd5b506106e960048036038101906106e49190613c2d565b612aa2565b005b6000600360003373ffffffffffffffffffffffffffffffffffffffff1673ffffffffffffffffffffffffffffffffffffffff16815260200190815260200160002060007f4554480000000000000000000000000000000000000000000000000000000000815260200190815260200160002054905090565b6004602052826000526040600020602052816000526040600020818154811061078b57600080fd5b906000526020600020906004020160009250925050508060000160009054906101000a900473ffffffffffffffffffffffffffffffffffffffff16908060010154908060020154908060030160009054906101000a900460ff16905084565b6107f2613769565b60405180608001604052803373ffffffffffffffffffffffffffffffffffffffff16815260200184815260200183815260200160001515815250905092915050565b6003602052816000526040600020602052806000526040600020600091509150505481565b6000600181111561086657fe5b84600181111561087257fe5b14156109425761088b8183612fdf90919063ffffffff16565b600360003373ffffffffffffffffffffffffffffffffffffffff1673ffffffffffffffffffffffffffffffffffffffff16815260200190815260200160002060007f4554480000000000000000000000000000000000000000000000000000000000815260200190815260200160002054101561093d576040517f08c379a00000000000000000000000000000000000000000000000000000000081526004016109349061402b565b60405180910390fd5b6109d6565b81600360003373ffffffffffffffffffffffffffffffffffffffff1673ffffffffffffffffffffffffffffffffffffffff16815260200190815260200160002060008581526020019081526020016000205410156109d5576040517f08c379a00000000000000000000000000000000000000000000000000000000081526004016109cc9061404b565b60405180910390fd5b5b50505050565b600081905060008060005b6004600087815260200190815260200160002060008881526020019081526020016000208054905081108015610a1d5750600084115b8015610a27575082155b15610eff5760006004600088815260200190815260200160002060008981526020019081526020016000208281548110610a5d57fe5b906000526020600020906004020160000160009054906101000a900473ffffffffffffffffffffffffffffffffffffffff1690506004600088815260200190815260200160002060008981526020019081526020016000208281548110610ac057fe5b906000526020600020906004020160010154851015610c97576000610b2e600460008a815260200190815260200160002060008b81526020019081526020016000208481548110610b0d57fe5b90600052602060002090600402016002015487612fdf90919063ffffffff16565b905080600360008473ffffffffffffffffffffffffffffffffffffffff1673ffffffffffffffffffffffffffffffffffffffff16815260200190815260200160002060007f455448000000000000000000000000000000000000000000000000000000000081526020019081526020016000205410610c8d57610bfa86600460008b815260200190815260200160002060008c81526020019081526020016000208581548110610bda57fe5b90600052602060002090600402016001015461306590919063ffffffff16565b600460008a815260200190815260200160002060008b81526020019081526020016000208481548110610c2957fe5b906000526020600020906004020160010181905550610c8c898988600460008d815260200190815260200160002060008e81526020019081526020016000208781548110610c7357fe5b90600052602060002090600402016002015433876110db565b5b6001945050610ef1565b6000610d2c600460008a815260200190815260200160002060008b81526020019081526020016000208481548110610ccb57fe5b906000526020600020906004020160020154600460008b815260200190815260200160002060008c81526020019081526020016000208581548110610d0c57fe5b906000526020600020906004020160010154612fdf90919063ffffffff16565b905080600360008473ffffffffffffffffffffffffffffffffffffffff1673ffffffffffffffffffffffffffffffffffffffff16815260200190815260200160002060007f455448000000000000000000000000000000000000000000000000000000000081526020019081526020016000205410610eea57610e338989600460008c815260200190815260200160002060008d81526020019081526020016000208681548110610dd957fe5b906000526020600020906004020160010154600460008d815260200190815260200160002060008e81526020019081526020016000208781548110610e1a57fe5b90600052602060002090600402016002015433876110db565b610e86600460008a815260200190815260200160002060008b81526020019081526020016000208481548110610e6557fe5b9060005260206000209060040201600101548761306590919063ffffffff16565b95506001600460008a815260200190815260200160002060008b81526020019081526020016000208481548110610eb957fe5b906000526020600020906004020160030160006101000a81548160ff02191690831515021790555060019350610eef565b600194505b505b5080806001019150506109e7565b508015610f1157610f1085876130e8565b5b505050505050565b60008260400151846040015110158015610f3b57508160400151836040015110155b90509392505050565b610fc734600360003373ffffffffffffffffffffffffffffffffffffffff1673ffffffffffffffffffffffffffffffffffffffff16815260200190815260200160002060007f455448000000000000000000000000000000000000000000000000000000000081526020019081526020016000205461339490919063ffffffff16565b600360003373ffffffffffffffffffffffffffffffffffffffff1673ffffffffffffffffffffffffffffffffffffffff16815260200190815260200160002060007f4554480000000000000000000000000000000000000000000000000000000000815260200190815260200160002081905550565b6000600360003373ffffffffffffffffffffffffffffffffffffffff1673ffffffffffffffffffffffffffffffffffffffff1681526020019081526020016000206000838152602001908152602001600020549050919050565b60016020528060005260406000206000915090508060000154908060010160009054906101000a900473ffffffffffffffffffffffffffffffffffffffff16905082565b61113e84600360008573ffffffffffffffffffffffffffffffffffffffff1673ffffffffffffffffffffffffffffffffffffffff16815260200190815260200160002060008881526020019081526020016000205461306590919063ffffffff16565b600360008473ffffffffffffffffffffffffffffffffffffffff1673ffffffffffffffffffffffffffffffffffffffff1681526020019081526020016000206000878152602001908152602001600020819055506112276111a88486612fdf90919063ffffffff16565b600360008573ffffffffffffffffffffffffffffffffffffffff1673ffffffffffffffffffffffffffffffffffffffff16815260200190815260200160002060007f455448000000000000000000000000000000000000000000000000000000000081526020019081526020016000205461339490919063ffffffff16565b600360008473ffffffffffffffffffffffffffffffffffffffff1673ffffffffffffffffffffffffffffffffffffffff16815260200190815260200160002060007f45544800000000000000000000000000000000000000000000000000000000008152602001908152602001600020819055506112fe84600360008473ffffffffffffffffffffffffffffffffffffffff1673ffffffffffffffffffffffffffffffffffffffff16815260200190815260200160002060008881526020019081526020016000205461339490919063ffffffff16565b600360008373ffffffffffffffffffffffffffffffffffffffff1673ffffffffffffffffffffffffffffffffffffffff1681526020019081526020016000206000878152602001908152602001600020819055506113e76113688486612fdf90919063ffffffff16565b600360008473ffffffffffffffffffffffffffffffffffffffff1673ffffffffffffffffffffffffffffffffffffffff16815260200190815260200160002060007f455448000000000000000000000000000000000000000000000000000000000081526020019081526020016000205461306590919063ffffffff16565b600360008373ffffffffffffffffffffffffffffffffffffffff1673ffffffffffffffffffffffffffffffffffffffff16815260200190815260200160002060007f4554480000000000000000000000000000000000000000000000000000000000815260200190815260200160002081905550505050505050565b61146f84848484610859565b6000600181111561147c57fe5b84600181111561148857fe5b141561159c576115236114a48284612fdf90919063ffffffff16565b600360003373ffffffffffffffffffffffffffffffffffffffff1673ffffffffffffffffffffffffffffffffffffffff16815260200190815260200160002060007f455448000000000000000000000000000000000000000000000000000000000081526020019081526020016000205461306590919063ffffffff16565b600360003373ffffffffffffffffffffffffffffffffffffffff1673ffffffffffffffffffffffffffffffffffffffff16815260200190815260200160002060007f4554480000000000000000000000000000000000000000000000000000000000815260200190815260200160002081905550611654565b6115ff82600360003373ffffffffffffffffffffffffffffffffffffffff1673ffffffffffffffffffffffffffffffffffffffff16815260200190815260200160002060008681526020019081526020016000205461306590919063ffffffff16565b600360003373ffffffffffffffffffffffffffffffffffffffff1673ffffffffffffffffffffffffffffffffffffffff1681526020019081526020016000206000858152602001908152602001600020819055505b60046000848152602001908152602001600020600085600181111561167557fe5b815260200190815260200160002060405180608001604052803373ffffffffffffffffffffffffffffffffffffffff16815260200184815260200183815260200160001515815250908060018154018082558091505060019003906000526020600020906004020160009091909190915060008201518160000160006101000a81548173ffffffffffffffffffffffffffffffffffffffff021916908373ffffffffffffffffffffffffffffffffffffffff160217905550602082015181600101556040820151816002015560608201518160030160006101000a81548160ff021916908315150217905550505050505050565b61177161341c565b73ffffffffffffffffffffffffffffffffffffffff1661178f6119ea565b73ffffffffffffffffffffffffffffffffffffffff1614611818576040517f08c379a00000000000000000000000000000000000000000000000000000000081526004018080602001828103825260208152602001807f4f776e61626c653a2063616c6c6572206973206e6f7420746865206f776e657281525060200191505060405180910390fd5b600073ffffffffffffffffffffffffffffffffffffffff1660008054906101000a900473ffffffffffffffffffffffffffffffffffffffff1673ffffffffffffffffffffffffffffffffffffffff167f8be0079c531659141344cd1fd0a4f28419497f9722a3daafe3b4186f6b6457e060405160405180910390a360008060006101000a81548173ffffffffffffffffffffffffffffffffffffffff021916908373ffffffffffffffffffffffffffffffffffffffff160217905550565b60606004600084815260200190815260200160002060008360018111156118f957fe5b8152602001908152602001600020805480602002602001604051908101604052809291908181526020016000905b828210156119de57838290600052602060002090600402016040518060800160405290816000820160009054906101000a900473ffffffffffffffffffffffffffffffffffffffff1673ffffffffffffffffffffffffffffffffffffffff1673ffffffffffffffffffffffffffffffffffffffff16815260200160018201548152602001600282015481526020016003820160009054906101000a900460ff16151515158152505081526020019060010190611927565b50505050905092915050565b60008060009054906101000a900473ffffffffffffffffffffffffffffffffffffffff16905090565b611a1b61341c565b73ffffffffffffffffffffffffffffffffffffffff16611a396119ea565b73ffffffffffffffffffffffffffffffffffffffff1614611ac2576040517f08c379a00000000000000000000000000000000000000000000000000000000081526004018080602001828103825260208152602001807f4f776e61626c653a2063616c6c6572206973206e6f7420746865206f776e657281525060200191505060405180910390fd5b60405180604001604052808381526020018273ffffffffffffffffffffffffffffffffffffffff16815250600160008481526020019081526020016000206000820151816000015560208201518160010160006101000a81548173ffffffffffffffffffffffffffffffffffffffff021916908373ffffffffffffffffffffffffffffffffffffffff16021790555090505060028290806001815401808255809150506001900390600052602060002001600090919091909150555050565b611b8c838383612790565b15611bef57611b9c83838361213b565b60006001811115611ba957fe5b836001811115611bb557fe5b1415611bd657611bd1600180811115611bca57fe5b8383612aa2565b611bee565b611bed60006001811115611be657fe5b83836109dc565b5b5b505050565b60028181548110611c0457600080fd5b906000526020600020016000915090505481565b60008083511415611c2c5760009050611ce2565b600183511415611c6c57816040015183600081518110611c4857fe5b6020026020010151604001511115611c635760019050611ce2565b60009050611ce2565b60005b8351811015611ce0576001845103811415611c8e578351915050611ce2565b611cc2848281518110611c9d57fe5b602002602001015184866001850181518110611cb557fe5b6020026020010151610f19565b15611cd35760018101915050611ce2565b8080600101915050611c6f565b505b92915050565b80600073ffffffffffffffffffffffffffffffffffffffff166001600083815260200190815260200160002060010160009054906101000a900473ffffffffffffffffffffffffffffffffffffffff1673ffffffffffffffffffffffffffffffffffffffff161415611dc2576040517f08c379a00000000000000000000000000000000000000000000000000000000081526004018080602001828103825260148152602001807f746f6b656e20646f6573206e6f7420657869737400000000000000000000000081525060200191505060405180910390fd5b82600360003373ffffffffffffffffffffffffffffffffffffffff1673ffffffffffffffffffffffffffffffffffffffff1681526020019081526020016000206000848152602001908152602001600020541015611e88576040517f08c379a00000000000000000000000000000000000000000000000000000000081526004018080602001828103825260128152602001807f496e7375666669656e742062616c616e6365000000000000000000000000000081525060200191505060405180910390fd5b611eeb83600360003373ffffffffffffffffffffffffffffffffffffffff1673ffffffffffffffffffffffffffffffffffffffff16815260200190815260200160002060008581526020019081526020016000205461306590919063ffffffff16565b600360003373ffffffffffffffffffffffffffffffffffffffff1673ffffffffffffffffffffffffffffffffffffffff1681526020019081526020016000206000848152602001908152602001600020819055506001600083815260200190815260200160002060010160009054906101000a900473ffffffffffffffffffffffffffffffffffffffff1673ffffffffffffffffffffffffffffffffffffffff1663a9059cbb33856040518363ffffffff1660e01b8152600401808373ffffffffffffffffffffffffffffffffffffffff16815260200182815260200192505050602060405180830381600087803b158015611fe657600080fd5b505af1158015611ffa573d6000803e3d6000fd5b505050506040513d602081101561201057600080fd5b810190808051906020019092919050505050505050565b606060046000848152602001908152602001600020600083600181111561204a57fe5b8152602001908152602001600020805480602002602001604051908101604052809291908181526020016000905b8282101561212f57838290600052602060002090600402016040518060800160405290816000820160009054906101000a900473ffffffffffffffffffffffffffffffffffffffff1673ffffffffffffffffffffffffffffffffffffffff1673ffffffffffffffffffffffffffffffffffffffff16815260200160018201548152602001600282015481526020016003820160009054906101000a900460ff16151515158152505081526020019060010190612078565b50505050905092915050565b6000600181111561214857fe5b83600181111561215457fe5b1415612212576000600360003373ffffffffffffffffffffffffffffffffffffffff1673ffffffffffffffffffffffffffffffffffffffff16815260200190815260200160002060007f45544800000000000000000000000000000000000000000000000000000000008152602001908152602001600020541161220d576040517f08c379a00000000000000000000000000000000000000000000000000000000081526004016122049061402b565b60405180910390fd5b6122a7565b6001600360003373ffffffffffffffffffffffffffffffffffffffff1673ffffffffffffffffffffffffffffffffffffffff16815260200190815260200160002060008481526020019081526020016000205410156122a6576040517f08c379a000000000000000000000000000000000000000000000000000000000815260040161229d9061404b565b60405180910390fd5b5b505050565b80600360003373ffffffffffffffffffffffffffffffffffffffff1673ffffffffffffffffffffffffffffffffffffffff16815260200190815260200160002060007f45544800000000000000000000000000000000000000000000000000000000008152602001908152602001600020541015612392576040517f08c379a00000000000000000000000000000000000000000000000000000000081526004018080602001828103825260128152602001807f496e7375666669656e742062616c616e6365000000000000000000000000000081525060200191505060405180910390fd5b61241581600360003373ffffffffffffffffffffffffffffffffffffffff1673ffffffffffffffffffffffffffffffffffffffff16815260200190815260200160002060007f455448000000000000000000000000000000000000000000000000000000000081526020019081526020016000205461306590919063ffffffff16565b600360003373ffffffffffffffffffffffffffffffffffffffff1673ffffffffffffffffffffffffffffffffffffffff16815260200190815260200160002060007f45544800000000000000000000000000000000000000000000000000000000008152602001908152602001600020819055506000803373ffffffffffffffffffffffffffffffffffffffff168360405180600001905060006040518083038185875af1925050503d80600081146124ea576040519150601f19603f3d011682016040523d82523d6000602084013e6124ef565b606091505b5091509150505050565b80600073ffffffffffffffffffffffffffffffffffffffff166001600083815260200190815260200160002060010160009054906101000a900473ffffffffffffffffffffffffffffffffffffffff1673ffffffffffffffffffffffffffffffffffffffff1614156125d3576040517f08c379a00000000000000000000000000000000000000000000000000000000081526004018080602001828103825260148152602001807f746f6b656e20646f6573206e6f7420657869737400000000000000000000000081525060200191505060405180910390fd5b6001600083815260200190815260200160002060010160009054906101000a900473ffffffffffffffffffffffffffffffffffffffff1673ffffffffffffffffffffffffffffffffffffffff166323b872dd3330866040518463ffffffff1660e01b8152600401808473ffffffffffffffffffffffffffffffffffffffff1681526020018373ffffffffffffffffffffffffffffffffffffffff1681526020018281526020019350505050602060405180830381600087803b15801561269857600080fd5b505af11580156126ac573d6000803e3d6000fd5b505050506040513d60208110156126c257600080fd5b81019080805190602001909291905050505061273783600360003373ffffffffffffffffffffffffffffffffffffffff1673ffffffffffffffffffffffffffffffffffffffff16815260200190815260200160002060008581526020019081526020016000205461339490919063ffffffff16565b600360003373ffffffffffffffffffffffffffffffffffffffff1673ffffffffffffffffffffffffffffffffffffffff168152602001908152602001600020600084815260200190815260200160002081905550505050565b600080600181111561279e57fe5b8460018111156127aa57fe5b14156127ed5760006004600085815260200190815260200160002060006001808111156127d357fe5b815260200190815260200160002080549050119050612826565b600060046000858152602001908152602001600020600080600181111561281057fe5b8152602001908152602001600020805490501190505b9392505050565b61283984848484610859565b6128aa60046000858152602001908152602001600020600086600181111561285d57fe5b815260200190815260200160002060405180608001604052803373ffffffffffffffffffffffffffffffffffffffff16815260200185815260200184815260200160001515815250613424565b50505050565b6128b861341c565b73ffffffffffffffffffffffffffffffffffffffff166128d66119ea565b73ffffffffffffffffffffffffffffffffffffffff161461295f576040517f08c379a00000000000000000000000000000000000000000000000000000000081526004018080602001828103825260208152602001807f4f776e61626c653a2063616c6c6572206973206e6f7420746865206f776e657281525060200191505060405180910390fd5b600073ffffffffffffffffffffffffffffffffffffffff168173ffffffffffffffffffffffffffffffffffffffff1614156129e5576040517f08c379a00000000000000000000000000000000000000000000000000000000081526004018080602001828103825260268152602001806142096026913960400191505060405180910390fd5b8073ffffffffffffffffffffffffffffffffffffffff1660008054906101000a900473ffffffffffffffffffffffffffffffffffffffff1673ffffffffffffffffffffffffffffffffffffffff167f8be0079c531659141344cd1fd0a4f28419497f9722a3daafe3b4186f6b6457e060405160405180910390a3806000806101000a81548173ffffffffffffffffffffffffffffffffffffffff021916908373ffffffffffffffffffffffffffffffffffffffff16021790555050565b600081905060008060005b6004600087815260200190815260200160002060008881526020019081526020016000208054905081108015612ae35750600084115b8015612aed575082155b15612fc55760006004600088815260200190815260200160002060008981526020019081526020016000208281548110612b2357fe5b906000526020600020906004020160000160009054906101000a900473ffffffffffffffffffffffffffffffffffffffff1690506004600088815260200190815260200160002060008981526020019081526020016000208281548110612b8657fe5b906000526020600020906004020160010154851015612d5d576000612bf4600460008a815260200190815260200160002060008b81526020019081526020016000208481548110612bd357fe5b90600052602060002090600402016002015487612fdf90919063ffffffff16565b905080600360008473ffffffffffffffffffffffffffffffffffffffff1673ffffffffffffffffffffffffffffffffffffffff16815260200190815260200160002060007f455448000000000000000000000000000000000000000000000000000000000081526020019081526020016000205410612d5357612cc086600460008b815260200190815260200160002060008c81526020019081526020016000208581548110612ca057fe5b90600052602060002090600402016001015461306590919063ffffffff16565b600460008a815260200190815260200160002060008b81526020019081526020016000208481548110612cef57fe5b906000526020600020906004020160010181905550612d52898988600460008d815260200190815260200160002060008e81526020019081526020016000208781548110612d3957fe5b90600052602060002090600402016002015486336110db565b5b6001945050612fb7565b6000612df2600460008a815260200190815260200160002060008b81526020019081526020016000208481548110612d9157fe5b906000526020600020906004020160020154600460008b815260200190815260200160002060008c81526020019081526020016000208581548110612dd257fe5b906000526020600020906004020160010154612fdf90919063ffffffff16565b905080600360008473ffffffffffffffffffffffffffffffffffffffff1673ffffffffffffffffffffffffffffffffffffffff16815260200190815260200160002060007f455448000000000000000000000000000000000000000000000000000000000081526020019081526020016000205410612fb057612ef98989600460008c815260200190815260200160002060008d81526020019081526020016000208681548110612e9f57fe5b906000526020600020906004020160010154600460008d815260200190815260200160002060008e81526020019081526020016000208781548110612ee057fe5b90600052602060002090600402016002015486336110db565b612f4c600460008a815260200190815260200160002060008b81526020019081526020016000208481548110612f2b57fe5b9060005260206000209060040201600101548761306590919063ffffffff16565b95506001600460008a815260200190815260200160002060008b81526020019081526020016000208481548110612f7f57fe5b906000526020600020906004020160030160006101000a81548160ff02191690831515021790555060019350612fb5565b600194505b505b508080600101915050612aad565b508015612fd757612fd685876130e8565b5b505050505050565b600080831415612ff2576000905061305f565b600082840290508284828161300357fe5b041461305a576040517f08c379a000000000000000000000000000000000000000000000000000000000815260040180806020018281038252602181526020018061422f6021913960400191505060405180910390fd5b809150505b92915050565b6000828211156130dd576040517f08c379a000000000000000000000000000000000000000000000000000000000815260040180806020018281038252601e8152602001807f536166654d6174683a207375627472616374696f6e206f766572666c6f77000081525060200191505060405180910390fd5b818303905092915050565b6000600460008481526020019081526020016000206000838152602001908152602001600020805490501161311c57600080fd5b60005b6004600084815260200190815260200160002060008381526020019081526020016000208054905081101561338f57600460008481526020019081526020016000206000838152602001908152602001600020818154811061317d57fe5b906000526020600020906004020160030160009054906101000a900460ff16156133825760046000848152602001908152602001600020600083815260200190815260200160002060016004600086815260200190815260200160002060008581526020019081526020016000208054905003815481106131fa57fe5b9060005260206000209060040201600460008581526020019081526020016000206000848152602001908152602001600020828154811061323757fe5b90600052602060002090600402016000820160009054906101000a900473ffffffffffffffffffffffffffffffffffffffff168160000160006101000a81548173ffffffffffffffffffffffffffffffffffffffff021916908373ffffffffffffffffffffffffffffffffffffffff16021790555060018201548160010155600282015481600201556003820160009054906101000a900460ff168160030160006101000a81548160ff02191690831515021790555090505060046000848152602001908152602001600020600083815260200190815260200160002080548061331d57fe5b6001900381819060005260206000209060040201600080820160006101000a81549073ffffffffffffffffffffffffffffffffffffffff0219169055600182016000905560028201600090556003820160006101000a81549060ff0219169055505090555b808060010191505061311f565b505050565b600080828401905083811015613412576040517f08c379a000000000000000000000000000000000000000000000000000000000815260040180806020018281038252601b8152602001807f536166654d6174683a206164646974696f6e206f766572666c6f77000000000081525060200191505060405180910390fd5b8091505092915050565b600033905090565b600061350b83805480602002602001604051908101604052809291908181526020016000905b8282101561350157838290600052602060002090600402016040518060800160405290816000820160009054906101000a900473ffffffffffffffffffffffffffffffffffffffff1673ffffffffffffffffffffffffffffffffffffffff1673ffffffffffffffffffffffffffffffffffffffff16815260200160018201548152602001600282015481526020016003820160009054906101000a900460ff1615151515815250508152602001906001019061344a565b5050505083611c18565b9050828054905081106135c5578282908060018154018082558091505060019003906000526020600020906004020160009091909190915060008201518160000160006101000a81548173ffffffffffffffffffffffffffffffffffffffff021916908373ffffffffffffffffffffffffffffffffffffffff160217905550602082015181600101556040820151816002015560608201518160030160006101000a81548160ff0219169083151502179055505050613764565b6000600184805490500390505b8181106136c9578381815481106135e557fe5b906000526020600020906004020184600183018154811061360257fe5b90600052602060002090600402016000820160009054906101000a900473ffffffffffffffffffffffffffffffffffffffff168160000160006101000a81548173ffffffffffffffffffffffffffffffffffffffff021916908373ffffffffffffffffffffffffffffffffffffffff16021790555060018201548160010155600282015481600201556003820160009054906101000a900460ff168160030160006101000a81548160ff0219169083151502179055509050508080600190039150506135d2565b50818382815481106136d757fe5b906000526020600020906004020160008201518160000160006101000a81548173ffffffffffffffffffffffffffffffffffffffff021916908373ffffffffffffffffffffffffffffffffffffffff160217905550602082015181600101556040820151816002015560608201518160030160006101000a81548160ff0219169083151502179055509050505b505050565b6040518060800160405280600073ffffffffffffffffffffffffffffffffffffffff16815260200160008152602001600081526020016000151581525090565b60006137bc6137b7846140d2565b6140a1565b905080838252602082019050828560808602820111156137db57600080fd5b60005b8581101561380b57816137f18882613893565b8452602084019350608083019250506001810190506137de565b5050509392505050565b6000813590506138248161419c565b92915050565b600082601f83011261383b57600080fd5b813561384b8482602086016137a9565b91505092915050565b600081359050613863816141b3565b92915050565b600081359050613878816141ca565b92915050565b60008135905061388d816141e1565b92915050565b6000608082840312156138a557600080fd5b6138af60806140a1565b905060006138bf84828501613815565b60008301525060206138d384828501613907565b60208301525060406138e784828501613907565b60408301525060606138fb84828501613854565b60608301525092915050565b600081359050613916816141f1565b92915050565b60006020828403121561392e57600080fd5b600061393c84828501613815565b91505092915050565b6000806040838503121561395857600080fd5b600061396685828601613815565b925050602061397785828601613869565b9150509250929050565b60008060a0838503121561399457600080fd5b600083013567ffffffffffffffff8111156139ae57600080fd5b6139ba8582860161382a565b92505060206139cb85828601613893565b9150509250929050565b6000602082840312156139e757600080fd5b60006139f584828501613869565b91505092915050565b60008060408385031215613a1157600080fd5b6000613a1f85828601613869565b9250506020613a3085828601613815565b9150509250929050565b60008060408385031215613a4d57600080fd5b6000613a5b85828601613869565b9250506020613a6c8582860161387e565b9150509250929050565b600080600060608486031215613a8b57600080fd5b6000613a9986828701613869565b9350506020613aaa86828701613907565b9250506040613abb86828701613907565b9150509250925092565b600080600060608486031215613ada57600080fd5b6000613ae88682870161387e565b9350506020613af986828701613869565b9250506040613b0a86828701613907565b9150509250925092565b60008060008060808587031215613b2a57600080fd5b6000613b388782880161387e565b9450506020613b4987828801613869565b9350506040613b5a87828801613907565b9250506060613b6b87828801613907565b91505092959194509250565b60008060006101808486031215613b8d57600080fd5b6000613b9b86828701613893565b9350506080613bac86828701613893565b925050610100613bbe86828701613893565b9150509250925092565b600060208284031215613bda57600080fd5b6000613be884828501613907565b91505092915050565b60008060408385031215613c0457600080fd5b6000613c1285828601613907565b9250506020613c2385828601613869565b9150509250929050565b600080600060608486031215613c4257600080fd5b6000613c5086828701613907565b9350506020613c6186828701613869565b9250506040613c7286828701613907565b9150509250925092565b60008060008060008060c08789031215613c9557600080fd5b6000613ca389828a01613907565b9650506020613cb489828a01613869565b9550506040613cc589828a01613907565b9450506060613cd689828a01613907565b9350506080613ce789828a01613815565b92505060a0613cf889828a01613815565b9150509295509295509295565b60008060408385031215613d1857600080fd5b6000613d2685828601613907565b9250506020613d3785828601613907565b9150509250929050565b6000613d4d8383613e82565b60808301905092915050565b613d6281614148565b82525050565b613d7181614148565b82525050565b6000613d828261410e565b613d8c8185614126565b9350613d97836140fe565b8060005b83811015613dc8578151613daf8882613d41565b9750613dba83614119565b925050600181019050613d9b565b5085935050505092915050565b613dde8161415a565b82525050565b613ded8161415a565b82525050565b613dfc81614166565b82525050565b6000613e0f601683614137565b91507f496e7375666669656e74206574682062616c616e6365000000000000000000006000830152602082019050919050565b6000613e4f601883614137565b91507f496e7375666669656e7420746f6b656e2062616c616e636500000000000000006000830152602082019050919050565b608082016000820151613e986000850182613d59565b506020820151613eab6020850182613f2c565b506040820151613ebe6040850182613f2c565b506060820151613ed16060850182613dd5565b50505050565b608082016000820151613eed6000850182613d59565b506020820151613f006020850182613f2c565b506040820151613f136040850182613f2c565b506060820151613f266060850182613dd5565b50505050565b613f3581614190565b82525050565b613f4481614190565b82525050565b6000602082019050613f5f6000830184613d68565b92915050565b6000608082019050613f7a6000830187613d68565b613f876020830186613f3b565b613f946040830185613f3b565b613fa16060830184613de4565b95945050505050565b60006020820190508181036000830152613fc48184613d77565b905092915050565b6000602082019050613fe16000830184613de4565b92915050565b6000602082019050613ffc6000830184613df3565b92915050565b60006040820190506140176000830185613df3565b6140246020830184613d68565b9392505050565b6000602082019050818103600083015261404481613e02565b9050919050565b6000602082019050818103600083015261406481613e42565b9050919050565b60006080820190506140806000830184613ed7565b92915050565b600060208201905061409b6000830184613f3b565b92915050565b6000604051905081810181811067ffffffffffffffff821117156140c8576140c761419a565b5b8060405250919050565b600067ffffffffffffffff8211156140ed576140ec61419a565b5b602082029050602081019050919050565b6000819050602082019050919050565b600081519050919050565b6000602082019050919050565b600082825260208201905092915050565b600082825260208201905092915050565b600061415382614170565b9050919050565b60008115159050919050565b6000819050919050565b600073ffffffffffffffffffffffffffffffffffffffff82169050919050565b6000819050919050565bfe5b6141a581614148565b81146141b057600080fd5b50565b6141bc8161415a565b81146141c757600080fd5b50565b6141d381614166565b81146141de57600080fd5b50565b600281106141ee57600080fd5b50565b6141fa81614190565b811461420557600080fd5b5056fe4f776e61626c653a206e6577206f776e657220697320746865207a65726f2061646472657373536166654d6174683a206d756c7469706c69636174696f6e206f766572666c6f77a264697066735822122089fb055a342324abbdd06f79db616ca71490ebd1eeac6fc4818e7c814184425c64736f6c63430007060033",
  "linkReferences": {},
  "deployedLinkReferences": {}
}