{
  "_format": "hh-sol-artifact-1",
  "contractName": "Dex",
  "sourceName": "contracts/Dex.sol",
  "abi": [
    {
      "anonymous": false,
      "inputs": [
        {
          "indexed": true,
          "internalType": "address",
          "name": "previousOwner",
          "type": "address"
        },
        {
          "indexed": true,
          "internalType": "address",
          "name": "newOwner",
          "type": "address"
        }
      ],
      "name": "OwnershipTransferred",
      "type": "event"
    },
    {
      "inputs": [
        {
          "internalType": "bytes32",
          "name": "ticker",
          "type": "bytes32"
        },
        {
          "internalType": "address",
          "name": "tokenAddress",
          "type": "address"
        }
      ],
      "name": "addToken",
      "outputs": [],
      "stateMutability": "nonpayable",
      "type": "function"
    },
    {
      "inputs": [
        {
          "internalType": "address",
          "name": "",
          "type": "address"
        },
        {
          "internalType": "bytes32",
          "name": "",
          "type": "bytes32"
        }
      ],
      "name": "balances",
      "outputs": [
        {
          "internalType": "uint256",
          "name": "",
          "type": "uint256"
        }
      ],
      "stateMutability": "view",
      "type": "function"
    },
    {
      "inputs": [
        {
          "internalType": "uint256",
          "name": "side",
          "type": "uint256"
        },
        {
          "internalType": "bytes32",
          "name": "ticker",
          "type": "bytes32"
        },
        {
          "internalType": "uint256",
          "name": "amount",
          "type": "uint256"
        }
      ],
      "name": "createBuyMarketOrder",
      "outputs": [],
      "stateMutability": "nonpayable",
      "type": "function"
    },
    {
      "inputs": [
        {
          "internalType": "enum Dex.Side",
          "name": "side",
          "type": "uint8"
        },
        {
          "internalType": "bytes32",
          "name": "ticker",
          "type": "bytes32"
        },
        {
          "internalType": "uint256",
          "name": "amount",
          "type": "uint256"
        },
        {
          "internalType": "uint256",
          "name": "price",
          "type": "uint256"
        }
      ],
      "name": "createLimitOrder",
      "outputs": [],
      "stateMutability": "nonpayable",
      "type": "function"
    },
    {
      "inputs": [
        {
          "internalType": "enum Dex.Side",
          "name": "side",
          "type": "uint8"
        },
        {
          "internalType": "bytes32",
          "name": "ticker",
          "type": "bytes32"
        },
        {
          "internalType": "uint256",
          "name": "amount",
          "type": "uint256"
        }
      ],
      "name": "createMarketOrder",
      "outputs": [],
      "stateMutability": "nonpayable",
      "type": "function"
    },
    {
      "inputs": [
        {
          "internalType": "uint256",
          "name": "side",
          "type": "uint256"
        },
        {
          "internalType": "bytes32",
          "name": "ticker",
          "type": "bytes32"
        },
        {
          "internalType": "uint256",
          "name": "amount",
          "type": "uint256"
        }
      ],
      "name": "createSellMarketOrder",
      "outputs": [],
      "stateMutability": "nonpayable",
      "type": "function"
    },
    {
      "inputs": [
        {
          "internalType": "enum Dex.Side",
          "name": "side",
          "type": "uint8"
        },
        {
          "internalType": "bytes32",
          "name": "ticker",
          "type": "bytes32"
        },
        {
          "internalType": "uint256",
          "name": "amount",
          "type": "uint256"
        },
        {
          "internalType": "uint256",
          "name": "price",
          "type": "uint256"
        }
      ],
      "name": "createSortedLimitOrder",
      "outputs": [],
      "stateMutability": "nonpayable",
      "type": "function"
    },
    {
      "inputs": [
        {
          "internalType": "uint256",
          "name": "amount",
          "type": "uint256"
        },
        {
          "internalType": "bytes32",
          "name": "ticker",
          "type": "bytes32"
        }
      ],
      "name": "deposit",
      "outputs": [],
      "stateMutability": "nonpayable",
      "type": "function"
    },
    {
      "inputs": [],
      "name": "depositEth",
      "outputs": [],
      "stateMutability": "payable",
      "type": "function"
    },
    {
      "inputs": [
        {
          "internalType": "uint256",
          "name": "amount",
          "type": "uint256"
        },
        {
          "internalType": "uint256",
          "name": "price",
          "type": "uint256"
        }
      ],
      "name": "generateNewOrder",
      "outputs": [
        {
          "components": [
            {
              "internalType": "address",
              "name": "trader",
              "type": "address"
            },
            {
              "internalType": "uint256",
              "name": "amount",
              "type": "uint256"
            },
            {
              "internalType": "uint256",
              "name": "price",
              "type": "uint256"
            },
            {
              "internalType": "bool",
              "name": "filled",
              "type": "bool"
            }
          ],
          "internalType": "struct Dex.Order",
          "name": "",
          "type": "tuple"
        }
      ],
      "stateMutability": "view",
      "type": "function"
    },
    {
      "inputs": [],
      "name": "getMyEthBalance",
      "outputs": [
        {
          "internalType": "uint256",
          "name": "",
          "type": "uint256"
        }
      ],
      "stateMutability": "view",
      "type": "function"
    },
    {
      "inputs": [
        {
          "internalType": "bytes32",
          "name": "ticker",
          "type": "bytes32"
        }
      ],
      "name": "getMyTokenBalance",
      "outputs": [
        {
          "internalType": "uint256",
          "name": "",
          "type": "uint256"
        }
      ],
      "stateMutability": "view",
      "type": "function"
    },
    {
      "inputs": [
        {
          "internalType": "bytes32",
          "name": "ticker",
          "type": "bytes32"
        },
        {
          "internalType": "enum Dex.Side",
          "name": "side",
          "type": "uint8"
        }
      ],
      "name": "getOrderBook",
      "outputs": [
        {
          "components": [
            {
              "internalType": "address",
              "name": "trader",
              "type": "address"
            },
            {
              "internalType": "uint256",
              "name": "amount",
              "type": "uint256"
            },
            {
              "internalType": "uint256",
              "name": "price",
              "type": "uint256"
            },
            {
              "internalType": "bool",
              "name": "filled",
              "type": "bool"
            }
          ],
          "internalType": "struct Dex.Order[]",
          "name": "",
          "type": "tuple[]"
        }
      ],
      "stateMutability": "view",
      "type": "function"
    },
    {
      "inputs": [
        {
          "components": [
            {
              "internalType": "address",
              "name": "trader",
              "type": "address"
            },
            {
              "internalType": "uint256",
              "name": "amount",
              "type": "uint256"
            },
            {
              "internalType": "uint256",
              "name": "price",
              "type": "uint256"
            },
            {
              "internalType": "bool",
              "name": "filled",
              "type": "bool"
            }
          ],
          "internalType": "struct Dex.Order[]",
          "name": "orders",
          "type": "tuple[]"
        },
        {
          "components": [
            {
              "internalType": "address",
              "name": "trader",
              "type": "address"
            },
            {
              "internalType": "uint256",
              "name": "amount",
              "type": "uint256"
            },
            {
              "internalType": "uint256",
              "name": "price",
              "type": "uint256"
            },
            {
              "internalType": "bool",
              "name": "filled",
              "type": "bool"
            }
          ],
          "internalType": "struct Dex.Order",
          "name": "newOrder",
          "type": "tuple"
        }
      ],
      "name": "getPositionToPlace",
      "outputs": [
        {
          "internalType": "uint256",
          "name": "",
          "type": "uint256"
        }
      ],
      "stateMutability": "pure",
      "type": "function"
    },
    {
      "inputs": [
        {
          "internalType": "bytes32",
          "name": "token",
          "type": "bytes32"
        }
      ],
      "name": "getTokenBalance",
      "outputs": [
        {
          "internalType": "uint256",
          "name": "",
          "type": "uint256"
        }
      ],
      "stateMutability": "nonpayable",
      "type": "function"
    },
    {
      "inputs": [
        {
          "internalType": "enum Dex.Side",
          "name": "side",
          "type": "uint8"
        },
        {
          "internalType": "bytes32",
          "name": "ticker",
          "type": "bytes32"
        },
        {
          "internalType": "uint256",
          "name": "amount",
          "type": "uint256"
        },
        {
          "internalType": "uint256",
          "name": "price",
          "type": "uint256"
        }
      ],
      "name": "hasSufficientBalanceForLimit",
      "outputs": [],
      "stateMutability": "view",
      "type": "function"
    },
    {
      "inputs": [
        {
          "internalType": "enum Dex.Side",
          "name": "side",
          "type": "uint8"
        },
        {
          "internalType": "bytes32",
          "name": "ticker",
          "type": "bytes32"
        },
        {
          "internalType": "uint256",
          "name": "amount",
          "type": "uint256"
        }
      ],
      "name": "hasSufficientBalanceForMarket",
      "outputs": [],
      "stateMutability": "view",
      "type": "function"
    },
    {
      "inputs": [
        {
          "components": [
            {
              "internalType": "address",
              "name": "trader",
              "type": "address"
            },
            {
              "internalType": "uint256",
              "name": "amount",
              "type": "uint256"
            },
            {
              "internalType": "uint256",
              "name": "price",
              "type": "uint256"
            },
            {
              "internalType": "bool",
              "name": "filled",
              "type": "bool"
            }
          ],
          "internalType": "struct Dex.Order",
          "name": "prevOrder",
          "type": "tuple"
        },
        {
          "components": [
            {
              "internalType": "address",
              "name": "trader",
              "type": "address"
            },
            {
              "internalType": "uint256",
              "name": "amount",
              "type": "uint256"
            },
            {
              "internalType": "uint256",
              "name": "price",
              "type": "uint256"
            },
            {
              "internalType": "bool",
              "name": "filled",
              "type": "bool"
            }
          ],
          "internalType": "struct Dex.Order",
          "name": "newOrder",
          "type": "tuple"
        },
        {
          "components": [
            {
              "internalType": "address",
              "name": "trader",
              "type": "address"
            },
            {
              "internalType": "uint256",
              "name": "amount",
              "type": "uint256"
            },
            {
              "internalType": "uint256",
              "name": "price",
              "type": "uint256"
            },
            {
              "internalType": "bool",
              "name": "filled",
              "type": "bool"
            }
          ],
          "internalType": "struct Dex.Order",
          "name": "nextOrder",
          "type": "tuple"
        }
      ],
      "name": "isMiddlePosition",
      "outputs": [
        {
          "internalType": "bool",
          "name": "",
          "type": "bool"
        }
      ],
      "stateMutability": "pure",
      "type": "function"
    },
    {
      "inputs": [
        {
          "internalType": "enum Dex.Side",
          "name": "side",
          "type": "uint8"
        },
        {
          "internalType": "bytes32",
          "name": "ticker",
          "type": "bytes32"
        },
        {
          "internalType": "uint256",
          "name": "amount",
          "type": "uint256"
        }
      ],
      "name": "isOrderBookEmpty",
      "outputs": [],
      "stateMutability": "view",
      "type": "function"
    },
    {
      "inputs": [
        {
          "internalType": "uint256",
          "name": "side",
          "type": "uint256"
        },
        {
          "internalType": "bytes32",
          "name": "ticker",
          "type": "bytes32"
        },
        {
          "internalType": "uint256",
          "name": "tokenAmount",
          "type": "uint256"
        },
        {
          "internalType": "uint256",
          "name": "price",
          "type": "uint256"
        },
        {
          "internalType": "address",
          "name": "seller",
          "type": "address"
        },
        {
          "internalType": "address",
          "name": "buyer",
          "type": "address"
        }
      ],
      "name": "makeTheTransfer",
      "outputs": [],
      "stateMutability": "nonpayable",
      "type": "function"
    },
    {
      "inputs": [
        {
          "internalType": "bytes32",
          "name": "",
          "type": "bytes32"
        },
        {
          "internalType": "uint256",
          "name": "",
          "type": "uint256"
        },
        {
          "internalType": "uint256",
          "name": "",
          "type": "uint256"
        }
      ],
      "name": "orderBook",
      "outputs": [
        {
          "internalType": "address",
          "name": "trader",
          "type": "address"
        },
        {
          "internalType": "uint256",
          "name": "amount",
          "type": "uint256"
        },
        {
          "internalType": "uint256",
          "name": "price",
          "type": "uint256"
        },
        {
          "internalType": "bool",
          "name": "filled",
          "type": "bool"
        }
      ],
      "stateMutability": "view",
      "type": "function"
    },
    {
      "inputs": [],
      "name": "owner",
      "outputs": [
        {
          "internalType": "address",
          "name": "",
          "type": "address"
        }
      ],
      "stateMutability": "view",
      "type": "function"
    },
    {
      "inputs": [],
      "name": "renounceOwnership",
      "outputs": [],
      "stateMutability": "nonpayable",
      "type": "function"
    },
    {
      "inputs": [
        {
          "internalType": "bytes32",
          "name": "ticker",
          "type": "bytes32"
        },
        {
          "internalType": "enum Dex.Side",
          "name": "side",
          "type": "uint8"
        }
      ],
      "name": "resetOrderBook",
      "outputs": [
        {
          "components": [
            {
              "internalType": "address",
              "name": "trader",
              "type": "address"
            },
            {
              "internalType": "uint256",
              "name": "amount",
              "type": "uint256"
            },
            {
              "internalType": "uint256",
              "name": "price",
              "type": "uint256"
            },
            {
              "internalType": "bool",
              "name": "filled",
              "type": "bool"
            }
          ],
          "internalType": "struct Dex.Order[]",
          "name": "",
          "type": "tuple[]"
        }
      ],
      "stateMutability": "view",
      "type": "function"
    },
    {
      "inputs": [
        {
          "internalType": "uint256",
          "name": "",
          "type": "uint256"
        }
      ],
      "name": "tokenList",
      "outputs": [
        {
          "internalType": "bytes32",
          "name": "",
          "type": "bytes32"
        }
      ],
      "stateMutability": "view",
      "type": "function"
    },
    {
      "inputs": [
        {
          "internalType": "bytes32",
          "name": "",
          "type": "bytes32"
        }
      ],
      "name": "tokenMapping",
      "outputs": [
        {
          "internalType": "bytes32",
          "name": "ticker",
          "type": "bytes32"
        },
        {
          "internalType": "address",
          "name": "tokenAddress",
          "type": "address"
        }
      ],
      "stateMutability": "view",
      "type": "function"
    },
    {
      "inputs": [
        {
          "internalType": "address",
          "name": "newOwner",
          "type": "address"
        }
      ],
      "name": "transferOwnership",
      "outputs": [],
      "stateMutability": "nonpayable",
      "type": "function"
    },
    {
      "inputs": [
        {
          "internalType": "uint256",
          "name": "amount",
          "type": "uint256"
        },
        {
          "internalType": "bytes32",
          "name": "ticker",
          "type": "bytes32"
        }
      ],
      "name": "withdraw",
      "outputs": [],
      "stateMutability": "nonpayable",
      "type": "function"
    },
    {
      "inputs": [
        {
          "internalType": "uint256",
          "name": "amount",
          "type": "uint256"
        }
      ],
      "name": "withdrawEth",
      "outputs": [],
      "stateMutability": "nonpayable",
      "type": "function"
    }
  ],
  "bytecode": "0x60806040523480156200001157600080fd5b50600062000024620000c860201b60201c565b9050806000806101000a81548173ffffffffffffffffffffffffffffffffffffffff021916908373ffffffffffffffffffffffffffffffffffffffff1602179055508073ffffffffffffffffffffffffffffffffffffffff16600073ffffffffffffffffffffffffffffffffffffffff167f8be0079c531659141344cd1fd0a4f28419497f9722a3daafe3b4186f6b6457e060405160405180910390a350620000d0565b600033905090565b61440a80620000e06000396000f3fe6080604052600436106101c25760003560e01c80638c9f9196116100f7578063ba58ea6811610095578063e58c1a8b11610064578063e58c1a8b1461067b578063f1b928f3146106a4578063f2fde38b146106cd578063f7010282146106f6576101c2565b8063ba58ea68146105c3578063bae450f914610600578063c311d04914610629578063c9630cb014610652576101c2565b806399ec2f1c116100d157806399ec2f1c146104f75780639ead722214610520578063a4bc3dc51461055d578063a8d2021a1461059a576101c2565b80638c9f9196146104665780638da5cb5b146104a35780639776aacf146104ce576101c2565b8063439370b1116101645780636c83d33f1161013e5780636c83d33f146103c05780636f3b62f9146103e9578063715018a61461041257806388db6ac614610429576101c2565b8063439370b11461033b5780636147cd0b14610345578063667cb4ba14610382576101c2565b80631f14df69116101a05780631f14df691461026f578063296bd3a1146102ac5780633b9a805d146102d5578063400843cf146102fe576101c2565b80630709dec8146101c75780630bb431b6146101f25780631ea6042714610232575b600080fd5b3480156101d357600080fd5b506101dc61071f565b6040516101e9919061420b565b60405180910390f35b3480156101fe57600080fd5b5061021960048036038101906102149190613b75565b610797565b60405161022994939291906140ca565b60405180910390f35b34801561023e57600080fd5b5061025960048036038101906102549190613e04565b61081e565b60405161026691906141f0565b60405180910390f35b34801561027b57600080fd5b5061029660048036038101906102919190613a44565b610868565b6040516102a3919061420b565b60405180910390f35b3480156102b857600080fd5b506102d360048036038101906102ce9190613c13565b61088d565b005b3480156102e157600080fd5b506102fc60048036038101906102f79190613d2c565b610a10565b005b34801561030a57600080fd5b5061032560048036038101906103209190613c76565b610f4d565b6040516103329190614131565b60405180910390f35b610343610f78565b005b34801561035157600080fd5b5061036c60048036038101906103679190613ad4565b611071565b604051610379919061420b565b60405180910390f35b34801561038e57600080fd5b506103a960048036038101906103a49190613ad4565b6110cb565b6040516103b7929190614167565b60405180910390f35b3480156103cc57600080fd5b506103e760048036038101906103e29190613d7b565b61110f565b005b3480156103f557600080fd5b50610410600480360381019061040b9190613c13565b611497565b005b34801561041e57600080fd5b5061042761179d565b005b34801561043557600080fd5b50610450600480360381019061044b9190613ad4565b61190a565b60405161045d919061420b565b60405180910390f35b34801561047257600080fd5b5061048d60048036038101906104889190613b39565b611964565b60405161049a919061410f565b60405180910390f35b3480156104af57600080fd5b506104b8611a78565b6040516104c591906140af565b60405180910390f35b3480156104da57600080fd5b506104f560048036038101906104f09190613afd565b611aa1565b005b34801561050357600080fd5b5061051e60048036038101906105199190613bc4565b611c0f565b005b34801561052c57600080fd5b5061054760048036038101906105429190613cc7565b611c7c565b604051610554919061414c565b60405180910390f35b34801561056957600080fd5b50610584600480360381019061057f9190613a80565b611ca0565b604051610591919061420b565b60405180910390f35b3480156105a657600080fd5b506105c160048036038101906105bc9190613cf0565b611d70565b005b3480156105cf57600080fd5b506105ea60048036038101906105e59190613b39565b6120af565b6040516105f7919061410f565b60405180910390f35b34801561060c57600080fd5b5061062760048036038101906106229190613bc4565b6121c3565b005b34801561063557600080fd5b50610650600480360381019061064b9190613cc7565b612334565b005b34801561065e57600080fd5b5061067960048036038101906106749190613cf0565b612581565b005b34801561068757600080fd5b506106a2600480360381019061069d9190613bc4565b612818565b005b3480156106b057600080fd5b506106cb60048036038101906106c69190613c13565b61292c565b005b3480156106d957600080fd5b506106f460048036038101906106ef9190613a1b565b6129af565b005b34801561070257600080fd5b5061071d60048036038101906107189190613d2c565b612ba1565b005b6000600360003373ffffffffffffffffffffffffffffffffffffffff1673ffffffffffffffffffffffffffffffffffffffff16815260200190815260200160002060007f4554480000000000000000000000000000000000000000000000000000000000815260200190815260200160002054905090565b600460205282600052604060002060205281600052604060002081815481106107bf57600080fd5b906000526020600020906004020160009250925050508060000160009054906101000a900473ffffffffffffffffffffffffffffffffffffffff16908060010154908060020154908060030160009054906101000a900460ff16905084565b610826613868565b60405180608001604052803373ffffffffffffffffffffffffffffffffffffffff16815260200184815260200183815260200160001515815250905092915050565b6003602052816000526040600020602052806000526040600020600091509150505481565b6000600181111561089a57fe5b8460018111156108a657fe5b1415610976576108bf81836130de90919063ffffffff16565b600360003373ffffffffffffffffffffffffffffffffffffffff1673ffffffffffffffffffffffffffffffffffffffff16815260200190815260200160002060007f45544800000000000000000000000000000000000000000000000000000000008152602001908152602001600020541015610971576040517f08c379a000000000000000000000000000000000000000000000000000000000815260040161096890614190565b60405180910390fd5b610a0a565b81600360003373ffffffffffffffffffffffffffffffffffffffff1673ffffffffffffffffffffffffffffffffffffffff1681526020019081526020016000206000858152602001908152602001600020541015610a09576040517f08c379a0000000000000000000000000000000000000000000000000000000008152600401610a00906141d0565b60405180910390fd5b5b50505050565b600081905060008060005b6004600087815260200190815260200160002060008881526020019081526020016000208054905081108015610a515750600084115b8015610a5b575082155b15610f335760006004600088815260200190815260200160002060008981526020019081526020016000208281548110610a9157fe5b906000526020600020906004020160000160009054906101000a900473ffffffffffffffffffffffffffffffffffffffff1690506004600088815260200190815260200160002060008981526020019081526020016000208281548110610af457fe5b906000526020600020906004020160010154851015610ccb576000610b62600460008a815260200190815260200160002060008b81526020019081526020016000208481548110610b4157fe5b906000526020600020906004020160020154876130de90919063ffffffff16565b905080600360008473ffffffffffffffffffffffffffffffffffffffff1673ffffffffffffffffffffffffffffffffffffffff16815260200190815260200160002060007f455448000000000000000000000000000000000000000000000000000000000081526020019081526020016000205410610cc157610c2e86600460008b815260200190815260200160002060008c81526020019081526020016000208581548110610c0e57fe5b90600052602060002090600402016001015461316490919063ffffffff16565b600460008a815260200190815260200160002060008b81526020019081526020016000208481548110610c5d57fe5b906000526020600020906004020160010181905550610cc0898988600460008d815260200190815260200160002060008e81526020019081526020016000208781548110610ca757fe5b906000526020600020906004020160020154338761110f565b5b6001945050610f25565b6000610d60600460008a815260200190815260200160002060008b81526020019081526020016000208481548110610cff57fe5b906000526020600020906004020160020154600460008b815260200190815260200160002060008c81526020019081526020016000208581548110610d4057fe5b9060005260206000209060040201600101546130de90919063ffffffff16565b905080600360008473ffffffffffffffffffffffffffffffffffffffff1673ffffffffffffffffffffffffffffffffffffffff16815260200190815260200160002060007f455448000000000000000000000000000000000000000000000000000000000081526020019081526020016000205410610f1e57610e678989600460008c815260200190815260200160002060008d81526020019081526020016000208681548110610e0d57fe5b906000526020600020906004020160010154600460008d815260200190815260200160002060008e81526020019081526020016000208781548110610e4e57fe5b906000526020600020906004020160020154338761110f565b610eba600460008a815260200190815260200160002060008b81526020019081526020016000208481548110610e9957fe5b9060005260206000209060040201600101548761316490919063ffffffff16565b95506001600460008a815260200190815260200160002060008b81526020019081526020016000208481548110610eed57fe5b906000526020600020906004020160030160006101000a81548160ff02191690831515021790555060019350610f23565b600194505b505b508080600101915050610a1b565b508015610f4557610f4485876131e7565b5b505050505050565b60008260400151846040015110158015610f6f57508160400151836040015110155b90509392505050565b610ffb34600360003373ffffffffffffffffffffffffffffffffffffffff1673ffffffffffffffffffffffffffffffffffffffff16815260200190815260200160002060007f455448000000000000000000000000000000000000000000000000000000000081526020019081526020016000205461349390919063ffffffff16565b600360003373ffffffffffffffffffffffffffffffffffffffff1673ffffffffffffffffffffffffffffffffffffffff16815260200190815260200160002060007f4554480000000000000000000000000000000000000000000000000000000000815260200190815260200160002081905550565b6000600360003373ffffffffffffffffffffffffffffffffffffffff1673ffffffffffffffffffffffffffffffffffffffff1681526020019081526020016000206000838152602001908152602001600020549050919050565b60016020528060005260406000206000915090508060000154908060010160009054906101000a900473ffffffffffffffffffffffffffffffffffffffff16905082565b61117284600360008573ffffffffffffffffffffffffffffffffffffffff1673ffffffffffffffffffffffffffffffffffffffff16815260200190815260200160002060008881526020019081526020016000205461316490919063ffffffff16565b600360008473ffffffffffffffffffffffffffffffffffffffff1673ffffffffffffffffffffffffffffffffffffffff16815260200190815260200160002060008781526020019081526020016000208190555061125b6111dc84866130de90919063ffffffff16565b600360008573ffffffffffffffffffffffffffffffffffffffff1673ffffffffffffffffffffffffffffffffffffffff16815260200190815260200160002060007f455448000000000000000000000000000000000000000000000000000000000081526020019081526020016000205461349390919063ffffffff16565b600360008473ffffffffffffffffffffffffffffffffffffffff1673ffffffffffffffffffffffffffffffffffffffff16815260200190815260200160002060007f455448000000000000000000000000000000000000000000000000000000000081526020019081526020016000208190555061133284600360008473ffffffffffffffffffffffffffffffffffffffff1673ffffffffffffffffffffffffffffffffffffffff16815260200190815260200160002060008881526020019081526020016000205461349390919063ffffffff16565b600360008373ffffffffffffffffffffffffffffffffffffffff1673ffffffffffffffffffffffffffffffffffffffff16815260200190815260200160002060008781526020019081526020016000208190555061141b61139c84866130de90919063ffffffff16565b600360008473ffffffffffffffffffffffffffffffffffffffff1673ffffffffffffffffffffffffffffffffffffffff16815260200190815260200160002060007f455448000000000000000000000000000000000000000000000000000000000081526020019081526020016000205461316490919063ffffffff16565b600360008373ffffffffffffffffffffffffffffffffffffffff1673ffffffffffffffffffffffffffffffffffffffff16815260200190815260200160002060007f4554480000000000000000000000000000000000000000000000000000000000815260200190815260200160002081905550505050505050565b6114a38484848461088d565b600060018111156114b057fe5b8460018111156114bc57fe5b14156115d0576115576114d882846130de90919063ffffffff16565b600360003373ffffffffffffffffffffffffffffffffffffffff1673ffffffffffffffffffffffffffffffffffffffff16815260200190815260200160002060007f455448000000000000000000000000000000000000000000000000000000000081526020019081526020016000205461316490919063ffffffff16565b600360003373ffffffffffffffffffffffffffffffffffffffff1673ffffffffffffffffffffffffffffffffffffffff16815260200190815260200160002060007f4554480000000000000000000000000000000000000000000000000000000000815260200190815260200160002081905550611688565b61163382600360003373ffffffffffffffffffffffffffffffffffffffff1673ffffffffffffffffffffffffffffffffffffffff16815260200190815260200160002060008681526020019081526020016000205461316490919063ffffffff16565b600360003373ffffffffffffffffffffffffffffffffffffffff1673ffffffffffffffffffffffffffffffffffffffff1681526020019081526020016000206000858152602001908152602001600020819055505b6004600084815260200190815260200160002060008560018111156116a957fe5b815260200190815260200160002060405180608001604052803373ffffffffffffffffffffffffffffffffffffffff16815260200184815260200183815260200160001515815250908060018154018082558091505060019003906000526020600020906004020160009091909190915060008201518160000160006101000a81548173ffffffffffffffffffffffffffffffffffffffff021916908373ffffffffffffffffffffffffffffffffffffffff160217905550602082015181600101556040820151816002015560608201518160030160006101000a81548160ff021916908315150217905550505050505050565b6117a561351b565b73ffffffffffffffffffffffffffffffffffffffff166117c3611a78565b73ffffffffffffffffffffffffffffffffffffffff161461184c576040517f08c379a00000000000000000000000000000000000000000000000000000000081526004018080602001828103825260208152602001807f4f776e61626c653a2063616c6c6572206973206e6f7420746865206f776e657281525060200191505060405180910390fd5b600073ffffffffffffffffffffffffffffffffffffffff1660008054906101000a900473ffffffffffffffffffffffffffffffffffffffff1673ffffffffffffffffffffffffffffffffffffffff167f8be0079c531659141344cd1fd0a4f28419497f9722a3daafe3b4186f6b6457e060405160405180910390a360008060006101000a81548173ffffffffffffffffffffffffffffffffffffffff021916908373ffffffffffffffffffffffffffffffffffffffff160217905550565b6000600360003373ffffffffffffffffffffffffffffffffffffffff1673ffffffffffffffffffffffffffffffffffffffff1681526020019081526020016000206000838152602001908152602001600020549050919050565b606060046000848152602001908152602001600020600083600181111561198757fe5b8152602001908152602001600020805480602002602001604051908101604052809291908181526020016000905b82821015611a6c57838290600052602060002090600402016040518060800160405290816000820160009054906101000a900473ffffffffffffffffffffffffffffffffffffffff1673ffffffffffffffffffffffffffffffffffffffff1673ffffffffffffffffffffffffffffffffffffffff16815260200160018201548152602001600282015481526020016003820160009054906101000a900460ff161515151581525050815260200190600101906119b5565b50505050905092915050565b60008060009054906101000a900473ffffffffffffffffffffffffffffffffffffffff16905090565b611aa961351b565b73ffffffffffffffffffffffffffffffffffffffff16611ac7611a78565b73ffffffffffffffffffffffffffffffffffffffff1614611b50576040517f08c379a00000000000000000000000000000000000000000000000000000000081526004018080602001828103825260208152602001807f4f776e61626c653a2063616c6c6572206973206e6f7420746865206f776e657281525060200191505060405180910390fd5b60405180604001604052808381526020018273ffffffffffffffffffffffffffffffffffffffff16815250600160008481526020019081526020016000206000820151816000015560208201518160010160006101000a81548173ffffffffffffffffffffffffffffffffffffffff021916908373ffffffffffffffffffffffffffffffffffffffff16021790555090505060028290806001815401808255809150506001900390600052602060002001600090919091909150555050565b611c1a838383612818565b611c258383836121c3565b60006001811115611c3257fe5b836001811115611c3e57fe5b1415611c5f57611c5a600180811115611c5357fe5b8383612ba1565b611c77565b611c7660006001811115611c6f57fe5b8383610a10565b5b505050565b60028181548110611c8c57600080fd5b906000526020600020016000915090505481565b60008083511415611cb45760009050611d6a565b600183511415611cf457816040015183600081518110611cd057fe5b6020026020010151604001511115611ceb5760019050611d6a565b60009050611d6a565b60005b8351811015611d68576001845103811415611d16578351915050611d6a565b611d4a848281518110611d2557fe5b602002602001015184866001850181518110611d3d57fe5b6020026020010151610f4d565b15611d5b5760018101915050611d6a565b8080600101915050611cf7565b505b92915050565b80600073ffffffffffffffffffffffffffffffffffffffff166001600083815260200190815260200160002060010160009054906101000a900473ffffffffffffffffffffffffffffffffffffffff1673ffffffffffffffffffffffffffffffffffffffff161415611e4a576040517f08c379a00000000000000000000000000000000000000000000000000000000081526004018080602001828103825260148152602001807f746f6b656e20646f6573206e6f7420657869737400000000000000000000000081525060200191505060405180910390fd5b82600360003373ffffffffffffffffffffffffffffffffffffffff1673ffffffffffffffffffffffffffffffffffffffff1681526020019081526020016000206000848152602001908152602001600020541015611f10576040517f08c379a00000000000000000000000000000000000000000000000000000000081526004018080602001828103825260128152602001807f496e7375666669656e742062616c616e6365000000000000000000000000000081525060200191505060405180910390fd5b611f7383600360003373ffffffffffffffffffffffffffffffffffffffff1673ffffffffffffffffffffffffffffffffffffffff16815260200190815260200160002060008581526020019081526020016000205461316490919063ffffffff16565b600360003373ffffffffffffffffffffffffffffffffffffffff1673ffffffffffffffffffffffffffffffffffffffff1681526020019081526020016000206000848152602001908152602001600020819055506001600083815260200190815260200160002060010160009054906101000a900473ffffffffffffffffffffffffffffffffffffffff1673ffffffffffffffffffffffffffffffffffffffff1663a9059cbb33856040518363ffffffff1660e01b8152600401808373ffffffffffffffffffffffffffffffffffffffff16815260200182815260200192505050602060405180830381600087803b15801561206e57600080fd5b505af1158015612082573d6000803e3d6000fd5b505050506040513d602081101561209857600080fd5b810190808051906020019092919050505050505050565b60606004600084815260200190815260200160002060008360018111156120d257fe5b8152602001908152602001600020805480602002602001604051908101604052809291908181526020016000905b828210156121b757838290600052602060002090600402016040518060800160405290816000820160009054906101000a900473ffffffffffffffffffffffffffffffffffffffff1673ffffffffffffffffffffffffffffffffffffffff1673ffffffffffffffffffffffffffffffffffffffff16815260200160018201548152602001600282015481526020016003820160009054906101000a900460ff16151515158152505081526020019060010190612100565b50505050905092915050565b600060018111156121d057fe5b8360018111156121dc57fe5b141561229a576000600360003373ffffffffffffffffffffffffffffffffffffffff1673ffffffffffffffffffffffffffffffffffffffff16815260200190815260200160002060007f455448000000000000000000000000000000000000000000000000000000000081526020019081526020016000205411612295576040517f08c379a000000000000000000000000000000000000000000000000000000000815260040161228c90614190565b60405180910390fd5b61232f565b6001600360003373ffffffffffffffffffffffffffffffffffffffff1673ffffffffffffffffffffffffffffffffffffffff168152602001908152602001600020600084815260200190815260200160002054101561232e576040517f08c379a0000000000000000000000000000000000000000000000000000000008152600401612325906141d0565b60405180910390fd5b5b505050565b80600360003373ffffffffffffffffffffffffffffffffffffffff1673ffffffffffffffffffffffffffffffffffffffff16815260200190815260200160002060007f4554480000000000000000000000000000000000000000000000000000000000815260200190815260200160002054101561241a576040517f08c379a00000000000000000000000000000000000000000000000000000000081526004018080602001828103825260128152602001807f496e7375666669656e742062616c616e6365000000000000000000000000000081525060200191505060405180910390fd5b61249d81600360003373ffffffffffffffffffffffffffffffffffffffff1673ffffffffffffffffffffffffffffffffffffffff16815260200190815260200160002060007f455448000000000000000000000000000000000000000000000000000000000081526020019081526020016000205461316490919063ffffffff16565b600360003373ffffffffffffffffffffffffffffffffffffffff1673ffffffffffffffffffffffffffffffffffffffff16815260200190815260200160002060007f45544800000000000000000000000000000000000000000000000000000000008152602001908152602001600020819055506000803373ffffffffffffffffffffffffffffffffffffffff168360405180600001905060006040518083038185875af1925050503d8060008114612572576040519150601f19603f3d011682016040523d82523d6000602084013e612577565b606091505b5091509150505050565b80600073ffffffffffffffffffffffffffffffffffffffff166001600083815260200190815260200160002060010160009054906101000a900473ffffffffffffffffffffffffffffffffffffffff1673ffffffffffffffffffffffffffffffffffffffff16141561265b576040517f08c379a00000000000000000000000000000000000000000000000000000000081526004018080602001828103825260148152602001807f746f6b656e20646f6573206e6f7420657869737400000000000000000000000081525060200191505060405180910390fd5b6001600083815260200190815260200160002060010160009054906101000a900473ffffffffffffffffffffffffffffffffffffffff1673ffffffffffffffffffffffffffffffffffffffff166323b872dd3330866040518463ffffffff1660e01b8152600401808473ffffffffffffffffffffffffffffffffffffffff1681526020018373ffffffffffffffffffffffffffffffffffffffff1681526020018281526020019350505050602060405180830381600087803b15801561272057600080fd5b505af1158015612734573d6000803e3d6000fd5b505050506040513d602081101561274a57600080fd5b8101908080519060200190929190505050506127bf83600360003373ffffffffffffffffffffffffffffffffffffffff1673ffffffffffffffffffffffffffffffffffffffff16815260200190815260200160002060008581526020019081526020016000205461349390919063ffffffff16565b600360003373ffffffffffffffffffffffffffffffffffffffff1673ffffffffffffffffffffffffffffffffffffffff168152602001908152602001600020600084815260200190815260200160002081905550505050565b6000600181111561282557fe5b83600181111561283157fe5b14156128b157600060046000848152602001908152602001600020600060018081111561285a57fe5b815260200190815260200160002080549050116128ac576040517f08c379a00000000000000000000000000000000000000000000000000000000081526004016128a3906141b0565b60405180910390fd5b612927565b60006004600084815260200190815260200160002060008060018111156128d457fe5b81526020019081526020016000208054905011612926576040517f08c379a000000000000000000000000000000000000000000000000000000000815260040161291d906141b0565b60405180910390fd5b5b505050565b6129388484848461088d565b6129a960046000858152602001908152602001600020600086600181111561295c57fe5b815260200190815260200160002060405180608001604052803373ffffffffffffffffffffffffffffffffffffffff16815260200185815260200184815260200160001515815250613523565b50505050565b6129b761351b565b73ffffffffffffffffffffffffffffffffffffffff166129d5611a78565b73ffffffffffffffffffffffffffffffffffffffff1614612a5e576040517f08c379a00000000000000000000000000000000000000000000000000000000081526004018080602001828103825260208152602001807f4f776e61626c653a2063616c6c6572206973206e6f7420746865206f776e657281525060200191505060405180910390fd5b600073ffffffffffffffffffffffffffffffffffffffff168173ffffffffffffffffffffffffffffffffffffffff161415612ae4576040517f08c379a000000000000000000000000000000000000000000000000000000000815260040180806020018281038252602681526020018061438e6026913960400191505060405180910390fd5b8073ffffffffffffffffffffffffffffffffffffffff1660008054906101000a900473ffffffffffffffffffffffffffffffffffffffff1673ffffffffffffffffffffffffffffffffffffffff167f8be0079c531659141344cd1fd0a4f28419497f9722a3daafe3b4186f6b6457e060405160405180910390a3806000806101000a81548173ffffffffffffffffffffffffffffffffffffffff021916908373ffffffffffffffffffffffffffffffffffffffff16021790555050565b600081905060008060005b6004600087815260200190815260200160002060008881526020019081526020016000208054905081108015612be25750600084115b8015612bec575082155b156130c45760006004600088815260200190815260200160002060008981526020019081526020016000208281548110612c2257fe5b906000526020600020906004020160000160009054906101000a900473ffffffffffffffffffffffffffffffffffffffff1690506004600088815260200190815260200160002060008981526020019081526020016000208281548110612c8557fe5b906000526020600020906004020160010154851015612e5c576000612cf3600460008a815260200190815260200160002060008b81526020019081526020016000208481548110612cd257fe5b906000526020600020906004020160020154876130de90919063ffffffff16565b905080600360008473ffffffffffffffffffffffffffffffffffffffff1673ffffffffffffffffffffffffffffffffffffffff16815260200190815260200160002060007f455448000000000000000000000000000000000000000000000000000000000081526020019081526020016000205410612e5257612dbf86600460008b815260200190815260200160002060008c81526020019081526020016000208581548110612d9f57fe5b90600052602060002090600402016001015461316490919063ffffffff16565b600460008a815260200190815260200160002060008b81526020019081526020016000208481548110612dee57fe5b906000526020600020906004020160010181905550612e51898988600460008d815260200190815260200160002060008e81526020019081526020016000208781548110612e3857fe5b906000526020600020906004020160020154863361110f565b5b60019450506130b6565b6000612ef1600460008a815260200190815260200160002060008b81526020019081526020016000208481548110612e9057fe5b906000526020600020906004020160020154600460008b815260200190815260200160002060008c81526020019081526020016000208581548110612ed157fe5b9060005260206000209060040201600101546130de90919063ffffffff16565b905080600360008473ffffffffffffffffffffffffffffffffffffffff1673ffffffffffffffffffffffffffffffffffffffff16815260200190815260200160002060007f4554480000000000000000000000000000000000000000000000000000000000815260200190815260200160002054106130af57612ff88989600460008c815260200190815260200160002060008d81526020019081526020016000208681548110612f9e57fe5b906000526020600020906004020160010154600460008d815260200190815260200160002060008e81526020019081526020016000208781548110612fdf57fe5b906000526020600020906004020160020154863361110f565b61304b600460008a815260200190815260200160002060008b8152602001908152602001600020848154811061302a57fe5b9060005260206000209060040201600101548761316490919063ffffffff16565b95506001600460008a815260200190815260200160002060008b8152602001908152602001600020848154811061307e57fe5b906000526020600020906004020160030160006101000a81548160ff021916908315150217905550600193506130b4565b600194505b505b508080600101915050612bac565b5080156130d6576130d585876131e7565b5b505050505050565b6000808314156130f1576000905061315e565b600082840290508284828161310257fe5b0414613159576040517f08c379a00000000000000000000000000000000000000000000000000000000081526004018080602001828103825260218152602001806143b46021913960400191505060405180910390fd5b809150505b92915050565b6000828211156131dc576040517f08c379a000000000000000000000000000000000000000000000000000000000815260040180806020018281038252601e8152602001807f536166654d6174683a207375627472616374696f6e206f766572666c6f77000081525060200191505060405180910390fd5b818303905092915050565b6000600460008481526020019081526020016000206000838152602001908152602001600020805490501161321b57600080fd5b60005b6004600084815260200190815260200160002060008381526020019081526020016000208054905081101561348e57600460008481526020019081526020016000206000838152602001908152602001600020818154811061327c57fe5b906000526020600020906004020160030160009054906101000a900460ff16156134815760046000848152602001908152602001600020600083815260200190815260200160002060016004600086815260200190815260200160002060008581526020019081526020016000208054905003815481106132f957fe5b9060005260206000209060040201600460008581526020019081526020016000206000848152602001908152602001600020828154811061333657fe5b90600052602060002090600402016000820160009054906101000a900473ffffffffffffffffffffffffffffffffffffffff168160000160006101000a81548173ffffffffffffffffffffffffffffffffffffffff021916908373ffffffffffffffffffffffffffffffffffffffff16021790555060018201548160010155600282015481600201556003820160009054906101000a900460ff168160030160006101000a81548160ff02191690831515021790555090505060046000848152602001908152602001600020600083815260200190815260200160002080548061341c57fe5b6001900381819060005260206000209060040201600080820160006101000a81549073ffffffffffffffffffffffffffffffffffffffff0219169055600182016000905560028201600090556003820160006101000a81549060ff0219169055505090555b808060010191505061321e565b505050565b600080828401905083811015613511576040517f08c379a000000000000000000000000000000000000000000000000000000000815260040180806020018281038252601b8152602001807f536166654d6174683a206164646974696f6e206f766572666c6f77000000000081525060200191505060405180910390fd5b8091505092915050565b600033905090565b600061360a83805480602002602001604051908101604052809291908181526020016000905b8282101561360057838290600052602060002090600402016040518060800160405290816000820160009054906101000a900473ffffffffffffffffffffffffffffffffffffffff1673ffffffffffffffffffffffffffffffffffffffff1673ffffffffffffffffffffffffffffffffffffffff16815260200160018201548152602001600282015481526020016003820160009054906101000a900460ff16151515158152505081526020019060010190613549565b5050505083611ca0565b9050828054905081106136c4578282908060018154018082558091505060019003906000526020600020906004020160009091909190915060008201518160000160006101000a81548173ffffffffffffffffffffffffffffffffffffffff021916908373ffffffffffffffffffffffffffffffffffffffff160217905550602082015181600101556040820151816002015560608201518160030160006101000a81548160ff0219169083151502179055505050613863565b6000600184805490500390505b8181106137c8578381815481106136e457fe5b906000526020600020906004020184600183018154811061370157fe5b90600052602060002090600402016000820160009054906101000a900473ffffffffffffffffffffffffffffffffffffffff168160000160006101000a81548173ffffffffffffffffffffffffffffffffffffffff021916908373ffffffffffffffffffffffffffffffffffffffff16021790555060018201548160010155600282015481600201556003820160009054906101000a900460ff168160030160006101000a81548160ff0219169083151502179055509050508080600190039150506136d1565b50818382815481106137d657fe5b906000526020600020906004020160008201518160000160006101000a81548173ffffffffffffffffffffffffffffffffffffffff021916908373ffffffffffffffffffffffffffffffffffffffff160217905550602082015181600101556040820151816002015560608201518160030160006101000a81548160ff0219169083151502179055509050505b505050565b6040518060800160405280600073ffffffffffffffffffffffffffffffffffffffff16815260200160008152602001600081526020016000151581525090565b60006138bb6138b684614257565b614226565b905080838252602082019050828560808602820111156138da57600080fd5b60005b8581101561390a57816138f08882613992565b8452602084019350608083019250506001810190506138dd565b5050509392505050565b60008135905061392381614321565b92915050565b600082601f83011261393a57600080fd5b813561394a8482602086016138a8565b91505092915050565b60008135905061396281614338565b92915050565b6000813590506139778161434f565b92915050565b60008135905061398c81614366565b92915050565b6000608082840312156139a457600080fd5b6139ae6080614226565b905060006139be84828501613914565b60008301525060206139d284828501613a06565b60208301525060406139e684828501613a06565b60408301525060606139fa84828501613953565b60608301525092915050565b600081359050613a1581614376565b92915050565b600060208284031215613a2d57600080fd5b6000613a3b84828501613914565b91505092915050565b60008060408385031215613a5757600080fd5b6000613a6585828601613914565b9250506020613a7685828601613968565b9150509250929050565b60008060a08385031215613a9357600080fd5b600083013567ffffffffffffffff811115613aad57600080fd5b613ab985828601613929565b9250506020613aca85828601613992565b9150509250929050565b600060208284031215613ae657600080fd5b6000613af484828501613968565b91505092915050565b60008060408385031215613b1057600080fd5b6000613b1e85828601613968565b9250506020613b2f85828601613914565b9150509250929050565b60008060408385031215613b4c57600080fd5b6000613b5a85828601613968565b9250506020613b6b8582860161397d565b9150509250929050565b600080600060608486031215613b8a57600080fd5b6000613b9886828701613968565b9350506020613ba986828701613a06565b9250506040613bba86828701613a06565b9150509250925092565b600080600060608486031215613bd957600080fd5b6000613be78682870161397d565b9350506020613bf886828701613968565b9250506040613c0986828701613a06565b9150509250925092565b60008060008060808587031215613c2957600080fd5b6000613c378782880161397d565b9450506020613c4887828801613968565b9350506040613c5987828801613a06565b9250506060613c6a87828801613a06565b91505092959194509250565b60008060006101808486031215613c8c57600080fd5b6000613c9a86828701613992565b9350506080613cab86828701613992565b925050610100613cbd86828701613992565b9150509250925092565b600060208284031215613cd957600080fd5b6000613ce784828501613a06565b91505092915050565b60008060408385031215613d0357600080fd5b6000613d1185828601613a06565b9250506020613d2285828601613968565b9150509250929050565b600080600060608486031215613d4157600080fd5b6000613d4f86828701613a06565b9350506020613d6086828701613968565b9250506040613d7186828701613a06565b9150509250925092565b60008060008060008060c08789031215613d9457600080fd5b6000613da289828a01613a06565b9650506020613db389828a01613968565b9550506040613dc489828a01613a06565b9450506060613dd589828a01613a06565b9350506080613de689828a01613914565b92505060a0613df789828a01613914565b9150509295509295509295565b60008060408385031215613e1757600080fd5b6000613e2585828601613a06565b9250506020613e3685828601613a06565b9150509250929050565b6000613e4c8383613fe7565b60808301905092915050565b613e61816142cd565b82525050565b613e70816142cd565b82525050565b6000613e8182614293565b613e8b81856142ab565b9350613e9683614283565b8060005b83811015613ec7578151613eae8882613e40565b9750613eb98361429e565b925050600181019050613e9a565b5085935050505092915050565b613edd816142df565b82525050565b613eec816142df565b82525050565b613efb816142eb565b82525050565b6000613f0e6016836142bc565b91507f496e7375666669656e74206574682062616c616e6365000000000000000000006000830152602082019050919050565b6000613f4e602a836142bc565b91507f546865206f7264657220626f6f6b20697320656d70747920666f72207468697360008301527f206f7065726174696f6e000000000000000000000000000000000000000000006020830152604082019050919050565b6000613fb46018836142bc565b91507f496e7375666669656e7420746f6b656e2062616c616e636500000000000000006000830152602082019050919050565b608082016000820151613ffd6000850182613e58565b5060208201516140106020850182614091565b5060408201516140236040850182614091565b5060608201516140366060850182613ed4565b50505050565b6080820160008201516140526000850182613e58565b5060208201516140656020850182614091565b5060408201516140786040850182614091565b50606082015161408b6060850182613ed4565b50505050565b61409a81614315565b82525050565b6140a981614315565b82525050565b60006020820190506140c46000830184613e67565b92915050565b60006080820190506140df6000830187613e67565b6140ec60208301866140a0565b6140f960408301856140a0565b6141066060830184613ee3565b95945050505050565b600060208201905081810360008301526141298184613e76565b905092915050565b60006020820190506141466000830184613ee3565b92915050565b60006020820190506141616000830184613ef2565b92915050565b600060408201905061417c6000830185613ef2565b6141896020830184613e67565b9392505050565b600060208201905081810360008301526141a981613f01565b9050919050565b600060208201905081810360008301526141c981613f41565b9050919050565b600060208201905081810360008301526141e981613fa7565b9050919050565b6000608082019050614205600083018461403c565b92915050565b600060208201905061422060008301846140a0565b92915050565b6000604051905081810181811067ffffffffffffffff8211171561424d5761424c61431f565b5b8060405250919050565b600067ffffffffffffffff8211156142725761427161431f565b5b602082029050602081019050919050565b6000819050602082019050919050565b600081519050919050565b6000602082019050919050565b600082825260208201905092915050565b600082825260208201905092915050565b60006142d8826142f5565b9050919050565b60008115159050919050565b6000819050919050565b600073ffffffffffffffffffffffffffffffffffffffff82169050919050565b6000819050919050565bfe5b61432a816142cd565b811461433557600080fd5b50565b614341816142df565b811461434c57600080fd5b50565b614358816142eb565b811461436357600080fd5b50565b6002811061437357600080fd5b50565b61437f81614315565b811461438a57600080fd5b5056fe4f776e61626c653a206e6577206f776e657220697320746865207a65726f2061646472657373536166654d6174683a206d756c7469706c69636174696f6e206f766572666c6f77a264697066735822122091e134dc9be9162ec19696fb1d6073b2aa197e74e46df6a487a0d044b1f8858b64736f6c63430007060033",
  "linkReferences": {},
  "deployedLinkReferences": {}
}