{
  "_format": "hh-sol-artifact-1",
  "contractName": "Dex",
  "sourceName": "contracts/Dex.sol",
  "abi": [
    {
      "anonymous": false,
      "inputs": [
        {
          "indexed": true,
          "internalType": "address",
          "name": "previousOwner",
          "type": "address"
        },
        {
          "indexed": true,
          "internalType": "address",
          "name": "newOwner",
          "type": "address"
        }
      ],
      "name": "OwnershipTransferred",
      "type": "event"
    },
    {
      "inputs": [
        {
          "internalType": "bytes32",
          "name": "ticker",
          "type": "bytes32"
        },
        {
          "internalType": "address",
          "name": "tokenAddress",
          "type": "address"
        }
      ],
      "name": "addToken",
      "outputs": [],
      "stateMutability": "nonpayable",
      "type": "function"
    },
    {
      "inputs": [
        {
          "internalType": "address",
          "name": "",
          "type": "address"
        },
        {
          "internalType": "bytes32",
          "name": "",
          "type": "bytes32"
        }
      ],
      "name": "balances",
      "outputs": [
        {
          "internalType": "uint256",
          "name": "",
          "type": "uint256"
        }
      ],
      "stateMutability": "view",
      "type": "function"
    },
    {
      "inputs": [
        {
          "internalType": "uint256",
          "name": "side",
          "type": "uint256"
        },
        {
          "internalType": "bytes32",
          "name": "ticker",
          "type": "bytes32"
        },
        {
          "internalType": "uint256",
          "name": "amount",
          "type": "uint256"
        }
      ],
      "name": "createBuyMarketOrder",
      "outputs": [],
      "stateMutability": "nonpayable",
      "type": "function"
    },
    {
      "inputs": [
        {
          "internalType": "enum Dex.Side",
          "name": "side",
          "type": "uint8"
        },
        {
          "internalType": "bytes32",
          "name": "ticker",
          "type": "bytes32"
        },
        {
          "internalType": "uint256",
          "name": "amount",
          "type": "uint256"
        },
        {
          "internalType": "uint256",
          "name": "price",
          "type": "uint256"
        }
      ],
      "name": "createLimitOrder",
      "outputs": [],
      "stateMutability": "nonpayable",
      "type": "function"
    },
    {
      "inputs": [
        {
          "internalType": "enum Dex.Side",
          "name": "side",
          "type": "uint8"
        },
        {
          "internalType": "bytes32",
          "name": "ticker",
          "type": "bytes32"
        },
        {
          "internalType": "uint256",
          "name": "amount",
          "type": "uint256"
        }
      ],
      "name": "createMarketOrder",
      "outputs": [],
      "stateMutability": "nonpayable",
      "type": "function"
    },
    {
      "inputs": [
        {
          "internalType": "uint256",
          "name": "side",
          "type": "uint256"
        },
        {
          "internalType": "bytes32",
          "name": "ticker",
          "type": "bytes32"
        },
        {
          "internalType": "uint256",
          "name": "amount",
          "type": "uint256"
        }
      ],
      "name": "createSellMarketOrder",
      "outputs": [],
      "stateMutability": "nonpayable",
      "type": "function"
    },
    {
      "inputs": [
        {
          "internalType": "enum Dex.Side",
          "name": "side",
          "type": "uint8"
        },
        {
          "internalType": "bytes32",
          "name": "ticker",
          "type": "bytes32"
        },
        {
          "internalType": "uint256",
          "name": "amount",
          "type": "uint256"
        },
        {
          "internalType": "uint256",
          "name": "price",
          "type": "uint256"
        }
      ],
      "name": "createSortedLimitOrder",
      "outputs": [],
      "stateMutability": "nonpayable",
      "type": "function"
    },
    {
      "inputs": [
        {
          "internalType": "uint256",
          "name": "amount",
          "type": "uint256"
        },
        {
          "internalType": "bytes32",
          "name": "ticker",
          "type": "bytes32"
        }
      ],
      "name": "deposit",
      "outputs": [],
      "stateMutability": "nonpayable",
      "type": "function"
    },
    {
      "inputs": [],
      "name": "depositEth",
      "outputs": [],
      "stateMutability": "payable",
      "type": "function"
    },
    {
      "inputs": [
        {
          "internalType": "uint256",
          "name": "amount",
          "type": "uint256"
        },
        {
          "internalType": "uint256",
          "name": "price",
          "type": "uint256"
        }
      ],
      "name": "generateNewOrder",
      "outputs": [
        {
          "components": [
            {
              "internalType": "address",
              "name": "trader",
              "type": "address"
            },
            {
              "internalType": "uint256",
              "name": "amount",
              "type": "uint256"
            },
            {
              "internalType": "uint256",
              "name": "price",
              "type": "uint256"
            },
            {
              "internalType": "bool",
              "name": "filled",
              "type": "bool"
            }
          ],
          "internalType": "struct Dex.Order",
          "name": "",
          "type": "tuple"
        }
      ],
      "stateMutability": "view",
      "type": "function"
    },
    {
      "inputs": [],
      "name": "getMyEthBalance",
      "outputs": [
        {
          "internalType": "uint256",
          "name": "",
          "type": "uint256"
        }
      ],
      "stateMutability": "view",
      "type": "function"
    },
    {
      "inputs": [
        {
          "internalType": "bytes32",
          "name": "ticker",
          "type": "bytes32"
        }
      ],
      "name": "getMyTokenBalance",
      "outputs": [
        {
          "internalType": "uint256",
          "name": "",
          "type": "uint256"
        }
      ],
      "stateMutability": "view",
      "type": "function"
    },
    {
      "inputs": [
        {
          "internalType": "bytes32",
          "name": "ticker",
          "type": "bytes32"
        },
        {
          "internalType": "enum Dex.Side",
          "name": "side",
          "type": "uint8"
        }
      ],
      "name": "getOrderBook",
      "outputs": [
        {
          "components": [
            {
              "internalType": "address",
              "name": "trader",
              "type": "address"
            },
            {
              "internalType": "uint256",
              "name": "amount",
              "type": "uint256"
            },
            {
              "internalType": "uint256",
              "name": "price",
              "type": "uint256"
            },
            {
              "internalType": "bool",
              "name": "filled",
              "type": "bool"
            }
          ],
          "internalType": "struct Dex.Order[]",
          "name": "",
          "type": "tuple[]"
        }
      ],
      "stateMutability": "view",
      "type": "function"
    },
    {
      "inputs": [
        {
          "components": [
            {
              "internalType": "address",
              "name": "trader",
              "type": "address"
            },
            {
              "internalType": "uint256",
              "name": "amount",
              "type": "uint256"
            },
            {
              "internalType": "uint256",
              "name": "price",
              "type": "uint256"
            },
            {
              "internalType": "bool",
              "name": "filled",
              "type": "bool"
            }
          ],
          "internalType": "struct Dex.Order[]",
          "name": "orders",
          "type": "tuple[]"
        },
        {
          "components": [
            {
              "internalType": "address",
              "name": "trader",
              "type": "address"
            },
            {
              "internalType": "uint256",
              "name": "amount",
              "type": "uint256"
            },
            {
              "internalType": "uint256",
              "name": "price",
              "type": "uint256"
            },
            {
              "internalType": "bool",
              "name": "filled",
              "type": "bool"
            }
          ],
          "internalType": "struct Dex.Order",
          "name": "newOrder",
          "type": "tuple"
        }
      ],
      "name": "getPositionToPlace",
      "outputs": [
        {
          "internalType": "uint256",
          "name": "",
          "type": "uint256"
        }
      ],
      "stateMutability": "pure",
      "type": "function"
    },
    {
      "inputs": [
        {
          "internalType": "enum Dex.Side",
          "name": "side",
          "type": "uint8"
        },
        {
          "internalType": "bytes32",
          "name": "ticker",
          "type": "bytes32"
        },
        {
          "internalType": "uint256",
          "name": "amount",
          "type": "uint256"
        },
        {
          "internalType": "uint256",
          "name": "price",
          "type": "uint256"
        }
      ],
      "name": "hasSufficientBalanceForLimit",
      "outputs": [],
      "stateMutability": "view",
      "type": "function"
    },
    {
      "inputs": [
        {
          "internalType": "enum Dex.Side",
          "name": "side",
          "type": "uint8"
        },
        {
          "internalType": "bytes32",
          "name": "ticker",
          "type": "bytes32"
        },
        {
          "internalType": "uint256",
          "name": "amount",
          "type": "uint256"
        }
      ],
      "name": "hasSufficientBalanceForMarket",
      "outputs": [],
      "stateMutability": "view",
      "type": "function"
    },
    {
      "inputs": [
        {
          "components": [
            {
              "internalType": "address",
              "name": "trader",
              "type": "address"
            },
            {
              "internalType": "uint256",
              "name": "amount",
              "type": "uint256"
            },
            {
              "internalType": "uint256",
              "name": "price",
              "type": "uint256"
            },
            {
              "internalType": "bool",
              "name": "filled",
              "type": "bool"
            }
          ],
          "internalType": "struct Dex.Order",
          "name": "prevOrder",
          "type": "tuple"
        },
        {
          "components": [
            {
              "internalType": "address",
              "name": "trader",
              "type": "address"
            },
            {
              "internalType": "uint256",
              "name": "amount",
              "type": "uint256"
            },
            {
              "internalType": "uint256",
              "name": "price",
              "type": "uint256"
            },
            {
              "internalType": "bool",
              "name": "filled",
              "type": "bool"
            }
          ],
          "internalType": "struct Dex.Order",
          "name": "newOrder",
          "type": "tuple"
        },
        {
          "components": [
            {
              "internalType": "address",
              "name": "trader",
              "type": "address"
            },
            {
              "internalType": "uint256",
              "name": "amount",
              "type": "uint256"
            },
            {
              "internalType": "uint256",
              "name": "price",
              "type": "uint256"
            },
            {
              "internalType": "bool",
              "name": "filled",
              "type": "bool"
            }
          ],
          "internalType": "struct Dex.Order",
          "name": "nextOrder",
          "type": "tuple"
        }
      ],
      "name": "isMiddlePosition",
      "outputs": [
        {
          "internalType": "bool",
          "name": "",
          "type": "bool"
        }
      ],
      "stateMutability": "pure",
      "type": "function"
    },
    {
      "inputs": [
        {
          "internalType": "enum Dex.Side",
          "name": "side",
          "type": "uint8"
        },
        {
          "internalType": "bytes32",
          "name": "ticker",
          "type": "bytes32"
        },
        {
          "internalType": "uint256",
          "name": "amount",
          "type": "uint256"
        }
      ],
      "name": "isOrderBookEmpty",
      "outputs": [],
      "stateMutability": "view",
      "type": "function"
    },
    {
      "inputs": [
        {
          "internalType": "uint256",
          "name": "side",
          "type": "uint256"
        },
        {
          "internalType": "bytes32",
          "name": "ticker",
          "type": "bytes32"
        },
        {
          "internalType": "uint256",
          "name": "tokenAmount",
          "type": "uint256"
        },
        {
          "internalType": "uint256",
          "name": "price",
          "type": "uint256"
        },
        {
          "internalType": "address",
          "name": "seller",
          "type": "address"
        },
        {
          "internalType": "address",
          "name": "buyer",
          "type": "address"
        }
      ],
      "name": "makeTheTransfer",
      "outputs": [],
      "stateMutability": "nonpayable",
      "type": "function"
    },
    {
      "inputs": [
        {
          "internalType": "bytes32",
          "name": "",
          "type": "bytes32"
        },
        {
          "internalType": "uint256",
          "name": "",
          "type": "uint256"
        },
        {
          "internalType": "uint256",
          "name": "",
          "type": "uint256"
        }
      ],
      "name": "orderBook",
      "outputs": [
        {
          "internalType": "address",
          "name": "trader",
          "type": "address"
        },
        {
          "internalType": "uint256",
          "name": "amount",
          "type": "uint256"
        },
        {
          "internalType": "uint256",
          "name": "price",
          "type": "uint256"
        },
        {
          "internalType": "bool",
          "name": "filled",
          "type": "bool"
        }
      ],
      "stateMutability": "view",
      "type": "function"
    },
    {
      "inputs": [],
      "name": "owner",
      "outputs": [
        {
          "internalType": "address",
          "name": "",
          "type": "address"
        }
      ],
      "stateMutability": "view",
      "type": "function"
    },
    {
      "inputs": [],
      "name": "renounceOwnership",
      "outputs": [],
      "stateMutability": "nonpayable",
      "type": "function"
    },
    {
      "inputs": [
        {
          "internalType": "bytes32",
          "name": "ticker",
          "type": "bytes32"
        },
        {
          "internalType": "enum Dex.Side",
          "name": "side",
          "type": "uint8"
        }
      ],
      "name": "resetOrderBook",
      "outputs": [
        {
          "components": [
            {
              "internalType": "address",
              "name": "trader",
              "type": "address"
            },
            {
              "internalType": "uint256",
              "name": "amount",
              "type": "uint256"
            },
            {
              "internalType": "uint256",
              "name": "price",
              "type": "uint256"
            },
            {
              "internalType": "bool",
              "name": "filled",
              "type": "bool"
            }
          ],
          "internalType": "struct Dex.Order[]",
          "name": "",
          "type": "tuple[]"
        }
      ],
      "stateMutability": "view",
      "type": "function"
    },
    {
      "inputs": [
        {
          "internalType": "uint256",
          "name": "",
          "type": "uint256"
        }
      ],
      "name": "tokenList",
      "outputs": [
        {
          "internalType": "bytes32",
          "name": "",
          "type": "bytes32"
        }
      ],
      "stateMutability": "view",
      "type": "function"
    },
    {
      "inputs": [
        {
          "internalType": "bytes32",
          "name": "",
          "type": "bytes32"
        }
      ],
      "name": "tokenMapping",
      "outputs": [
        {
          "internalType": "bytes32",
          "name": "ticker",
          "type": "bytes32"
        },
        {
          "internalType": "address",
          "name": "tokenAddress",
          "type": "address"
        }
      ],
      "stateMutability": "view",
      "type": "function"
    },
    {
      "inputs": [
        {
          "internalType": "address",
          "name": "newOwner",
          "type": "address"
        }
      ],
      "name": "transferOwnership",
      "outputs": [],
      "stateMutability": "nonpayable",
      "type": "function"
    },
    {
      "inputs": [
        {
          "internalType": "uint256",
          "name": "amount",
          "type": "uint256"
        },
        {
          "internalType": "bytes32",
          "name": "ticker",
          "type": "bytes32"
        }
      ],
      "name": "withdraw",
      "outputs": [],
      "stateMutability": "nonpayable",
      "type": "function"
    },
    {
      "inputs": [
        {
          "internalType": "uint256",
          "name": "amount",
          "type": "uint256"
        }
      ],
      "name": "withdrawEth",
      "outputs": [],
      "stateMutability": "nonpayable",
      "type": "function"
    }
  ],
  "bytecode": "0x60806040523480156200001157600080fd5b50600062000024620000c860201b60201c565b9050806000806101000a81548173ffffffffffffffffffffffffffffffffffffffff021916908373ffffffffffffffffffffffffffffffffffffffff1602179055508073ffffffffffffffffffffffffffffffffffffffff16600073ffffffffffffffffffffffffffffffffffffffff167f8be0079c531659141344cd1fd0a4f28419497f9722a3daafe3b4186f6b6457e060405160405180910390a350620000d0565b600033905090565b61436880620000e06000396000f3fe6080604052600436106101b75760003560e01c80638da5cb5b116100ec578063bae450f91161008a578063e58c1a8b11610064578063e58c1a8b14610633578063f1b928f31461065c578063f2fde38b14610685578063f7010282146106ae576101b7565b8063bae450f9146105b8578063c311d049146105e1578063c9630cb01461060a576101b7565b80639ead7222116100c65780639ead7222146104d8578063a4bc3dc514610515578063a8d2021a14610552578063ba58ea681461057b576101b7565b80638da5cb5b1461045b5780639776aacf1461048657806399ec2f1c146104af576101b7565b8063439370b1116101595780636c83d33f116101335780636c83d33f146103b55780636f3b62f9146103de578063715018a6146104075780638c9f91961461041e576101b7565b8063439370b1146103305780636147cd0b1461033a578063667cb4ba14610377576101b7565b80631f14df69116101955780631f14df6914610264578063296bd3a1146102a15780633b9a805d146102ca578063400843cf146102f3576101b7565b80630709dec8146101bc5780630bb431b6146101e75780631ea6042714610227575b600080fd5b3480156101c857600080fd5b506101d16106d7565b6040516101de9190614169565b60405180910390f35b3480156101f357600080fd5b5061020e60048036038101906102099190613ad3565b61074f565b60405161021e9493929190614028565b60405180910390f35b34801561023357600080fd5b5061024e60048036038101906102499190613d62565b6107d6565b60405161025b919061414e565b60405180910390f35b34801561027057600080fd5b5061028b600480360381019061028691906139a2565b610820565b6040516102989190614169565b60405180910390f35b3480156102ad57600080fd5b506102c860048036038101906102c39190613b71565b610845565b005b3480156102d657600080fd5b506102f160048036038101906102ec9190613c8a565b6109c8565b005b3480156102ff57600080fd5b5061031a60048036038101906103159190613bd4565b610f05565b604051610327919061408f565b60405180910390f35b610338610f30565b005b34801561034657600080fd5b50610361600480360381019061035c9190613a32565b611029565b60405161036e9190614169565b60405180910390f35b34801561038357600080fd5b5061039e60048036038101906103999190613a32565b611083565b6040516103ac9291906140c5565b60405180910390f35b3480156103c157600080fd5b506103dc60048036038101906103d79190613cd9565b6110c7565b005b3480156103ea57600080fd5b5061040560048036038101906104009190613b71565b61144f565b005b34801561041357600080fd5b5061041c611755565b005b34801561042a57600080fd5b5061044560048036038101906104409190613a97565b6118c2565b604051610452919061406d565b60405180910390f35b34801561046757600080fd5b506104706119d6565b60405161047d919061400d565b60405180910390f35b34801561049257600080fd5b506104ad60048036038101906104a89190613a5b565b6119ff565b005b3480156104bb57600080fd5b506104d660048036038101906104d19190613b22565b611b6d565b005b3480156104e457600080fd5b506104ff60048036038101906104fa9190613c25565b611bda565b60405161050c91906140aa565b60405180910390f35b34801561052157600080fd5b5061053c600480360381019061053791906139de565b611bfe565b6040516105499190614169565b60405180910390f35b34801561055e57600080fd5b5061057960048036038101906105749190613c4e565b611cce565b005b34801561058757600080fd5b506105a2600480360381019061059d9190613a97565b61200d565b6040516105af919061406d565b60405180910390f35b3480156105c457600080fd5b506105df60048036038101906105da9190613b22565b612121565b005b3480156105ed57600080fd5b5061060860048036038101906106039190613c25565b612292565b005b34801561061657600080fd5b50610631600480360381019061062c9190613c4e565b6124df565b005b34801561063f57600080fd5b5061065a60048036038101906106559190613b22565b612776565b005b34801561066857600080fd5b50610683600480360381019061067e9190613b71565b61288a565b005b34801561069157600080fd5b506106ac60048036038101906106a79190613979565b61290d565b005b3480156106ba57600080fd5b506106d560048036038101906106d09190613c8a565b612aff565b005b6000600360003373ffffffffffffffffffffffffffffffffffffffff1673ffffffffffffffffffffffffffffffffffffffff16815260200190815260200160002060007f4554480000000000000000000000000000000000000000000000000000000000815260200190815260200160002054905090565b6004602052826000526040600020602052816000526040600020818154811061077757600080fd5b906000526020600020906004020160009250925050508060000160009054906101000a900473ffffffffffffffffffffffffffffffffffffffff16908060010154908060020154908060030160009054906101000a900460ff16905084565b6107de6137c6565b60405180608001604052803373ffffffffffffffffffffffffffffffffffffffff16815260200184815260200183815260200160001515815250905092915050565b6003602052816000526040600020602052806000526040600020600091509150505481565b6000600181111561085257fe5b84600181111561085e57fe5b141561092e57610877818361303c90919063ffffffff16565b600360003373ffffffffffffffffffffffffffffffffffffffff1673ffffffffffffffffffffffffffffffffffffffff16815260200190815260200160002060007f45544800000000000000000000000000000000000000000000000000000000008152602001908152602001600020541015610929576040517f08c379a0000000000000000000000000000000000000000000000000000000008152600401610920906140ee565b60405180910390fd5b6109c2565b81600360003373ffffffffffffffffffffffffffffffffffffffff1673ffffffffffffffffffffffffffffffffffffffff16815260200190815260200160002060008581526020019081526020016000205410156109c1576040517f08c379a00000000000000000000000000000000000000000000000000000000081526004016109b89061412e565b60405180910390fd5b5b50505050565b600081905060008060005b6004600087815260200190815260200160002060008881526020019081526020016000208054905081108015610a095750600084115b8015610a13575082155b15610eeb5760006004600088815260200190815260200160002060008981526020019081526020016000208281548110610a4957fe5b906000526020600020906004020160000160009054906101000a900473ffffffffffffffffffffffffffffffffffffffff1690506004600088815260200190815260200160002060008981526020019081526020016000208281548110610aac57fe5b906000526020600020906004020160010154851015610c83576000610b1a600460008a815260200190815260200160002060008b81526020019081526020016000208481548110610af957fe5b9060005260206000209060040201600201548761303c90919063ffffffff16565b905080600360008473ffffffffffffffffffffffffffffffffffffffff1673ffffffffffffffffffffffffffffffffffffffff16815260200190815260200160002060007f455448000000000000000000000000000000000000000000000000000000000081526020019081526020016000205410610c7957610be686600460008b815260200190815260200160002060008c81526020019081526020016000208581548110610bc657fe5b9060005260206000209060040201600101546130c290919063ffffffff16565b600460008a815260200190815260200160002060008b81526020019081526020016000208481548110610c1557fe5b906000526020600020906004020160010181905550610c78898988600460008d815260200190815260200160002060008e81526020019081526020016000208781548110610c5f57fe5b90600052602060002090600402016002015433876110c7565b5b6001945050610edd565b6000610d18600460008a815260200190815260200160002060008b81526020019081526020016000208481548110610cb757fe5b906000526020600020906004020160020154600460008b815260200190815260200160002060008c81526020019081526020016000208581548110610cf857fe5b90600052602060002090600402016001015461303c90919063ffffffff16565b905080600360008473ffffffffffffffffffffffffffffffffffffffff1673ffffffffffffffffffffffffffffffffffffffff16815260200190815260200160002060007f455448000000000000000000000000000000000000000000000000000000000081526020019081526020016000205410610ed657610e1f8989600460008c815260200190815260200160002060008d81526020019081526020016000208681548110610dc557fe5b906000526020600020906004020160010154600460008d815260200190815260200160002060008e81526020019081526020016000208781548110610e0657fe5b90600052602060002090600402016002015433876110c7565b610e72600460008a815260200190815260200160002060008b81526020019081526020016000208481548110610e5157fe5b906000526020600020906004020160010154876130c290919063ffffffff16565b95506001600460008a815260200190815260200160002060008b81526020019081526020016000208481548110610ea557fe5b906000526020600020906004020160030160006101000a81548160ff02191690831515021790555060019350610edb565b600194505b505b5080806001019150506109d3565b508015610efd57610efc8587613145565b5b505050505050565b60008260400151846040015110158015610f2757508160400151836040015110155b90509392505050565b610fb334600360003373ffffffffffffffffffffffffffffffffffffffff1673ffffffffffffffffffffffffffffffffffffffff16815260200190815260200160002060007f45544800000000000000000000000000000000000000000000000000000000008152602001908152602001600020546133f190919063ffffffff16565b600360003373ffffffffffffffffffffffffffffffffffffffff1673ffffffffffffffffffffffffffffffffffffffff16815260200190815260200160002060007f4554480000000000000000000000000000000000000000000000000000000000815260200190815260200160002081905550565b6000600360003373ffffffffffffffffffffffffffffffffffffffff1673ffffffffffffffffffffffffffffffffffffffff1681526020019081526020016000206000838152602001908152602001600020549050919050565b60016020528060005260406000206000915090508060000154908060010160009054906101000a900473ffffffffffffffffffffffffffffffffffffffff16905082565b61112a84600360008573ffffffffffffffffffffffffffffffffffffffff1673ffffffffffffffffffffffffffffffffffffffff1681526020019081526020016000206000888152602001908152602001600020546130c290919063ffffffff16565b600360008473ffffffffffffffffffffffffffffffffffffffff1673ffffffffffffffffffffffffffffffffffffffff168152602001908152602001600020600087815260200190815260200160002081905550611213611194848661303c90919063ffffffff16565b600360008573ffffffffffffffffffffffffffffffffffffffff1673ffffffffffffffffffffffffffffffffffffffff16815260200190815260200160002060007f45544800000000000000000000000000000000000000000000000000000000008152602001908152602001600020546133f190919063ffffffff16565b600360008473ffffffffffffffffffffffffffffffffffffffff1673ffffffffffffffffffffffffffffffffffffffff16815260200190815260200160002060007f45544800000000000000000000000000000000000000000000000000000000008152602001908152602001600020819055506112ea84600360008473ffffffffffffffffffffffffffffffffffffffff1673ffffffffffffffffffffffffffffffffffffffff1681526020019081526020016000206000888152602001908152602001600020546133f190919063ffffffff16565b600360008373ffffffffffffffffffffffffffffffffffffffff1673ffffffffffffffffffffffffffffffffffffffff1681526020019081526020016000206000878152602001908152602001600020819055506113d3611354848661303c90919063ffffffff16565b600360008473ffffffffffffffffffffffffffffffffffffffff1673ffffffffffffffffffffffffffffffffffffffff16815260200190815260200160002060007f45544800000000000000000000000000000000000000000000000000000000008152602001908152602001600020546130c290919063ffffffff16565b600360008373ffffffffffffffffffffffffffffffffffffffff1673ffffffffffffffffffffffffffffffffffffffff16815260200190815260200160002060007f4554480000000000000000000000000000000000000000000000000000000000815260200190815260200160002081905550505050505050565b61145b84848484610845565b6000600181111561146857fe5b84600181111561147457fe5b14156115885761150f611490828461303c90919063ffffffff16565b600360003373ffffffffffffffffffffffffffffffffffffffff1673ffffffffffffffffffffffffffffffffffffffff16815260200190815260200160002060007f45544800000000000000000000000000000000000000000000000000000000008152602001908152602001600020546130c290919063ffffffff16565b600360003373ffffffffffffffffffffffffffffffffffffffff1673ffffffffffffffffffffffffffffffffffffffff16815260200190815260200160002060007f4554480000000000000000000000000000000000000000000000000000000000815260200190815260200160002081905550611640565b6115eb82600360003373ffffffffffffffffffffffffffffffffffffffff1673ffffffffffffffffffffffffffffffffffffffff1681526020019081526020016000206000868152602001908152602001600020546130c290919063ffffffff16565b600360003373ffffffffffffffffffffffffffffffffffffffff1673ffffffffffffffffffffffffffffffffffffffff1681526020019081526020016000206000858152602001908152602001600020819055505b60046000848152602001908152602001600020600085600181111561166157fe5b815260200190815260200160002060405180608001604052803373ffffffffffffffffffffffffffffffffffffffff16815260200184815260200183815260200160001515815250908060018154018082558091505060019003906000526020600020906004020160009091909190915060008201518160000160006101000a81548173ffffffffffffffffffffffffffffffffffffffff021916908373ffffffffffffffffffffffffffffffffffffffff160217905550602082015181600101556040820151816002015560608201518160030160006101000a81548160ff021916908315150217905550505050505050565b61175d613479565b73ffffffffffffffffffffffffffffffffffffffff1661177b6119d6565b73ffffffffffffffffffffffffffffffffffffffff1614611804576040517f08c379a00000000000000000000000000000000000000000000000000000000081526004018080602001828103825260208152602001807f4f776e61626c653a2063616c6c6572206973206e6f7420746865206f776e657281525060200191505060405180910390fd5b600073ffffffffffffffffffffffffffffffffffffffff1660008054906101000a900473ffffffffffffffffffffffffffffffffffffffff1673ffffffffffffffffffffffffffffffffffffffff167f8be0079c531659141344cd1fd0a4f28419497f9722a3daafe3b4186f6b6457e060405160405180910390a360008060006101000a81548173ffffffffffffffffffffffffffffffffffffffff021916908373ffffffffffffffffffffffffffffffffffffffff160217905550565b60606004600084815260200190815260200160002060008360018111156118e557fe5b8152602001908152602001600020805480602002602001604051908101604052809291908181526020016000905b828210156119ca57838290600052602060002090600402016040518060800160405290816000820160009054906101000a900473ffffffffffffffffffffffffffffffffffffffff1673ffffffffffffffffffffffffffffffffffffffff1673ffffffffffffffffffffffffffffffffffffffff16815260200160018201548152602001600282015481526020016003820160009054906101000a900460ff16151515158152505081526020019060010190611913565b50505050905092915050565b60008060009054906101000a900473ffffffffffffffffffffffffffffffffffffffff16905090565b611a07613479565b73ffffffffffffffffffffffffffffffffffffffff16611a256119d6565b73ffffffffffffffffffffffffffffffffffffffff1614611aae576040517f08c379a00000000000000000000000000000000000000000000000000000000081526004018080602001828103825260208152602001807f4f776e61626c653a2063616c6c6572206973206e6f7420746865206f776e657281525060200191505060405180910390fd5b60405180604001604052808381526020018273ffffffffffffffffffffffffffffffffffffffff16815250600160008481526020019081526020016000206000820151816000015560208201518160010160006101000a81548173ffffffffffffffffffffffffffffffffffffffff021916908373ffffffffffffffffffffffffffffffffffffffff16021790555090505060028290806001815401808255809150506001900390600052602060002001600090919091909150555050565b611b78838383612776565b611b83838383612121565b60006001811115611b9057fe5b836001811115611b9c57fe5b1415611bbd57611bb8600180811115611bb157fe5b8383612aff565b611bd5565b611bd460006001811115611bcd57fe5b83836109c8565b5b505050565b60028181548110611bea57600080fd5b906000526020600020016000915090505481565b60008083511415611c125760009050611cc8565b600183511415611c5257816040015183600081518110611c2e57fe5b6020026020010151604001511115611c495760019050611cc8565b60009050611cc8565b60005b8351811015611cc6576001845103811415611c74578351915050611cc8565b611ca8848281518110611c8357fe5b602002602001015184866001850181518110611c9b57fe5b6020026020010151610f05565b15611cb95760018101915050611cc8565b8080600101915050611c55565b505b92915050565b80600073ffffffffffffffffffffffffffffffffffffffff166001600083815260200190815260200160002060010160009054906101000a900473ffffffffffffffffffffffffffffffffffffffff1673ffffffffffffffffffffffffffffffffffffffff161415611da8576040517f08c379a00000000000000000000000000000000000000000000000000000000081526004018080602001828103825260148152602001807f746f6b656e20646f6573206e6f7420657869737400000000000000000000000081525060200191505060405180910390fd5b82600360003373ffffffffffffffffffffffffffffffffffffffff1673ffffffffffffffffffffffffffffffffffffffff1681526020019081526020016000206000848152602001908152602001600020541015611e6e576040517f08c379a00000000000000000000000000000000000000000000000000000000081526004018080602001828103825260128152602001807f496e7375666669656e742062616c616e6365000000000000000000000000000081525060200191505060405180910390fd5b611ed183600360003373ffffffffffffffffffffffffffffffffffffffff1673ffffffffffffffffffffffffffffffffffffffff1681526020019081526020016000206000858152602001908152602001600020546130c290919063ffffffff16565b600360003373ffffffffffffffffffffffffffffffffffffffff1673ffffffffffffffffffffffffffffffffffffffff1681526020019081526020016000206000848152602001908152602001600020819055506001600083815260200190815260200160002060010160009054906101000a900473ffffffffffffffffffffffffffffffffffffffff1673ffffffffffffffffffffffffffffffffffffffff1663a9059cbb33856040518363ffffffff1660e01b8152600401808373ffffffffffffffffffffffffffffffffffffffff16815260200182815260200192505050602060405180830381600087803b158015611fcc57600080fd5b505af1158015611fe0573d6000803e3d6000fd5b505050506040513d6020811015611ff657600080fd5b810190808051906020019092919050505050505050565b606060046000848152602001908152602001600020600083600181111561203057fe5b8152602001908152602001600020805480602002602001604051908101604052809291908181526020016000905b8282101561211557838290600052602060002090600402016040518060800160405290816000820160009054906101000a900473ffffffffffffffffffffffffffffffffffffffff1673ffffffffffffffffffffffffffffffffffffffff1673ffffffffffffffffffffffffffffffffffffffff16815260200160018201548152602001600282015481526020016003820160009054906101000a900460ff1615151515815250508152602001906001019061205e565b50505050905092915050565b6000600181111561212e57fe5b83600181111561213a57fe5b14156121f8576000600360003373ffffffffffffffffffffffffffffffffffffffff1673ffffffffffffffffffffffffffffffffffffffff16815260200190815260200160002060007f4554480000000000000000000000000000000000000000000000000000000000815260200190815260200160002054116121f3576040517f08c379a00000000000000000000000000000000000000000000000000000000081526004016121ea906140ee565b60405180910390fd5b61228d565b6001600360003373ffffffffffffffffffffffffffffffffffffffff1673ffffffffffffffffffffffffffffffffffffffff168152602001908152602001600020600084815260200190815260200160002054101561228c576040517f08c379a00000000000000000000000000000000000000000000000000000000081526004016122839061412e565b60405180910390fd5b5b505050565b80600360003373ffffffffffffffffffffffffffffffffffffffff1673ffffffffffffffffffffffffffffffffffffffff16815260200190815260200160002060007f45544800000000000000000000000000000000000000000000000000000000008152602001908152602001600020541015612378576040517f08c379a00000000000000000000000000000000000000000000000000000000081526004018080602001828103825260128152602001807f496e7375666669656e742062616c616e6365000000000000000000000000000081525060200191505060405180910390fd5b6123fb81600360003373ffffffffffffffffffffffffffffffffffffffff1673ffffffffffffffffffffffffffffffffffffffff16815260200190815260200160002060007f45544800000000000000000000000000000000000000000000000000000000008152602001908152602001600020546130c290919063ffffffff16565b600360003373ffffffffffffffffffffffffffffffffffffffff1673ffffffffffffffffffffffffffffffffffffffff16815260200190815260200160002060007f45544800000000000000000000000000000000000000000000000000000000008152602001908152602001600020819055506000803373ffffffffffffffffffffffffffffffffffffffff168360405180600001905060006040518083038185875af1925050503d80600081146124d0576040519150601f19603f3d011682016040523d82523d6000602084013e6124d5565b606091505b5091509150505050565b80600073ffffffffffffffffffffffffffffffffffffffff166001600083815260200190815260200160002060010160009054906101000a900473ffffffffffffffffffffffffffffffffffffffff1673ffffffffffffffffffffffffffffffffffffffff1614156125b9576040517f08c379a00000000000000000000000000000000000000000000000000000000081526004018080602001828103825260148152602001807f746f6b656e20646f6573206e6f7420657869737400000000000000000000000081525060200191505060405180910390fd5b6001600083815260200190815260200160002060010160009054906101000a900473ffffffffffffffffffffffffffffffffffffffff1673ffffffffffffffffffffffffffffffffffffffff166323b872dd3330866040518463ffffffff1660e01b8152600401808473ffffffffffffffffffffffffffffffffffffffff1681526020018373ffffffffffffffffffffffffffffffffffffffff1681526020018281526020019350505050602060405180830381600087803b15801561267e57600080fd5b505af1158015612692573d6000803e3d6000fd5b505050506040513d60208110156126a857600080fd5b81019080805190602001909291905050505061271d83600360003373ffffffffffffffffffffffffffffffffffffffff1673ffffffffffffffffffffffffffffffffffffffff1681526020019081526020016000206000858152602001908152602001600020546133f190919063ffffffff16565b600360003373ffffffffffffffffffffffffffffffffffffffff1673ffffffffffffffffffffffffffffffffffffffff168152602001908152602001600020600084815260200190815260200160002081905550505050565b6000600181111561278357fe5b83600181111561278f57fe5b141561280f5760006004600084815260200190815260200160002060006001808111156127b857fe5b8152602001908152602001600020805490501161280a576040517f08c379a00000000000000000000000000000000000000000000000000000000081526004016128019061410e565b60405180910390fd5b612885565b600060046000848152602001908152602001600020600080600181111561283257fe5b81526020019081526020016000208054905011612884576040517f08c379a000000000000000000000000000000000000000000000000000000000815260040161287b9061410e565b60405180910390fd5b5b505050565b61289684848484610845565b6129076004600085815260200190815260200160002060008660018111156128ba57fe5b815260200190815260200160002060405180608001604052803373ffffffffffffffffffffffffffffffffffffffff16815260200185815260200184815260200160001515815250613481565b50505050565b612915613479565b73ffffffffffffffffffffffffffffffffffffffff166129336119d6565b73ffffffffffffffffffffffffffffffffffffffff16146129bc576040517f08c379a00000000000000000000000000000000000000000000000000000000081526004018080602001828103825260208152602001807f4f776e61626c653a2063616c6c6572206973206e6f7420746865206f776e657281525060200191505060405180910390fd5b600073ffffffffffffffffffffffffffffffffffffffff168173ffffffffffffffffffffffffffffffffffffffff161415612a42576040517f08c379a00000000000000000000000000000000000000000000000000000000081526004018080602001828103825260268152602001806142ec6026913960400191505060405180910390fd5b8073ffffffffffffffffffffffffffffffffffffffff1660008054906101000a900473ffffffffffffffffffffffffffffffffffffffff1673ffffffffffffffffffffffffffffffffffffffff167f8be0079c531659141344cd1fd0a4f28419497f9722a3daafe3b4186f6b6457e060405160405180910390a3806000806101000a81548173ffffffffffffffffffffffffffffffffffffffff021916908373ffffffffffffffffffffffffffffffffffffffff16021790555050565b600081905060008060005b6004600087815260200190815260200160002060008881526020019081526020016000208054905081108015612b405750600084115b8015612b4a575082155b156130225760006004600088815260200190815260200160002060008981526020019081526020016000208281548110612b8057fe5b906000526020600020906004020160000160009054906101000a900473ffffffffffffffffffffffffffffffffffffffff1690506004600088815260200190815260200160002060008981526020019081526020016000208281548110612be357fe5b906000526020600020906004020160010154851015612dba576000612c51600460008a815260200190815260200160002060008b81526020019081526020016000208481548110612c3057fe5b9060005260206000209060040201600201548761303c90919063ffffffff16565b905080600360008473ffffffffffffffffffffffffffffffffffffffff1673ffffffffffffffffffffffffffffffffffffffff16815260200190815260200160002060007f455448000000000000000000000000000000000000000000000000000000000081526020019081526020016000205410612db057612d1d86600460008b815260200190815260200160002060008c81526020019081526020016000208581548110612cfd57fe5b9060005260206000209060040201600101546130c290919063ffffffff16565b600460008a815260200190815260200160002060008b81526020019081526020016000208481548110612d4c57fe5b906000526020600020906004020160010181905550612daf898988600460008d815260200190815260200160002060008e81526020019081526020016000208781548110612d9657fe5b90600052602060002090600402016002015486336110c7565b5b6001945050613014565b6000612e4f600460008a815260200190815260200160002060008b81526020019081526020016000208481548110612dee57fe5b906000526020600020906004020160020154600460008b815260200190815260200160002060008c81526020019081526020016000208581548110612e2f57fe5b90600052602060002090600402016001015461303c90919063ffffffff16565b905080600360008473ffffffffffffffffffffffffffffffffffffffff1673ffffffffffffffffffffffffffffffffffffffff16815260200190815260200160002060007f45544800000000000000000000000000000000000000000000000000000000008152602001908152602001600020541061300d57612f568989600460008c815260200190815260200160002060008d81526020019081526020016000208681548110612efc57fe5b906000526020600020906004020160010154600460008d815260200190815260200160002060008e81526020019081526020016000208781548110612f3d57fe5b90600052602060002090600402016002015486336110c7565b612fa9600460008a815260200190815260200160002060008b81526020019081526020016000208481548110612f8857fe5b906000526020600020906004020160010154876130c290919063ffffffff16565b95506001600460008a815260200190815260200160002060008b81526020019081526020016000208481548110612fdc57fe5b906000526020600020906004020160030160006101000a81548160ff02191690831515021790555060019350613012565b600194505b505b508080600101915050612b0a565b508015613034576130338587613145565b5b505050505050565b60008083141561304f57600090506130bc565b600082840290508284828161306057fe5b04146130b7576040517f08c379a00000000000000000000000000000000000000000000000000000000081526004018080602001828103825260218152602001806143126021913960400191505060405180910390fd5b809150505b92915050565b60008282111561313a576040517f08c379a000000000000000000000000000000000000000000000000000000000815260040180806020018281038252601e8152602001807f536166654d6174683a207375627472616374696f6e206f766572666c6f77000081525060200191505060405180910390fd5b818303905092915050565b6000600460008481526020019081526020016000206000838152602001908152602001600020805490501161317957600080fd5b60005b600460008481526020019081526020016000206000838152602001908152602001600020805490508110156133ec5760046000848152602001908152602001600020600083815260200190815260200160002081815481106131da57fe5b906000526020600020906004020160030160009054906101000a900460ff16156133df57600460008481526020019081526020016000206000838152602001908152602001600020600160046000868152602001908152602001600020600085815260200190815260200160002080549050038154811061325757fe5b9060005260206000209060040201600460008581526020019081526020016000206000848152602001908152602001600020828154811061329457fe5b90600052602060002090600402016000820160009054906101000a900473ffffffffffffffffffffffffffffffffffffffff168160000160006101000a81548173ffffffffffffffffffffffffffffffffffffffff021916908373ffffffffffffffffffffffffffffffffffffffff16021790555060018201548160010155600282015481600201556003820160009054906101000a900460ff168160030160006101000a81548160ff02191690831515021790555090505060046000848152602001908152602001600020600083815260200190815260200160002080548061337a57fe5b6001900381819060005260206000209060040201600080820160006101000a81549073ffffffffffffffffffffffffffffffffffffffff0219169055600182016000905560028201600090556003820160006101000a81549060ff0219169055505090555b808060010191505061317c565b505050565b60008082840190508381101561346f576040517f08c379a000000000000000000000000000000000000000000000000000000000815260040180806020018281038252601b8152602001807f536166654d6174683a206164646974696f6e206f766572666c6f77000000000081525060200191505060405180910390fd5b8091505092915050565b600033905090565b600061356883805480602002602001604051908101604052809291908181526020016000905b8282101561355e57838290600052602060002090600402016040518060800160405290816000820160009054906101000a900473ffffffffffffffffffffffffffffffffffffffff1673ffffffffffffffffffffffffffffffffffffffff1673ffffffffffffffffffffffffffffffffffffffff16815260200160018201548152602001600282015481526020016003820160009054906101000a900460ff161515151581525050815260200190600101906134a7565b5050505083611bfe565b905082805490508110613622578282908060018154018082558091505060019003906000526020600020906004020160009091909190915060008201518160000160006101000a81548173ffffffffffffffffffffffffffffffffffffffff021916908373ffffffffffffffffffffffffffffffffffffffff160217905550602082015181600101556040820151816002015560608201518160030160006101000a81548160ff02191690831515021790555050506137c1565b6000600184805490500390505b8181106137265783818154811061364257fe5b906000526020600020906004020184600183018154811061365f57fe5b90600052602060002090600402016000820160009054906101000a900473ffffffffffffffffffffffffffffffffffffffff168160000160006101000a81548173ffffffffffffffffffffffffffffffffffffffff021916908373ffffffffffffffffffffffffffffffffffffffff16021790555060018201548160010155600282015481600201556003820160009054906101000a900460ff168160030160006101000a81548160ff02191690831515021790555090505080806001900391505061362f565b508183828154811061373457fe5b906000526020600020906004020160008201518160000160006101000a81548173ffffffffffffffffffffffffffffffffffffffff021916908373ffffffffffffffffffffffffffffffffffffffff160217905550602082015181600101556040820151816002015560608201518160030160006101000a81548160ff0219169083151502179055509050505b505050565b6040518060800160405280600073ffffffffffffffffffffffffffffffffffffffff16815260200160008152602001600081526020016000151581525090565b6000613819613814846141b5565b614184565b9050808382526020820190508285608086028201111561383857600080fd5b60005b85811015613868578161384e88826138f0565b84526020840193506080830192505060018101905061383b565b5050509392505050565b6000813590506138818161427f565b92915050565b600082601f83011261389857600080fd5b81356138a8848260208601613806565b91505092915050565b6000813590506138c081614296565b92915050565b6000813590506138d5816142ad565b92915050565b6000813590506138ea816142c4565b92915050565b60006080828403121561390257600080fd5b61390c6080614184565b9050600061391c84828501613872565b600083015250602061393084828501613964565b602083015250604061394484828501613964565b6040830152506060613958848285016138b1565b60608301525092915050565b600081359050613973816142d4565b92915050565b60006020828403121561398b57600080fd5b600061399984828501613872565b91505092915050565b600080604083850312156139b557600080fd5b60006139c385828601613872565b92505060206139d4858286016138c6565b9150509250929050565b60008060a083850312156139f157600080fd5b600083013567ffffffffffffffff811115613a0b57600080fd5b613a1785828601613887565b9250506020613a28858286016138f0565b9150509250929050565b600060208284031215613a4457600080fd5b6000613a52848285016138c6565b91505092915050565b60008060408385031215613a6e57600080fd5b6000613a7c858286016138c6565b9250506020613a8d85828601613872565b9150509250929050565b60008060408385031215613aaa57600080fd5b6000613ab8858286016138c6565b9250506020613ac9858286016138db565b9150509250929050565b600080600060608486031215613ae857600080fd5b6000613af6868287016138c6565b9350506020613b0786828701613964565b9250506040613b1886828701613964565b9150509250925092565b600080600060608486031215613b3757600080fd5b6000613b45868287016138db565b9350506020613b56868287016138c6565b9250506040613b6786828701613964565b9150509250925092565b60008060008060808587031215613b8757600080fd5b6000613b95878288016138db565b9450506020613ba6878288016138c6565b9350506040613bb787828801613964565b9250506060613bc887828801613964565b91505092959194509250565b60008060006101808486031215613bea57600080fd5b6000613bf8868287016138f0565b9350506080613c09868287016138f0565b925050610100613c1b868287016138f0565b9150509250925092565b600060208284031215613c3757600080fd5b6000613c4584828501613964565b91505092915050565b60008060408385031215613c6157600080fd5b6000613c6f85828601613964565b9250506020613c80858286016138c6565b9150509250929050565b600080600060608486031215613c9f57600080fd5b6000613cad86828701613964565b9350506020613cbe868287016138c6565b9250506040613ccf86828701613964565b9150509250925092565b60008060008060008060c08789031215613cf257600080fd5b6000613d0089828a01613964565b9650506020613d1189828a016138c6565b9550506040613d2289828a01613964565b9450506060613d3389828a01613964565b9350506080613d4489828a01613872565b92505060a0613d5589828a01613872565b9150509295509295509295565b60008060408385031215613d7557600080fd5b6000613d8385828601613964565b9250506020613d9485828601613964565b9150509250929050565b6000613daa8383613f45565b60808301905092915050565b613dbf8161422b565b82525050565b613dce8161422b565b82525050565b6000613ddf826141f1565b613de98185614209565b9350613df4836141e1565b8060005b83811015613e25578151613e0c8882613d9e565b9750613e17836141fc565b925050600181019050613df8565b5085935050505092915050565b613e3b8161423d565b82525050565b613e4a8161423d565b82525050565b613e5981614249565b82525050565b6000613e6c60168361421a565b91507f496e7375666669656e74206574682062616c616e6365000000000000000000006000830152602082019050919050565b6000613eac602a8361421a565b91507f546865206f7264657220626f6f6b20697320656d70747920666f72207468697360008301527f206f7065726174696f6e000000000000000000000000000000000000000000006020830152604082019050919050565b6000613f1260188361421a565b91507f496e7375666669656e7420746f6b656e2062616c616e636500000000000000006000830152602082019050919050565b608082016000820151613f5b6000850182613db6565b506020820151613f6e6020850182613fef565b506040820151613f816040850182613fef565b506060820151613f946060850182613e32565b50505050565b608082016000820151613fb06000850182613db6565b506020820151613fc36020850182613fef565b506040820151613fd66040850182613fef565b506060820151613fe96060850182613e32565b50505050565b613ff881614273565b82525050565b61400781614273565b82525050565b60006020820190506140226000830184613dc5565b92915050565b600060808201905061403d6000830187613dc5565b61404a6020830186613ffe565b6140576040830185613ffe565b6140646060830184613e41565b95945050505050565b600060208201905081810360008301526140878184613dd4565b905092915050565b60006020820190506140a46000830184613e41565b92915050565b60006020820190506140bf6000830184613e50565b92915050565b60006040820190506140da6000830185613e50565b6140e76020830184613dc5565b9392505050565b6000602082019050818103600083015261410781613e5f565b9050919050565b6000602082019050818103600083015261412781613e9f565b9050919050565b6000602082019050818103600083015261414781613f05565b9050919050565b60006080820190506141636000830184613f9a565b92915050565b600060208201905061417e6000830184613ffe565b92915050565b6000604051905081810181811067ffffffffffffffff821117156141ab576141aa61427d565b5b8060405250919050565b600067ffffffffffffffff8211156141d0576141cf61427d565b5b602082029050602081019050919050565b6000819050602082019050919050565b600081519050919050565b6000602082019050919050565b600082825260208201905092915050565b600082825260208201905092915050565b600061423682614253565b9050919050565b60008115159050919050565b6000819050919050565b600073ffffffffffffffffffffffffffffffffffffffff82169050919050565b6000819050919050565bfe5b6142888161422b565b811461429357600080fd5b50565b61429f8161423d565b81146142aa57600080fd5b50565b6142b681614249565b81146142c157600080fd5b50565b600281106142d157600080fd5b50565b6142dd81614273565b81146142e857600080fd5b5056fe4f776e61626c653a206e6577206f776e657220697320746865207a65726f2061646472657373536166654d6174683a206d756c7469706c69636174696f6e206f766572666c6f77a26469706673582212209005ba7d809cd91b6e465b86d9f59be61da2453577d28dd86695da094f83315e64736f6c63430007060033",
  "linkReferences": {},
  "deployedLinkReferences": {}
}