{
  "_format": "hh-sol-artifact-1",
  "contractName": "Dex",
  "sourceName": "contracts/Dex.sol",
  "abi": [
    {
      "anonymous": false,
      "inputs": [
        {
          "indexed": true,
          "internalType": "address",
          "name": "previousOwner",
          "type": "address"
        },
        {
          "indexed": true,
          "internalType": "address",
          "name": "newOwner",
          "type": "address"
        }
      ],
      "name": "OwnershipTransferred",
      "type": "event"
    },
    {
      "inputs": [
        {
          "internalType": "bytes32",
          "name": "ticker",
          "type": "bytes32"
        },
        {
          "internalType": "address",
          "name": "tokenAddress",
          "type": "address"
        }
      ],
      "name": "addToken",
      "outputs": [],
      "stateMutability": "nonpayable",
      "type": "function"
    },
    {
      "inputs": [
        {
          "internalType": "address",
          "name": "",
          "type": "address"
        },
        {
          "internalType": "bytes32",
          "name": "",
          "type": "bytes32"
        }
      ],
      "name": "balances",
      "outputs": [
        {
          "internalType": "uint256",
          "name": "",
          "type": "uint256"
        }
      ],
      "stateMutability": "view",
      "type": "function"
    },
    {
      "inputs": [
        {
          "internalType": "enum Dex.Side",
          "name": "side",
          "type": "uint8"
        },
        {
          "internalType": "bytes32",
          "name": "ticker",
          "type": "bytes32"
        },
        {
          "internalType": "uint256",
          "name": "amount",
          "type": "uint256"
        }
      ],
      "name": "createBuyMarketOrder",
      "outputs": [],
      "stateMutability": "nonpayable",
      "type": "function"
    },
    {
      "inputs": [
        {
          "internalType": "enum Dex.Side",
          "name": "side",
          "type": "uint8"
        },
        {
          "internalType": "bytes32",
          "name": "ticker",
          "type": "bytes32"
        },
        {
          "internalType": "uint256",
          "name": "amount",
          "type": "uint256"
        },
        {
          "internalType": "uint256",
          "name": "price",
          "type": "uint256"
        }
      ],
      "name": "createLimitOrder",
      "outputs": [],
      "stateMutability": "nonpayable",
      "type": "function"
    },
    {
      "inputs": [
        {
          "internalType": "enum Dex.Side",
          "name": "side",
          "type": "uint8"
        },
        {
          "internalType": "bytes32",
          "name": "ticker",
          "type": "bytes32"
        },
        {
          "internalType": "uint256",
          "name": "amount",
          "type": "uint256"
        }
      ],
      "name": "createMarketOrder",
      "outputs": [],
      "stateMutability": "nonpayable",
      "type": "function"
    },
    {
      "inputs": [
        {
          "internalType": "enum Dex.Side",
          "name": "side",
          "type": "uint8"
        },
        {
          "internalType": "bytes32",
          "name": "ticker",
          "type": "bytes32"
        },
        {
          "internalType": "uint256",
          "name": "amount",
          "type": "uint256"
        }
      ],
      "name": "createSellMarketOrder",
      "outputs": [],
      "stateMutability": "nonpayable",
      "type": "function"
    },
    {
      "inputs": [
        {
          "internalType": "enum Dex.Side",
          "name": "side",
          "type": "uint8"
        },
        {
          "internalType": "bytes32",
          "name": "ticker",
          "type": "bytes32"
        },
        {
          "internalType": "uint256",
          "name": "amount",
          "type": "uint256"
        },
        {
          "internalType": "uint256",
          "name": "price",
          "type": "uint256"
        }
      ],
      "name": "createSortedLimitOrder",
      "outputs": [],
      "stateMutability": "nonpayable",
      "type": "function"
    },
    {
      "inputs": [
        {
          "internalType": "uint256",
          "name": "amount",
          "type": "uint256"
        },
        {
          "internalType": "bytes32",
          "name": "ticker",
          "type": "bytes32"
        }
      ],
      "name": "deposit",
      "outputs": [],
      "stateMutability": "nonpayable",
      "type": "function"
    },
    {
      "inputs": [],
      "name": "depositEth",
      "outputs": [],
      "stateMutability": "payable",
      "type": "function"
    },
    {
      "inputs": [
        {
          "internalType": "uint256",
          "name": "amount",
          "type": "uint256"
        },
        {
          "internalType": "uint256",
          "name": "price",
          "type": "uint256"
        }
      ],
      "name": "generateNewOrder",
      "outputs": [
        {
          "components": [
            {
              "internalType": "address",
              "name": "trader",
              "type": "address"
            },
            {
              "internalType": "uint256",
              "name": "amount",
              "type": "uint256"
            },
            {
              "internalType": "uint256",
              "name": "price",
              "type": "uint256"
            }
          ],
          "internalType": "struct Dex.Order",
          "name": "",
          "type": "tuple"
        }
      ],
      "stateMutability": "view",
      "type": "function"
    },
    {
      "inputs": [
        {
          "internalType": "bytes32",
          "name": "ticker",
          "type": "bytes32"
        },
        {
          "internalType": "enum Dex.Side",
          "name": "side",
          "type": "uint8"
        }
      ],
      "name": "getOrderBook",
      "outputs": [
        {
          "components": [
            {
              "internalType": "address",
              "name": "trader",
              "type": "address"
            },
            {
              "internalType": "uint256",
              "name": "amount",
              "type": "uint256"
            },
            {
              "internalType": "uint256",
              "name": "price",
              "type": "uint256"
            }
          ],
          "internalType": "struct Dex.Order[]",
          "name": "",
          "type": "tuple[]"
        }
      ],
      "stateMutability": "view",
      "type": "function"
    },
    {
      "inputs": [
        {
          "components": [
            {
              "internalType": "address",
              "name": "trader",
              "type": "address"
            },
            {
              "internalType": "uint256",
              "name": "amount",
              "type": "uint256"
            },
            {
              "internalType": "uint256",
              "name": "price",
              "type": "uint256"
            }
          ],
          "internalType": "struct Dex.Order[]",
          "name": "orders",
          "type": "tuple[]"
        },
        {
          "components": [
            {
              "internalType": "address",
              "name": "trader",
              "type": "address"
            },
            {
              "internalType": "uint256",
              "name": "amount",
              "type": "uint256"
            },
            {
              "internalType": "uint256",
              "name": "price",
              "type": "uint256"
            }
          ],
          "internalType": "struct Dex.Order",
          "name": "newOrder",
          "type": "tuple"
        }
      ],
      "name": "getPositionToPlace",
      "outputs": [
        {
          "internalType": "uint256",
          "name": "",
          "type": "uint256"
        }
      ],
      "stateMutability": "pure",
      "type": "function"
    },
    {
      "inputs": [
        {
          "internalType": "bytes32",
          "name": "token",
          "type": "bytes32"
        }
      ],
      "name": "getTokenBalance",
      "outputs": [
        {
          "internalType": "uint256",
          "name": "",
          "type": "uint256"
        }
      ],
      "stateMutability": "nonpayable",
      "type": "function"
    },
    {
      "inputs": [
        {
          "internalType": "enum Dex.Side",
          "name": "side",
          "type": "uint8"
        },
        {
          "internalType": "bytes32",
          "name": "ticker",
          "type": "bytes32"
        },
        {
          "internalType": "uint256",
          "name": "amount",
          "type": "uint256"
        },
        {
          "internalType": "uint256",
          "name": "price",
          "type": "uint256"
        }
      ],
      "name": "hasSufficientBalanceForLimit",
      "outputs": [],
      "stateMutability": "view",
      "type": "function"
    },
    {
      "inputs": [
        {
          "internalType": "enum Dex.Side",
          "name": "side",
          "type": "uint8"
        },
        {
          "internalType": "bytes32",
          "name": "ticker",
          "type": "bytes32"
        },
        {
          "internalType": "uint256",
          "name": "amount",
          "type": "uint256"
        }
      ],
      "name": "hasSufficientBalanceForMarket",
      "outputs": [],
      "stateMutability": "view",
      "type": "function"
    },
    {
      "inputs": [
        {
          "components": [
            {
              "internalType": "address",
              "name": "trader",
              "type": "address"
            },
            {
              "internalType": "uint256",
              "name": "amount",
              "type": "uint256"
            },
            {
              "internalType": "uint256",
              "name": "price",
              "type": "uint256"
            }
          ],
          "internalType": "struct Dex.Order",
          "name": "prevOrder",
          "type": "tuple"
        },
        {
          "components": [
            {
              "internalType": "address",
              "name": "trader",
              "type": "address"
            },
            {
              "internalType": "uint256",
              "name": "amount",
              "type": "uint256"
            },
            {
              "internalType": "uint256",
              "name": "price",
              "type": "uint256"
            }
          ],
          "internalType": "struct Dex.Order",
          "name": "newOrder",
          "type": "tuple"
        },
        {
          "components": [
            {
              "internalType": "address",
              "name": "trader",
              "type": "address"
            },
            {
              "internalType": "uint256",
              "name": "amount",
              "type": "uint256"
            },
            {
              "internalType": "uint256",
              "name": "price",
              "type": "uint256"
            }
          ],
          "internalType": "struct Dex.Order",
          "name": "nextOrder",
          "type": "tuple"
        }
      ],
      "name": "isMiddlePosition",
      "outputs": [
        {
          "internalType": "bool",
          "name": "",
          "type": "bool"
        }
      ],
      "stateMutability": "pure",
      "type": "function"
    },
    {
      "inputs": [
        {
          "internalType": "enum Dex.Side",
          "name": "side",
          "type": "uint8"
        },
        {
          "internalType": "bytes32",
          "name": "ticker",
          "type": "bytes32"
        },
        {
          "internalType": "uint256",
          "name": "amount",
          "type": "uint256"
        }
      ],
      "name": "isOrderBookEmpty",
      "outputs": [],
      "stateMutability": "view",
      "type": "function"
    },
    {
      "inputs": [
        {
          "internalType": "bytes32",
          "name": "",
          "type": "bytes32"
        },
        {
          "internalType": "uint256",
          "name": "",
          "type": "uint256"
        },
        {
          "internalType": "uint256",
          "name": "",
          "type": "uint256"
        }
      ],
      "name": "orderBook",
      "outputs": [
        {
          "internalType": "address",
          "name": "trader",
          "type": "address"
        },
        {
          "internalType": "uint256",
          "name": "amount",
          "type": "uint256"
        },
        {
          "internalType": "uint256",
          "name": "price",
          "type": "uint256"
        }
      ],
      "stateMutability": "view",
      "type": "function"
    },
    {
      "inputs": [],
      "name": "owner",
      "outputs": [
        {
          "internalType": "address",
          "name": "",
          "type": "address"
        }
      ],
      "stateMutability": "view",
      "type": "function"
    },
    {
      "inputs": [],
      "name": "renounceOwnership",
      "outputs": [],
      "stateMutability": "nonpayable",
      "type": "function"
    },
    {
      "inputs": [
        {
          "internalType": "bytes32",
          "name": "ticker",
          "type": "bytes32"
        },
        {
          "internalType": "enum Dex.Side",
          "name": "side",
          "type": "uint8"
        }
      ],
      "name": "resetOrderBook",
      "outputs": [
        {
          "components": [
            {
              "internalType": "address",
              "name": "trader",
              "type": "address"
            },
            {
              "internalType": "uint256",
              "name": "amount",
              "type": "uint256"
            },
            {
              "internalType": "uint256",
              "name": "price",
              "type": "uint256"
            }
          ],
          "internalType": "struct Dex.Order[]",
          "name": "",
          "type": "tuple[]"
        }
      ],
      "stateMutability": "view",
      "type": "function"
    },
    {
      "inputs": [
        {
          "internalType": "uint256",
          "name": "",
          "type": "uint256"
        }
      ],
      "name": "tokenList",
      "outputs": [
        {
          "internalType": "bytes32",
          "name": "",
          "type": "bytes32"
        }
      ],
      "stateMutability": "view",
      "type": "function"
    },
    {
      "inputs": [
        {
          "internalType": "bytes32",
          "name": "",
          "type": "bytes32"
        }
      ],
      "name": "tokenMapping",
      "outputs": [
        {
          "internalType": "bytes32",
          "name": "ticker",
          "type": "bytes32"
        },
        {
          "internalType": "address",
          "name": "tokenAddress",
          "type": "address"
        }
      ],
      "stateMutability": "view",
      "type": "function"
    },
    {
      "inputs": [
        {
          "internalType": "address",
          "name": "newOwner",
          "type": "address"
        }
      ],
      "name": "transferOwnership",
      "outputs": [],
      "stateMutability": "nonpayable",
      "type": "function"
    },
    {
      "inputs": [
        {
          "internalType": "uint256",
          "name": "amount",
          "type": "uint256"
        },
        {
          "internalType": "bytes32",
          "name": "ticker",
          "type": "bytes32"
        }
      ],
      "name": "withdraw",
      "outputs": [],
      "stateMutability": "nonpayable",
      "type": "function"
    },
    {
      "inputs": [
        {
          "internalType": "uint256",
          "name": "amount",
          "type": "uint256"
        }
      ],
      "name": "withdrawEth",
      "outputs": [],
      "stateMutability": "nonpayable",
      "type": "function"
    }
  ],
  "bytecode": "0x60806040523480156200001157600080fd5b50600062000024620000c860201b60201c565b9050806000806101000a81548173ffffffffffffffffffffffffffffffffffffffff021916908373ffffffffffffffffffffffffffffffffffffffff1602179055508073ffffffffffffffffffffffffffffffffffffffff16600073ffffffffffffffffffffffffffffffffffffffff167f8be0079c531659141344cd1fd0a4f28419497f9722a3daafe3b4186f6b6457e060405160405180910390a350620000d0565b600033905090565b61359c80620000e06000396000f3fe6080604052600436106101815760003560e01c80639ead7222116100d1578063c311d0491161008a578063d752491a11610064578063d752491a14610594578063e58c1a8b146105d1578063f1b928f3146105fa578063f2fde38b1461062357610181565b8063c311d04914610519578063c9630cb014610542578063d0e3bd761461056b57610181565b80639ead7222146103e7578063a7dc110f14610424578063a8d2021a1461044d578063b23712d914610476578063ba58ea68146104b3578063bae450f9146104f057610181565b80636f3b62f91161013e5780638c9f9196116101185780638c9f91961461032d5780638da5cb5b1461036a5780639776aacf1461039557806399ec2f1c146103be57610181565b80636f3b62f9146102b0578063715018a6146102d957806388db6ac6146102f057610181565b80630bb431b6146101865780631ea60427146101c55780631f14df6914610202578063296bd3a11461023f578063439370b114610268578063667cb4ba14610272575b600080fd5b34801561019257600080fd5b506101ad60048036038101906101a89190612e3a565b61064c565b6040516101bc93929190613281565b60405180910390f35b3480156101d157600080fd5b506101ec60048036038101906101e79190612ff0565b6106c0565b6040516101f99190613399565b60405180910390f35b34801561020e57600080fd5b5061022960048036038101906102249190612d09565b610701565b60405161023691906133b4565b60405180910390f35b34801561024b57600080fd5b5061026660048036038101906102619190612ed8565b610726565b005b6102706108a9565b005b34801561027e57600080fd5b5061029960048036038101906102949190612d99565b6109a2565b6040516102a7929190613310565b60405180910390f35b3480156102bc57600080fd5b506102d760048036038101906102d29190612ed8565b6109e6565b005b3480156102e557600080fd5b506102ee610ade565b005b3480156102fc57600080fd5b5061031760048036038101906103129190612d99565b610c4b565b60405161032491906133b4565b60405180910390f35b34801561033957600080fd5b50610354600480360381019061034f9190612dfe565b610ca5565b60405161036191906132b8565b60405180910390f35b34801561037657600080fd5b5061037f610d9e565b60405161038c9190613266565b60405180910390f35b3480156103a157600080fd5b506103bc60048036038101906103b79190612dc2565b610dc7565b005b3480156103ca57600080fd5b506103e560048036038101906103e09190612e89565b610f35565b005b3480156103f357600080fd5b5061040e60048036038101906104099190612f8b565b610f50565b60405161041b91906132f5565b60405180910390f35b34801561043057600080fd5b5061044b60048036038101906104469190612e89565b610f74565b005b34801561045957600080fd5b50610474600480360381019061046f9190612fb4565b6113ba565b005b34801561048257600080fd5b5061049d60048036038101906104989190612f3b565b6116f9565b6040516104aa91906132da565b60405180910390f35b3480156104bf57600080fd5b506104da60048036038101906104d59190612dfe565b611724565b6040516104e791906132b8565b60405180910390f35b3480156104fc57600080fd5b5061051760048036038101906105129190612e89565b61181d565b005b34801561052557600080fd5b50610540600480360381019061053b9190612f8b565b61198f565b005b34801561054e57600080fd5b5061056960048036038101906105649190612fb4565b611bdc565b005b34801561057757600080fd5b50610592600480360381019061058d9190612e89565b611e73565b005b3480156105a057600080fd5b506105bb60048036038101906105b69190612d45565b6122b9565b6040516105c891906133b4565b60405180910390f35b3480156105dd57600080fd5b506105f860048036038101906105f39190612e89565b612389565b005b34801561060657600080fd5b50610621600480360381019061061c9190612ed8565b61249d565b005b34801561062f57600080fd5b5061064a60048036038101906106459190612ce0565b612517565b005b6004602052826000526040600020602052816000526040600020818154811061067457600080fd5b906000526020600020906003020160009250925050508060000160009054906101000a900473ffffffffffffffffffffffffffffffffffffffff16908060010154908060020154905083565b6106c8612b5f565b60405180606001604052803373ffffffffffffffffffffffffffffffffffffffff16815260200184815260200183815250905092915050565b6003602052816000526040600020602052806000526040600020600091509150505481565b6000600181111561073357fe5b84600181111561073f57fe5b141561080f57610758818361270990919063ffffffff16565b600360003373ffffffffffffffffffffffffffffffffffffffff1673ffffffffffffffffffffffffffffffffffffffff16815260200190815260200160002060007f4554480000000000000000000000000000000000000000000000000000000000815260200190815260200160002054101561080a576040517f08c379a000000000000000000000000000000000000000000000000000000000815260040161080190613339565b60405180910390fd5b6108a3565b81600360003373ffffffffffffffffffffffffffffffffffffffff1673ffffffffffffffffffffffffffffffffffffffff16815260200190815260200160002060008581526020019081526020016000205410156108a2576040517f08c379a000000000000000000000000000000000000000000000000000000000815260040161089990613379565b60405180910390fd5b5b50505050565b61092c34600360003373ffffffffffffffffffffffffffffffffffffffff1673ffffffffffffffffffffffffffffffffffffffff16815260200190815260200160002060007f455448000000000000000000000000000000000000000000000000000000000081526020019081526020016000205461278f90919063ffffffff16565b600360003373ffffffffffffffffffffffffffffffffffffffff1673ffffffffffffffffffffffffffffffffffffffff16815260200190815260200160002060007f4554480000000000000000000000000000000000000000000000000000000000815260200190815260200160002081905550565b60016020528060005260406000206000915090508060000154908060010160009054906101000a900473ffffffffffffffffffffffffffffffffffffffff16905082565b6109f284848484610726565b600460008481526020019081526020016000206000856001811115610a1357fe5b815260200190815260200160002060405180606001604052803373ffffffffffffffffffffffffffffffffffffffff16815260200184815260200183815250908060018154018082558091505060019003906000526020600020906003020160009091909190915060008201518160000160006101000a81548173ffffffffffffffffffffffffffffffffffffffff021916908373ffffffffffffffffffffffffffffffffffffffff1602179055506020820151816001015560408201518160020155505050505050565b610ae6612817565b73ffffffffffffffffffffffffffffffffffffffff16610b04610d9e565b73ffffffffffffffffffffffffffffffffffffffff1614610b8d576040517f08c379a00000000000000000000000000000000000000000000000000000000081526004018080602001828103825260208152602001807f4f776e61626c653a2063616c6c6572206973206e6f7420746865206f776e657281525060200191505060405180910390fd5b600073ffffffffffffffffffffffffffffffffffffffff1660008054906101000a900473ffffffffffffffffffffffffffffffffffffffff1673ffffffffffffffffffffffffffffffffffffffff167f8be0079c531659141344cd1fd0a4f28419497f9722a3daafe3b4186f6b6457e060405160405180910390a360008060006101000a81548173ffffffffffffffffffffffffffffffffffffffff021916908373ffffffffffffffffffffffffffffffffffffffff160217905550565b6000600360003373ffffffffffffffffffffffffffffffffffffffff1673ffffffffffffffffffffffffffffffffffffffff1681526020019081526020016000206000838152602001908152602001600020549050919050565b6060600460008481526020019081526020016000206000836001811115610cc857fe5b8152602001908152602001600020805480602002602001604051908101604052809291908181526020016000905b82821015610d9257838290600052602060002090600302016040518060600160405290816000820160009054906101000a900473ffffffffffffffffffffffffffffffffffffffff1673ffffffffffffffffffffffffffffffffffffffff1673ffffffffffffffffffffffffffffffffffffffff1681526020016001820154815260200160028201548152505081526020019060010190610cf6565b50505050905092915050565b60008060009054906101000a900473ffffffffffffffffffffffffffffffffffffffff16905090565b610dcf612817565b73ffffffffffffffffffffffffffffffffffffffff16610ded610d9e565b73ffffffffffffffffffffffffffffffffffffffff1614610e76576040517f08c379a00000000000000000000000000000000000000000000000000000000081526004018080602001828103825260208152602001807f4f776e61626c653a2063616c6c6572206973206e6f7420746865206f776e657281525060200191505060405180910390fd5b60405180604001604052808381526020018273ffffffffffffffffffffffffffffffffffffffff16815250600160008481526020019081526020016000206000820151816000015560208201518160010160006101000a81548173ffffffffffffffffffffffffffffffffffffffff021916908373ffffffffffffffffffffffffffffffffffffffff16021790555090505060028290806001815401808255809150506001900390600052602060002001600090919091909150555050565b610f40838383612389565b610f4b83838361181d565b505050565b60028181548110610f6057600080fd5b906000526020600020016000915090505481565b60005b600460008481526020019081526020016000206000856001811115610f9857fe5b81526020019081526020016000208054905081108015610fb85750600082115b156113b4576000600460008581526020019081526020016000206000866001811115610fe057fe5b81526020019081526020016000208281548110610ff957fe5b906000526020600020906003020160000160009054906101000a900473ffffffffffffffffffffffffffffffffffffffff16905060046000858152602001908152602001600020600086600181111561104e57fe5b8152602001908152602001600020828154811061106757fe5b9060005260206000209060030201600101548310156111ac576110de836004600087815260200190815260200160002060008860018111156110a557fe5b815260200190815260200160002084815481106110be57fe5b90600052602060002090600302016001015461281f90919063ffffffff16565b5061114283600360008473ffffffffffffffffffffffffffffffffffffffff1673ffffffffffffffffffffffffffffffffffffffff16815260200190815260200160002060008781526020019081526020016000205461278f90919063ffffffff16565b506111a683600360003373ffffffffffffffffffffffffffffffffffffffff1673ffffffffffffffffffffffffffffffffffffffff16815260200190815260200160002060008781526020019081526020016000205461281f90919063ffffffff16565b506113a6565b6004600085815260200190815260200160002060008660018111156111cd57fe5b815260200190815260200160002082815481106111e657fe5b9060005260206000209060030201600101548303925061125a8360046000878152602001908152602001600020600088600181111561122157fe5b8152602001908152602001600020848154811061123a57fe5b90600052602060002090600302016001015461281f90919063ffffffff16565b506112be83600360008473ffffffffffffffffffffffffffffffffffffffff1673ffffffffffffffffffffffffffffffffffffffff16815260200190815260200160002060008781526020019081526020016000205461278f90919063ffffffff16565b5061132283600360003373ffffffffffffffffffffffffffffffffffffffff1673ffffffffffffffffffffffffffffffffffffffff16815260200190815260200160002060008781526020019081526020016000205461281f90919063ffffffff16565b5060046000858152602001908152602001600020600086600181111561134457fe5b8152602001908152602001600020828154811061135d57fe5b9060005260206000209060030201600080820160006101000a81549073ffffffffffffffffffffffffffffffffffffffff02191690556001820160009055600282016000905550505b508080600101915050610f77565b50505050565b80600073ffffffffffffffffffffffffffffffffffffffff166001600083815260200190815260200160002060010160009054906101000a900473ffffffffffffffffffffffffffffffffffffffff1673ffffffffffffffffffffffffffffffffffffffff161415611494576040517f08c379a00000000000000000000000000000000000000000000000000000000081526004018080602001828103825260148152602001807f746f6b656e20646f6573206e6f7420657869737400000000000000000000000081525060200191505060405180910390fd5b82600360003373ffffffffffffffffffffffffffffffffffffffff1673ffffffffffffffffffffffffffffffffffffffff168152602001908152602001600020600084815260200190815260200160002054101561155a576040517f08c379a00000000000000000000000000000000000000000000000000000000081526004018080602001828103825260128152602001807f496e7375666669656e742062616c616e6365000000000000000000000000000081525060200191505060405180910390fd5b6115bd83600360003373ffffffffffffffffffffffffffffffffffffffff1673ffffffffffffffffffffffffffffffffffffffff16815260200190815260200160002060008581526020019081526020016000205461281f90919063ffffffff16565b600360003373ffffffffffffffffffffffffffffffffffffffff1673ffffffffffffffffffffffffffffffffffffffff1681526020019081526020016000206000848152602001908152602001600020819055506001600083815260200190815260200160002060010160009054906101000a900473ffffffffffffffffffffffffffffffffffffffff1673ffffffffffffffffffffffffffffffffffffffff1663a9059cbb33856040518363ffffffff1660e01b8152600401808373ffffffffffffffffffffffffffffffffffffffff16815260200182815260200192505050602060405180830381600087803b1580156116b857600080fd5b505af11580156116cc573d6000803e3d6000fd5b505050506040513d60208110156116e257600080fd5b810190808051906020019092919050505050505050565b6000826040015184604001511015801561171b57508160400151836040015110155b90509392505050565b606060046000848152602001908152602001600020600083600181111561174757fe5b8152602001908152602001600020805480602002602001604051908101604052809291908181526020016000905b8282101561181157838290600052602060002090600302016040518060600160405290816000820160009054906101000a900473ffffffffffffffffffffffffffffffffffffffff1673ffffffffffffffffffffffffffffffffffffffff1673ffffffffffffffffffffffffffffffffffffffff1681526020016001820154815260200160028201548152505081526020019060010190611775565b50505050905092915050565b6000600181111561182a57fe5b83600181111561183657fe5b14156118f5576000600360003373ffffffffffffffffffffffffffffffffffffffff1673ffffffffffffffffffffffffffffffffffffffff16815260200190815260200160002060007f455448000000000000000000000000000000000000000000000000000000000081526020019081526020016000205410156118f0576040517f08c379a00000000000000000000000000000000000000000000000000000000081526004016118e790613339565b60405180910390fd5b61198a565b6001600360003373ffffffffffffffffffffffffffffffffffffffff1673ffffffffffffffffffffffffffffffffffffffff1681526020019081526020016000206000848152602001908152602001600020541015611989576040517f08c379a000000000000000000000000000000000000000000000000000000000815260040161198090613379565b60405180910390fd5b5b505050565b80600360003373ffffffffffffffffffffffffffffffffffffffff1673ffffffffffffffffffffffffffffffffffffffff16815260200190815260200160002060007f45544800000000000000000000000000000000000000000000000000000000008152602001908152602001600020541015611a75576040517f08c379a00000000000000000000000000000000000000000000000000000000081526004018080602001828103825260128152602001807f496e7375666669656e742062616c616e6365000000000000000000000000000081525060200191505060405180910390fd5b611af881600360003373ffffffffffffffffffffffffffffffffffffffff1673ffffffffffffffffffffffffffffffffffffffff16815260200190815260200160002060007f455448000000000000000000000000000000000000000000000000000000000081526020019081526020016000205461281f90919063ffffffff16565b600360003373ffffffffffffffffffffffffffffffffffffffff1673ffffffffffffffffffffffffffffffffffffffff16815260200190815260200160002060007f45544800000000000000000000000000000000000000000000000000000000008152602001908152602001600020819055506000803373ffffffffffffffffffffffffffffffffffffffff168360405180600001905060006040518083038185875af1925050503d8060008114611bcd576040519150601f19603f3d011682016040523d82523d6000602084013e611bd2565b606091505b5091509150505050565b80600073ffffffffffffffffffffffffffffffffffffffff166001600083815260200190815260200160002060010160009054906101000a900473ffffffffffffffffffffffffffffffffffffffff1673ffffffffffffffffffffffffffffffffffffffff161415611cb6576040517f08c379a00000000000000000000000000000000000000000000000000000000081526004018080602001828103825260148152602001807f746f6b656e20646f6573206e6f7420657869737400000000000000000000000081525060200191505060405180910390fd5b6001600083815260200190815260200160002060010160009054906101000a900473ffffffffffffffffffffffffffffffffffffffff1673ffffffffffffffffffffffffffffffffffffffff166323b872dd3330866040518463ffffffff1660e01b8152600401808473ffffffffffffffffffffffffffffffffffffffff1681526020018373ffffffffffffffffffffffffffffffffffffffff1681526020018281526020019350505050602060405180830381600087803b158015611d7b57600080fd5b505af1158015611d8f573d6000803e3d6000fd5b505050506040513d6020811015611da557600080fd5b810190808051906020019092919050505050611e1a83600360003373ffffffffffffffffffffffffffffffffffffffff1673ffffffffffffffffffffffffffffffffffffffff16815260200190815260200160002060008581526020019081526020016000205461278f90919063ffffffff16565b600360003373ffffffffffffffffffffffffffffffffffffffff1673ffffffffffffffffffffffffffffffffffffffff168152602001908152602001600020600084815260200190815260200160002081905550505050565b60005b600460008481526020019081526020016000206000856001811115611e9757fe5b81526020019081526020016000208054905081108015611eb75750600082115b156122b3576000600460008581526020019081526020016000206000866001811115611edf57fe5b81526020019081526020016000208281548110611ef857fe5b906000526020600020906003020160000160009054906101000a900473ffffffffffffffffffffffffffffffffffffffff169050600460008581526020019081526020016000206000866001811115611f4d57fe5b81526020019081526020016000208281548110611f6657fe5b9060005260206000209060030201600101548310156120ab57611fdd83600460008781526020019081526020016000206000886001811115611fa457fe5b81526020019081526020016000208481548110611fbd57fe5b90600052602060002090600302016001015461281f90919063ffffffff16565b5061204183600360003373ffffffffffffffffffffffffffffffffffffffff1673ffffffffffffffffffffffffffffffffffffffff16815260200190815260200160002060008781526020019081526020016000205461278f90919063ffffffff16565b506120a583600360008473ffffffffffffffffffffffffffffffffffffffff1673ffffffffffffffffffffffffffffffffffffffff16815260200190815260200160002060008781526020019081526020016000205461281f90919063ffffffff16565b506122a5565b6004600085815260200190815260200160002060008660018111156120cc57fe5b815260200190815260200160002082815481106120e557fe5b906000526020600020906003020160010154830392506121598360046000878152602001908152602001600020600088600181111561212057fe5b8152602001908152602001600020848154811061213957fe5b90600052602060002090600302016001015461281f90919063ffffffff16565b506121bd83600360003373ffffffffffffffffffffffffffffffffffffffff1673ffffffffffffffffffffffffffffffffffffffff16815260200190815260200160002060008781526020019081526020016000205461278f90919063ffffffff16565b5061222183600360008473ffffffffffffffffffffffffffffffffffffffff1673ffffffffffffffffffffffffffffffffffffffff16815260200190815260200160002060008781526020019081526020016000205461281f90919063ffffffff16565b5060046000858152602001908152602001600020600086600181111561224357fe5b8152602001908152602001600020828154811061225c57fe5b9060005260206000209060030201600080820160006101000a81549073ffffffffffffffffffffffffffffffffffffffff02191690556001820160009055600282016000905550505b508080600101915050611e76565b50505050565b600080835114156122cd5760009050612383565b60018351141561230d578160400151836000815181106122e957fe5b60200260200101516040015111156123045760019050612383565b60009050612383565b60005b835181101561238157600184510381141561232f578351915050612383565b61236384828151811061233e57fe5b60200260200101518486600185018151811061235657fe5b60200260200101516116f9565b156123745760018101915050612383565b8080600101915050612310565b505b92915050565b6000600181111561239657fe5b8360018111156123a257fe5b14156124225760006004600084815260200190815260200160002060006001808111156123cb57fe5b8152602001908152602001600020805490501161241d576040517f08c379a000000000000000000000000000000000000000000000000000000000815260040161241490613359565b60405180910390fd5b612498565b600060046000848152602001908152602001600020600080600181111561244557fe5b81526020019081526020016000208054905011612497576040517f08c379a000000000000000000000000000000000000000000000000000000000815260040161248e90613359565b60405180910390fd5b5b505050565b6124a984848484610726565b6125116004600085815260200190815260200160002060008660018111156124cd57fe5b815260200190815260200160002060405180606001604052803373ffffffffffffffffffffffffffffffffffffffff168152602001858152602001848152506128a2565b50505050565b61251f612817565b73ffffffffffffffffffffffffffffffffffffffff1661253d610d9e565b73ffffffffffffffffffffffffffffffffffffffff16146125c6576040517f08c379a00000000000000000000000000000000000000000000000000000000081526004018080602001828103825260208152602001807f4f776e61626c653a2063616c6c6572206973206e6f7420746865206f776e657281525060200191505060405180910390fd5b600073ffffffffffffffffffffffffffffffffffffffff168173ffffffffffffffffffffffffffffffffffffffff16141561264c576040517f08c379a00000000000000000000000000000000000000000000000000000000081526004018080602001828103825260268152602001806135206026913960400191505060405180910390fd5b8073ffffffffffffffffffffffffffffffffffffffff1660008054906101000a900473ffffffffffffffffffffffffffffffffffffffff1673ffffffffffffffffffffffffffffffffffffffff167f8be0079c531659141344cd1fd0a4f28419497f9722a3daafe3b4186f6b6457e060405160405180910390a3806000806101000a81548173ffffffffffffffffffffffffffffffffffffffff021916908373ffffffffffffffffffffffffffffffffffffffff16021790555050565b60008083141561271c5760009050612789565b600082840290508284828161272d57fe5b0414612784576040517f08c379a00000000000000000000000000000000000000000000000000000000081526004018080602001828103825260218152602001806135466021913960400191505060405180910390fd5b809150505b92915050565b60008082840190508381101561280d576040517f08c379a000000000000000000000000000000000000000000000000000000000815260040180806020018281038252601b8152602001807f536166654d6174683a206164646974696f6e206f766572666c6f77000000000081525060200191505060405180910390fd5b8091505092915050565b600033905090565b600082821115612897576040517f08c379a000000000000000000000000000000000000000000000000000000000815260040180806020018281038252601e8152602001807f536166654d6174683a207375627472616374696f6e206f766572666c6f77000081525060200191505060405180910390fd5b818303905092915050565b600061296e83805480602002602001604051908101604052809291908181526020016000905b8282101561296457838290600052602060002090600302016040518060600160405290816000820160009054906101000a900473ffffffffffffffffffffffffffffffffffffffff1673ffffffffffffffffffffffffffffffffffffffff1673ffffffffffffffffffffffffffffffffffffffff16815260200160018201548152602001600282015481525050815260200190600101906128c8565b50505050836122b9565b905082805490508110612a08578282908060018154018082558091505060019003906000526020600020906003020160009091909190915060008201518160000160006101000a81548173ffffffffffffffffffffffffffffffffffffffff021916908373ffffffffffffffffffffffffffffffffffffffff16021790555060208201518160010155604082015181600201555050612b5a565b6000600184805490500390505b818110612adf57838181548110612a2857fe5b9060005260206000209060030201846001830181548110612a4557fe5b90600052602060002090600302016000820160009054906101000a900473ffffffffffffffffffffffffffffffffffffffff168160000160006101000a81548173ffffffffffffffffffffffffffffffffffffffff021916908373ffffffffffffffffffffffffffffffffffffffff1602179055506001820154816001015560028201548160020155905050808060019003915050612a15565b5081838281548110612aed57fe5b906000526020600020906003020160008201518160000160006101000a81548173ffffffffffffffffffffffffffffffffffffffff021916908373ffffffffffffffffffffffffffffffffffffffff16021790555060208201518160010155604082015181600201559050505b505050565b6040518060600160405280600073ffffffffffffffffffffffffffffffffffffffff16815260200160008152602001600081525090565b6000612ba9612ba484613400565b6133cf565b90508083825260208201905082856060860282011115612bc857600080fd5b60005b85811015612bf85781612bde8882612c6b565b845260208401935060608301925050600181019050612bcb565b5050509392505050565b600081359050612c11816134ca565b92915050565b600082601f830112612c2857600080fd5b8135612c38848260208601612b96565b91505092915050565b600081359050612c50816134e1565b92915050565b600081359050612c65816134f8565b92915050565b600060608284031215612c7d57600080fd5b612c8760606133cf565b90506000612c9784828501612c02565b6000830152506020612cab84828501612ccb565b6020830152506040612cbf84828501612ccb565b60408301525092915050565b600081359050612cda81613508565b92915050565b600060208284031215612cf257600080fd5b6000612d0084828501612c02565b91505092915050565b60008060408385031215612d1c57600080fd5b6000612d2a85828601612c02565b9250506020612d3b85828601612c41565b9150509250929050565b60008060808385031215612d5857600080fd5b600083013567ffffffffffffffff811115612d7257600080fd5b612d7e85828601612c17565b9250506020612d8f85828601612c6b565b9150509250929050565b600060208284031215612dab57600080fd5b6000612db984828501612c41565b91505092915050565b60008060408385031215612dd557600080fd5b6000612de385828601612c41565b9250506020612df485828601612c02565b9150509250929050565b60008060408385031215612e1157600080fd5b6000612e1f85828601612c41565b9250506020612e3085828601612c56565b9150509250929050565b600080600060608486031215612e4f57600080fd5b6000612e5d86828701612c41565b9350506020612e6e86828701612ccb565b9250506040612e7f86828701612ccb565b9150509250925092565b600080600060608486031215612e9e57600080fd5b6000612eac86828701612c56565b9350506020612ebd86828701612c41565b9250506040612ece86828701612ccb565b9150509250925092565b60008060008060808587031215612eee57600080fd5b6000612efc87828801612c56565b9450506020612f0d87828801612c41565b9350506040612f1e87828801612ccb565b9250506060612f2f87828801612ccb565b91505092959194509250565b60008060006101208486031215612f5157600080fd5b6000612f5f86828701612c6b565b9350506060612f7086828701612c6b565b92505060c0612f8186828701612c6b565b9150509250925092565b600060208284031215612f9d57600080fd5b6000612fab84828501612ccb565b91505092915050565b60008060408385031215612fc757600080fd5b6000612fd585828601612ccb565b9250506020612fe685828601612c41565b9150509250929050565b6000806040838503121561300357600080fd5b600061301185828601612ccb565b925050602061302285828601612ccb565b9150509250929050565b600061303883836131c4565b60608301905092915050565b61304d81613476565b82525050565b61305c81613476565b82525050565b600061306d8261343c565b6130778185613454565b93506130828361342c565b8060005b838110156130b357815161309a888261302c565b97506130a583613447565b925050600181019050613086565b5085935050505092915050565b6130c981613488565b82525050565b6130d881613494565b82525050565b60006130eb601683613465565b91507f496e7375666669656e74206574682062616c616e6365000000000000000000006000830152602082019050919050565b600061312b602a83613465565b91507f546865206f7264657220626f6f6b20697320656d70747920666f72207468697360008301527f206f7065726174696f6e000000000000000000000000000000000000000000006020830152604082019050919050565b6000613191601883613465565b91507f496e7375666669656e7420746f6b656e2062616c616e636500000000000000006000830152602082019050919050565b6060820160008201516131da6000850182613044565b5060208201516131ed6020850182613248565b5060408201516132006040850182613248565b50505050565b60608201600082015161321c6000850182613044565b50602082015161322f6020850182613248565b5060408201516132426040850182613248565b50505050565b613251816134be565b82525050565b613260816134be565b82525050565b600060208201905061327b6000830184613053565b92915050565b60006060820190506132966000830186613053565b6132a36020830185613257565b6132b06040830184613257565b949350505050565b600060208201905081810360008301526132d28184613062565b905092915050565b60006020820190506132ef60008301846130c0565b92915050565b600060208201905061330a60008301846130cf565b92915050565b600060408201905061332560008301856130cf565b6133326020830184613053565b9392505050565b60006020820190508181036000830152613352816130de565b9050919050565b600060208201905081810360008301526133728161311e565b9050919050565b6000602082019050818103600083015261339281613184565b9050919050565b60006060820190506133ae6000830184613206565b92915050565b60006020820190506133c96000830184613257565b92915050565b6000604051905081810181811067ffffffffffffffff821117156133f6576133f56134c8565b5b8060405250919050565b600067ffffffffffffffff82111561341b5761341a6134c8565b5b602082029050602081019050919050565b6000819050602082019050919050565b600081519050919050565b6000602082019050919050565b600082825260208201905092915050565b600082825260208201905092915050565b60006134818261349e565b9050919050565b60008115159050919050565b6000819050919050565b600073ffffffffffffffffffffffffffffffffffffffff82169050919050565b6000819050919050565bfe5b6134d381613476565b81146134de57600080fd5b50565b6134ea81613494565b81146134f557600080fd5b50565b6002811061350557600080fd5b50565b613511816134be565b811461351c57600080fd5b5056fe4f776e61626c653a206e6577206f776e657220697320746865207a65726f2061646472657373536166654d6174683a206d756c7469706c69636174696f6e206f766572666c6f77a2646970667358221220ba1dbcfe398c8d4a2c88628a354e340cade82475b30202ddd93c2f938b26a2a664736f6c63430007060033",
  "linkReferences": {},
  "deployedLinkReferences": {}
}